{"contracts/test/helpers/MockCore.sol":{"MockCore":{"abi":[{"inputs":[{"internalType":"address","name":"_principalTokenAddress","type":"address"}],"stateMutability":"nonpayable","type":"constructor"},{"inputs":[],"name":"AddressCantBeZero","type":"error"},{"inputs":[],"name":"AsyncNonceAlreadyReserved","type":"error"},{"inputs":[],"name":"AsyncNonceAlreadyUsed","type":"error"},{"inputs":[],"name":"AsyncNonceIsReservedByAnotherService","type":"error"},{"inputs":[],"name":"AsyncNonceNotReserved","type":"error"},{"inputs":[],"name":"BreakerExploded","type":"error"},{"inputs":[],"name":"ImplementationIsNotActive","type":"error"},{"inputs":[],"name":"IncorrectAddressInput","type":"error"},{"inputs":[],"name":"InsufficientBalance","type":"error"},{"inputs":[],"name":"InvalidAmount","type":"error"},{"inputs":[],"name":"InvalidServiceAddress","type":"error"},{"inputs":[],"name":"InvalidSignature","type":"error"},{"inputs":[],"name":"MsgSenderIsNotAContract","type":"error"},{"inputs":[],"name":"NotAnCA","type":"error"},{"inputs":[],"name":"OriginIsNotTheOriginExecutor","type":"error"},{"inputs":[],"name":"ProposalForUserValidatorNotReady","type":"error"},{"inputs":[],"name":"SenderIsNotAdmin","type":"error"},{"inputs":[],"name":"SenderIsNotTheProposedAdmin","type":"error"},{"inputs":[],"name":"SenderIsNotTheSenderExecutor","type":"error"},{"inputs":[],"name":"SenderIsNotTreasury","type":"error"},{"inputs":[],"name":"SyncNonceMismatch","type":"error"},{"inputs":[],"name":"TimeLockNotExpired","type":"error"},{"inputs":[],"name":"UserCannotExecuteTransaction","type":"error"},{"inputs":[],"name":"WindowExpired","type":"error"},{"anonymous":false,"inputs":[{"indexed":true,"internalType":"address","name":"to","type":"address"},{"indexed":false,"internalType":"address","name":"token","type":"address"},{"indexed":false,"internalType":"uint256","name":"amount","type":"uint256"}],"name":"CaPayProcessed","type":"event"},{"anonymous":false,"inputs":[{"indexed":true,"internalType":"address","name":"user","type":"address"},{"indexed":false,"internalType":"bytes32","name":"hashPayload","type":"bytes32"},{"indexed":false,"internalType":"uint256","name":"nonce","type":"uint256"}],"name":"NonceValidated","type":"event"},{"anonymous":false,"inputs":[{"indexed":true,"internalType":"address","name":"from","type":"address"},{"indexed":true,"internalType":"address","name":"to","type":"address"},{"indexed":false,"internalType":"address","name":"token","type":"address"},{"indexed":false,"internalType":"uint256","name":"amount","type":"uint256"}],"name":"PaymentProcessed","type":"event"},{"stateMutability":"nonpayable","type":"fallback"},{"inputs":[],"name":"acceptAdmin","outputs":[],"stateMutability":"nonpayable","type":"function"},{"inputs":[],"name":"acceptImplementation","outputs":[],"stateMutability":"nonpayable","type":"function"},{"inputs":[],"name":"acceptUserValidatorProposal","outputs":[],"stateMutability":"nonpayable","type":"function"},{"inputs":[{"internalType":"address","name":"","type":"address"},{"internalType":"address","name":"","type":"address"},{"internalType":"uint256","name":"","type":"uint256"}],"name":"addAmountToUser","outputs":[],"stateMutability":"nonpayable","type":"function"},{"inputs":[{"internalType":"address","name":"","type":"address"},{"internalType":"address","name":"","type":"address"},{"internalType":"uint256","name":"","type":"uint256"}],"name":"addBalance","outputs":[],"stateMutability":"nonpayable","type":"function"},{"inputs":[{"internalType":"address","name":"","type":"address"},{"internalType":"uint256","name":"","type":"uint256"}],"name":"asyncNonceStatus","outputs":[{"internalType":"bytes1","name":"","type":"bytes1"}],"stateMutability":"view","type":"function"},{"inputs":[{"components":[{"internalType":"address","name":"from","type":"address"},{"internalType":"address","name":"to_address","type":"address"},{"internalType":"string","name":"to_identity","type":"string"},{"internalType":"address","name":"token","type":"address"},{"internalType":"uint256","name":"amount","type":"uint256"},{"internalType":"uint256","name":"priorityFee","type":"uint256"},{"internalType":"address","name":"senderExecutor","type":"address"},{"internalType":"uint256","name":"nonce","type":"uint256"},{"internalType":"bool","name":"isAsyncExec","type":"bool"},{"internalType":"bytes","name":"signature","type":"bytes"}],"internalType":"struct CoreStructs.BatchData[]","name":"","type":"tuple[]"}],"name":"batchPay","outputs":[{"internalType":"uint256","name":"","type":"uint256"},{"internalType":"bool[]","name":"","type":"bool[]"}],"stateMutability":"nonpayable","type":"function"},{"inputs":[{"internalType":"address","name":"to","type":"address"},{"internalType":"address","name":"token","type":"address"},{"internalType":"uint256","name":"amount","type":"uint256"}],"name":"caPay","outputs":[],"stateMutability":"nonpayable","type":"function"},{"inputs":[],"name":"cancelUserValidatorProposal","outputs":[],"stateMutability":"nonpayable","type":"function"},{"inputs":[{"components":[{"internalType":"uint256","name":"amount","type":"uint256"},{"internalType":"address","name":"toAddress","type":"address"}],"internalType":"struct CoreStructs.DisperseCaPayMetadata[]","name":"","type":"tuple[]"},{"internalType":"address","name":"","type":"address"},{"internalType":"uint256","name":"","type":"uint256"}],"name":"disperseCaPay","outputs":[],"stateMutability":"nonpayable","type":"function"},{"inputs":[{"internalType":"address","name":"","type":"address"},{"components":[{"internalType":"uint256","name":"amount","type":"uint256"},{"internalType":"address","name":"to_address","type":"address"},{"internalType":"string","name":"to_identity","type":"string"}],"internalType":"struct CoreStructs.DispersePayMetadata[]","name":"","type":"tuple[]"},{"internalType":"address","name":"","type":"address"},{"internalType":"uint256","name":"","type":"uint256"},{"internalType":"uint256","name":"","type":"uint256"},{"internalType":"address","name":"","type":"address"},{"internalType":"uint256","name":"","type":"uint256"},{"internalType":"bool","name":"","type":"bool"},{"internalType":"bytes","name":"","type":"bytes"}],"name":"dispersePay","outputs":[],"stateMutability":"nonpayable","type":"function"},{"inputs":[],"name":"evvmID","outputs":[{"internalType":"uint256","name":"","type":"uint256"}],"stateMutability":"view","type":"function"},{"inputs":[],"name":"failureReason","outputs":[{"internalType":"bytes","name":"","type":"bytes"}],"stateMutability":"view","type":"function"},{"inputs":[{"internalType":"address","name":"","type":"address"},{"internalType":"uint256","name":"","type":"uint256"}],"name":"getAsyncNonceReservation","outputs":[{"internalType":"address","name":"","type":"address"}],"stateMutability":"view","type":"function"},{"inputs":[{"internalType":"address","name":"","type":"address"},{"internalType":"address","name":"","type":"address"}],"name":"getBalance","outputs":[{"internalType":"uint256","name":"","type":"uint256"}],"stateMutability":"view","type":"function"},{"inputs":[],"name":"getChainHostCoinAddress","outputs":[{"internalType":"address","name":"","type":"address"}],"stateMutability":"pure","type":"function"},{"inputs":[],"name":"getCurrentAdmin","outputs":[{"internalType":"address","name":"","type":"address"}],"stateMutability":"view","type":"function"},{"inputs":[],"name":"getCurrentImplementation","outputs":[{"internalType":"address","name":"","type":"address"}],"stateMutability":"view","type":"function"},{"inputs":[],"name":"getEraPrincipalToken","outputs":[{"internalType":"uint256","name":"","type":"uint256"}],"stateMutability":"view","type":"function"},{"inputs":[],"name":"getEvvmID","outputs":[{"internalType":"uint256","name":"","type":"uint256"}],"stateMutability":"view","type":"function"},{"inputs":[],"name":"getEvvmMetadata","outputs":[{"components":[{"internalType":"string","name":"EvvmName","type":"string"},{"internalType":"uint256","name":"EvvmID","type":"uint256"},{"internalType":"string","name":"principalTokenName","type":"string"},{"internalType":"string","name":"principalTokenSymbol","type":"string"},{"internalType":"address","name":"principalTokenAddress","type":"address"},{"internalType":"uint256","name":"totalSupply","type":"uint256"},{"internalType":"uint256","name":"eraTokens","type":"uint256"},{"internalType":"uint256","name":"reward","type":"uint256"}],"internalType":"struct CoreStructs.EvvmMetadata","name":"","type":"tuple"}],"stateMutability":"view","type":"function"},{"inputs":[{"internalType":"address","name":"user","type":"address"},{"internalType":"uint256","name":"nonce","type":"uint256"}],"name":"getIfUsedAsyncNonce","outputs":[{"internalType":"bool","name":"","type":"bool"}],"stateMutability":"view","type":"function"},{"inputs":[],"name":"getNameServiceAddress","outputs":[{"internalType":"address","name":"","type":"address"}],"stateMutability":"view","type":"function"},{"inputs":[{"internalType":"address","name":"user","type":"address"}],"name":"getNextCurrentSyncNonce","outputs":[{"internalType":"uint256","name":"","type":"uint256"}],"stateMutability":"view","type":"function"},{"inputs":[{"internalType":"address","name":"","type":"address"}],"name":"getNextFisherDepositNonce","outputs":[{"internalType":"uint256","name":"","type":"uint256"}],"stateMutability":"view","type":"function"},{"inputs":[],"name":"getPrincipalTokenAddress","outputs":[{"internalType":"address","name":"","type":"address"}],"stateMutability":"view","type":"function"},{"inputs":[],"name":"getPrincipalTokenTotalSupply","outputs":[{"internalType":"uint256","name":"","type":"uint256"}],"stateMutability":"view","type":"function"},{"inputs":[],"name":"getProposalAdmin","outputs":[{"internalType":"address","name":"","type":"address"}],"stateMutability":"view","type":"function"},{"inputs":[],"name":"getProposalImplementation","outputs":[{"internalType":"address","name":"","type":"address"}],"stateMutability":"view","type":"function"},{"inputs":[],"name":"getRewardAmount","outputs":[{"internalType":"uint256","name":"","type":"uint256"}],"stateMutability":"view","type":"function"},{"inputs":[],"name":"getStakingContractAddress","outputs":[{"internalType":"address","name":"","type":"address"}],"stateMutability":"view","type":"function"},{"inputs":[],"name":"getTimeToAcceptAdmin","outputs":[{"internalType":"uint256","name":"","type":"uint256"}],"stateMutability":"view","type":"function"},{"inputs":[],"name":"getTimeToAcceptImplementation","outputs":[{"internalType":"uint256","name":"","type":"uint256"}],"stateMutability":"view","type":"function"},{"inputs":[],"name":"getUserValidatorAddress","outputs":[{"internalType":"address","name":"","type":"address"}],"stateMutability":"view","type":"function"},{"inputs":[],"name":"getUserValidatorAddressDetails","outputs":[{"components":[{"internalType":"address","name":"current","type":"address"},{"internalType":"address","name":"proposal","type":"address"},{"internalType":"uint256","name":"timeToAccept","type":"uint256"}],"internalType":"struct ProposalStructs.AddressTypeProposal","name":"","type":"tuple"}],"stateMutability":"view","type":"function"},{"inputs":[],"name":"getWhitelistTokenToBeAdded","outputs":[{"internalType":"address","name":"","type":"address"}],"stateMutability":"view","type":"function"},{"inputs":[],"name":"getWhitelistTokenToBeAddedDateToSet","outputs":[{"internalType":"uint256","name":"","type":"uint256"}],"stateMutability":"view","type":"function"},{"inputs":[{"internalType":"address","name":"","type":"address"},{"internalType":"address","name":"","type":"address"}],"name":"initializeSystemContracts","outputs":[],"stateMutability":"nonpayable","type":"function"},{"inputs":[{"internalType":"address","name":"","type":"address"}],"name":"isAddressStaker","outputs":[{"internalType":"bool","name":"","type":"bool"}],"stateMutability":"view","type":"function"},{"inputs":[{"internalType":"address","name":"","type":"address"}],"name":"nextSyncNonce","outputs":[{"internalType":"uint256","name":"","type":"uint256"}],"stateMutability":"view","type":"function"},{"inputs":[{"internalType":"address","name":"from","type":"address"},{"internalType":"address","name":"to_address","type":"address"},{"internalType":"string","name":"to_identity","type":"string"},{"internalType":"address","name":"token","type":"address"},{"internalType":"uint256","name":"amount","type":"uint256"},{"internalType":"uint256","name":"priorityFee","type":"uint256"},{"internalType":"address","name":"senderExecutor","type":"address"},{"internalType":"uint256","name":"nonce","type":"uint256"},{"internalType":"bool","name":"isAsyncExec","type":"bool"},{"internalType":"bytes","name":"signature","type":"bytes"}],"name":"pay","outputs":[],"stateMutability":"nonpayable","type":"function"},{"inputs":[{"internalType":"address","name":"","type":"address"},{"internalType":"bytes1","name":"","type":"bytes1"}],"name":"pointStaker","outputs":[],"stateMutability":"nonpayable","type":"function"},{"inputs":[],"name":"principalTokenAddress","outputs":[{"internalType":"address","name":"","type":"address"}],"stateMutability":"view","type":"function"},{"inputs":[{"internalType":"address","name":"","type":"address"}],"name":"proposeAdmin","outputs":[],"stateMutability":"nonpayable","type":"function"},{"inputs":[{"internalType":"address","name":"","type":"address"}],"name":"proposeImplementation","outputs":[],"stateMutability":"nonpayable","type":"function"},{"inputs":[{"internalType":"address","name":"","type":"address"}],"name":"proposeUserValidator","outputs":[],"stateMutability":"nonpayable","type":"function"},{"inputs":[],"name":"recalculateReward","outputs":[],"stateMutability":"nonpayable","type":"function"},{"inputs":[],"name":"rejectProposalAdmin","outputs":[],"stateMutability":"nonpayable","type":"function"},{"inputs":[],"name":"rejectUpgrade","outputs":[],"stateMutability":"nonpayable","type":"function"},{"inputs":[{"internalType":"address","name":"","type":"address"},{"internalType":"address","name":"","type":"address"},{"internalType":"uint256","name":"","type":"uint256"}],"name":"removeAmountFromUser","outputs":[],"stateMutability":"nonpayable","type":"function"},{"inputs":[{"internalType":"uint256","name":"","type":"uint256"},{"internalType":"address","name":"","type":"address"}],"name":"reserveAsyncNonce","outputs":[],"stateMutability":"nonpayable","type":"function"},{"inputs":[{"internalType":"uint256","name":"","type":"uint256"}],"name":"revokeAsyncNonce","outputs":[],"stateMutability":"nonpayable","type":"function"},{"inputs":[{"internalType":"uint256","name":"_id","type":"uint256"}],"name":"setEvvmID","outputs":[],"stateMutability":"nonpayable","type":"function"},{"inputs":[{"internalType":"bool","name":"shouldFail","type":"bool"},{"internalType":"bytes","name":"reason","type":"bytes"}],"name":"setFailNonceValidation","outputs":[],"stateMutability":"nonpayable","type":"function"},{"inputs":[{"internalType":"bool","name":"shouldFail","type":"bool"},{"internalType":"bytes","name":"reason","type":"bytes"}],"name":"setFailPayment","outputs":[],"stateMutability":"nonpayable","type":"function"},{"inputs":[{"internalType":"address","name":"","type":"address"},{"internalType":"bytes1","name":"","type":"bytes1"}],"name":"setPointStaker","outputs":[],"stateMutability":"nonpayable","type":"function"},{"inputs":[{"internalType":"address","name":"_token","type":"address"}],"name":"setPrincipalTokenAddress","outputs":[],"stateMutability":"nonpayable","type":"function"},{"inputs":[],"name":"shouldFailNonceValidation","outputs":[{"internalType":"bool","name":"","type":"bool"}],"stateMutability":"view","type":"function"},{"inputs":[],"name":"shouldFailPayment","outputs":[{"internalType":"bool","name":"","type":"bool"}],"stateMutability":"view","type":"function"},{"inputs":[{"internalType":"address","name":"","type":"address"},{"internalType":"uint256","name":"","type":"uint256"}],"name":"usedNonces","outputs":[{"internalType":"bool","name":"","type":"bool"}],"stateMutability":"view","type":"function"},{"inputs":[{"internalType":"address","name":"user","type":"address"},{"internalType":"bytes32","name":"hashPayload","type":"bytes32"},{"internalType":"address","name":"originExecutor","type":"address"},{"internalType":"uint256","name":"nonce","type":"uint256"},{"internalType":"bool","name":"isAsyncExec","type":"bool"},{"internalType":"bytes","name":"signature","type":"bytes"}],"name":"validateAndConsumeNonce","outputs":[],"stateMutability":"nonpayable","type":"function"}],"evm":{"bytecode":{"linkReferences":{},"object":"608034607557601f6113dc38819003918201601f19168301916001600160401b03831184841017607a57808492602094604052833981010312607557516001600160a01b03811690819003607557600480546001600160a01b031916919091179055600160055560405161134b90816100918239f35b600080fd5b634e487b7160e01b600052604160045260246000fdfe6080604052600436101561001a575b3461001557005b600080fd5b60003560e01c806301ed3f5114610f0d57806304af45f314610d2657806309a69f57146102d15780630e18b681146103f75780630faff8e814610c73578063147bf6c4146102db57806315ba56e5146103f757806317c8515214610a5f578063280e32fb14610729578063286b4b4414610c1b57806329cca569146102d15780632cb0aa9814610c345780633a8cd872146102d15780633f54542a146103f7578063401dffee146103f75780634234a70614610c1b57806347ecd0f6146102d15780634b366ccc1461078e5780634b4a293a146102d15780634f9522a414610bd85780635300e162146103f757806355160ea614610bb65780635815d76214610a7d578063643d430c146102d157806365537e8d14610a5f57806365f6505714610a115780636a8a68941461031e5780636afe5795146102d15780636c9fa6381461030e5780636cd301481461036b57806373d867f5146102d157806376aefe77146108fc57806376e6eb7e1461030e5780637db6f4a2146107cd578063853da57e146107a7578063862b37371461078e5780638b62e507146107755780638bf6b935146102d15780638e0c71ad146102d157806391afcf5c146102d157806394e961c9146102d1578063954236dc146102d15780639dd18c15146102db5780639ea3ea9914610752578063a3aca8d714610729578063a7a096f61461066a578063aad88baa146104fc578063aca43908146103fc578063adb6233f146102d6578063b139c797146102d1578063b38c950a146103f7578063b517ac7d146103f7578063c898a6e9146103a5578063cc8f3f6d1461036b578063d0e3692d1461031e578063d3bca8841461030e578063d4fac45d146102e0578063e4e3cfee146102db578063e8163dda146102d6578063eaa4d6ca146102d15763ef8026130361000e573461001557602036600319011261001557005b61107d565b611244565b6110ed565b34610015576040366003190112610015576102f9610f79565b50610302610f8f565b50602060405160008152f35b346100155761031c3661120a565b005b34610015576040366003190112610015576001600160a01b0361033f610f79565b1660005260026020526040600020602435600052602052602060ff604060002054166040519015158152f35b34610015576020366003190112610015576001600160a01b0361038c610f79565b1660005260036020526020604060002054604051908152f35b34610015577f6735b7fbefd125bef8c4083373cd273e9b6e34e3be0b23cebd946f989b9a09346103d43661120a565b604080516001600160a01b039384168152602081019290925292909116929190a2005b611099565b346100155761014036600319011261001557610416610f79565b61041e610f8f565b6044356001600160401b0381116100155761043d903690600401610ffb565b50606435906001600160a01b03821682036100155761045a610fd1565b5061046361106d565b50610124356001600160401b03811161001557610484903690600401610ffb565b5060ff60005460081c166104d857604080516001600160a01b039384168152608435602082015291831693909216917fa48793584600905a3386f996bb7d0e3d8bd0cf62dce1ad2469c2e550207c3e3491a3005b60405162461bcd60e51b815260206004820152806104f860248201611140565b0390fd5b346100155761050a366111cf565b9060ff801960005416911515161760005580516001600160401b03811161065457610536600154611106565b601f81116105e7575b50602091601f821160011461057b57918192600092610570575b5050600019600383901b1c1916600191821b179055005b015190508280610559565b601f1982169260016000526000805160206112f68339815191529160005b8581106105cf575083600195106105b6575b505050811b01600155005b015160001960f88460031b161c191690558280806105ab565b91926020600181928685015181550194019201610599565b6001600052601f820160051c6000805160206112f683398151915201906020831061063e575b601f0160051c6000805160206112f683398151915201905b818110610632575061053f565b60008155600101610625565b6000805160206112f6833981519152915061060d565b634e487b7160e01b600052604160045260246000fd5b34610015576060366003190112610015576004356001600160401b038111610015573660238201121561001557806004013590602460206106aa84610f62565b6106b76040519182610f41565b848152019260061b8201019036821161001557602401915b8183106106de5761031c610f8f565b604083360312610015576040519060408201908282106001600160401b038311176106545760409260209284528535815261071a838701610fe7565b838201528152019201916106cf565b34610015576000366003190112610015576004546040516001600160a01b039091168152602090f35b3461001557600036600319011261001557602060ff600054166040519015158152f35b346100155760403660031901126100155761031c610f8f565b3461001557604036600319011261001557610302610f79565b3461001557600036600319011261001557602060ff60005460081c166040519015158152f35b3461001557610120366003190112610015576107e7610f79565b506024356001600160401b0381116100155736602382011215610015578060040135906024602061081784610f62565b6108246040519182610f41565b848152019260051b820101903682116100155760248101925b82841061087f5761084c610fa5565b50610855610fbb565b5061085e61105e565b50610104356001600160401b0381116100155761031c903690600401610ffb565b83356001600160401b0381116100155782016060602319823603011261001557604051916108ac83610f26565b602482013583526108bf60448301610fe7565b60208401526064820135926001600160401b038411610015576108ec602094936024869536920101610ffb565b604082015281520193019261083d565b346100155760c036600319011261001557610915610f79565b61091d610fa5565b506064359061092a61104f565b5060a4356001600160401b0381116100155761094a903690600401610ffb565b5060ff600054166104d85760018060a01b03169081600052600260205260406000208160005260205260ff604060002054166109d75760407fea69de7b94ee8035326d39c368f4686e91bea242d10341cedb498eef32b649ac91836000526002602052816000208160005260205281600020600160ff1982541617905581519060243582526020820152a2005b60405162461bcd60e51b8152602060048201526012602482015271139bdb98d948185b1c9958591e481d5cd95960721b6044820152606490fd5b3461001557600036600319011261001557610a2a6112d6565b506060610a356112d6565b6040805182516001600160a01b039081168252602080850151909116908201529181015190820152f35b34610015576000366003190112610015576020600554604051908152f35b3461001557610a8b366111cf565b9061ff0060005491151560081b169061ff0019161760005580516001600160401b03811161065457610abe600154611106565b601f8111610b49575b50602091601f8211600114610af757918192600092610570575050600019600383901b1c1916600191821b179055005b601f1982169260016000526000805160206112f68339815191529160005b858110610b31575083600195106105b657505050811b01600155005b91926020600181928685015181550194019201610b15565b6001600052601f820160051c6000805160206112f6833981519152019060208310610ba0575b601f0160051c6000805160206112f683398151915201905b818110610b945750610ac7565b60008155600101610b87565b6000805160206112f68339815191529150610b6f565b3461001557604036600319011261001557610bcf610f79565b5061031c610f8f565b3461001557600036600319011261001557610c17604051610c0381610bfc81611140565b0382610f41565b6040519182916020835260208301906110ac565b0390f35b3461001557602036600319011261001557610302610f79565b34610015576020366003190112610015576001600160a01b03610c55610f79565b166bffffffffffffffffffffffff60a01b6004541617600455600080f35b3461001557600036600319011261001557610c8c611286565b50610c95611286565b60405180916020825260e0610cf4610cde610cbe845161010060208801526101208701906110ac565b602085015160408701526040850151601f198783030160608801526110ac565b6060840151858203601f190160808701526110ac565b9160018060a01b0360808201511660a085015260a081015160c085015260c08101518285015201516101008301520390f35b34610015576020366003190112610015576004356001600160401b03811161001557366023820112156100155780600401359060246020610d6684610f62565b610d736040519182610f41565b848152019260051b820101903682116100155760248101925b828410610df7576040516020610da28183610f41565b60008252600036813760405191829160408301600084526040828501528251809152816060850193019160005b828110610dde57505050500390f35b8351151585528695509381019392810192600101610dcf565b83356001600160401b0381116100155782016101406023198236030112610015576040519161014083018381106001600160401b0382111761065457604052610e4260248301610fe7565b8352610e5060448301610fe7565b602084015260648201356001600160401b03811161001557610e789060243691850101610ffb565b6040840152610e8960848301610fe7565b606084015260a4820135608084015260c482013560a0840152610eae60e48301610fe7565b60c084015261010482013560e0840152610124820135801515810361001557610100840152610144820135926001600160401b03841161001557610efc602094936024869536920101610ffb565b610120820152815201930192610d8c565b3461001557602036600319011261001557600435600555005b606081019081106001600160401b0382111761065457604052565b90601f801991011681019081106001600160401b0382111761065457604052565b6001600160401b0381116106545760051b60200190565b600435906001600160a01b038216820361001557565b602435906001600160a01b038216820361001557565b604435906001600160a01b038216820361001557565b60a435906001600160a01b038216820361001557565b60c435906001600160a01b038216820361001557565b35906001600160a01b038216820361001557565b81601f82011215610015576020813591016001600160401b0382116106545760405192611032601f8401601f191660200185610f41565b828452828201116100155781600092602092838601378301015290565b60843590811515820361001557565b60e43590811515820361001557565b6101043590811515820361001557565b3461001557600036600319011261001557602060405160008152f35b3461001557600036600319011261001557005b919082519283825260005b8481106110d8575050826000602080949584010152601f8019910116010190565b806020809284010151828286010152016110b7565b346100155760203660031901126100155761031c610f79565b90600182811c92168015611136575b602083101461112057565b634e487b7160e01b600052602260045260246000fd5b91607f1691611115565b6001546000929161115082611106565b80825291600181169081156111b3575060011461116b575050565b600160009081529293509091906000805160206112f68339815191525b838310611199575060209250010190565b600181602092949394548385870101520191019190611188565b9050602093945060ff929192191683830152151560051b010190565b9060406003198301126100155760043580151581036100155791602435906001600160401b0382116100155761120791600401610ffb565b90565b6060906003190112610015576004356001600160a01b038116810361001557906024356001600160a01b0381168103610015579060443590565b34610015576000604036600319011261128357600435906001600160a01b03821682036112835750506024356001600160f81b03198116810361001557005b80fd5b6040519061010082018281106001600160401b0382111761065457604052600060e08360608152826020820152606060408201526060808201528260808201528260a08201528260c08201520152565b604051906112e382610f26565b6000604083828152826020820152015256feb10e2d527612073b26eecdfd717e6a320cf44b4afac2b0732d9fcbe2b7fa0cf6a26469706673582212206123b215e8ac32c1e61c11cdc689a496cfc698c4d778eb72f90b95d55e9165ff64736f6c634300081c0033","opcodes":"PUSH1 0x80 CALLVALUE PUSH1 0x75 JUMPI PUSH1 0x1F PUSH2 0x13DC CODESIZE DUP2 SWAP1 SUB SWAP2 DUP3 ADD PUSH1 0x1F NOT AND DUP4 ADD SWAP2 PUSH1 0x1 PUSH1 0x1 PUSH1 0x40 SHL SUB DUP4 GT DUP5 DUP5 LT OR PUSH1 0x7A JUMPI DUP1 DUP5 SWAP3 PUSH1 0x20 SWAP5 PUSH1 0x40 MSTORE DUP4 CODECOPY DUP2 ADD SUB SLT PUSH1 0x75 JUMPI MLOAD PUSH1 0x1 PUSH1 0x1 PUSH1 0xA0 SHL SUB DUP2 AND SWAP1 DUP2 SWAP1 SUB PUSH1 0x75 JUMPI PUSH1 0x4 DUP1 SLOAD PUSH1 0x1 PUSH1 0x1 PUSH1 0xA0 SHL SUB NOT AND SWAP2 SWAP1 SWAP2 OR SWAP1 SSTORE PUSH1 0x1 PUSH1 0x5 SSTORE PUSH1 0x40 MLOAD PUSH2 0x134B SWAP1 DUP2 PUSH2 0x91 DUP3 CODECOPY RETURN JUMPDEST PUSH1 0x0 DUP1 REVERT JUMPDEST PUSH4 0x4E487B71 PUSH1 0xE0 SHL PUSH1 0x0 MSTORE PUSH1 0x41 PUSH1 0x4 MSTORE PUSH1 0x24 PUSH1 0x0 REVERT INVALID PUSH1 0x80 PUSH1 0x40 MSTORE PUSH1 0x4 CALLDATASIZE LT ISZERO PUSH2 0x1A JUMPI JUMPDEST CALLVALUE PUSH2 0x15 JUMPI STOP JUMPDEST PUSH1 0x0 DUP1 REVERT JUMPDEST PUSH1 0x0 CALLDATALOAD PUSH1 0xE0 SHR DUP1 PUSH4 0x1ED3F51 EQ PUSH2 0xF0D JUMPI DUP1 PUSH4 0x4AF45F3 EQ PUSH2 0xD26 JUMPI DUP1 PUSH4 0x9A69F57 EQ PUSH2 0x2D1 JUMPI DUP1 PUSH4 0xE18B681 EQ PUSH2 0x3F7 JUMPI DUP1 PUSH4 0xFAFF8E8 EQ PUSH2 0xC73 JUMPI DUP1 PUSH4 0x147BF6C4 EQ PUSH2 0x2DB JUMPI DUP1 PUSH4 0x15BA56E5 EQ PUSH2 0x3F7 JUMPI DUP1 PUSH4 0x17C85152 EQ PUSH2 0xA5F JUMPI DUP1 PUSH4 0x280E32FB EQ PUSH2 0x729 JUMPI DUP1 PUSH4 0x286B4B44 EQ PUSH2 0xC1B JUMPI DUP1 PUSH4 0x29CCA569 EQ PUSH2 0x2D1 JUMPI DUP1 PUSH4 0x2CB0AA98 EQ PUSH2 0xC34 JUMPI DUP1 PUSH4 0x3A8CD872 EQ PUSH2 0x2D1 JUMPI DUP1 PUSH4 0x3F54542A EQ PUSH2 0x3F7 JUMPI DUP1 PUSH4 0x401DFFEE EQ PUSH2 0x3F7 JUMPI DUP1 PUSH4 0x4234A706 EQ PUSH2 0xC1B JUMPI DUP1 PUSH4 0x47ECD0F6 EQ PUSH2 0x2D1 JUMPI DUP1 PUSH4 0x4B366CCC EQ PUSH2 0x78E JUMPI DUP1 PUSH4 0x4B4A293A EQ PUSH2 0x2D1 JUMPI DUP1 PUSH4 0x4F9522A4 EQ PUSH2 0xBD8 JUMPI DUP1 PUSH4 0x5300E162 EQ PUSH2 0x3F7 JUMPI DUP1 PUSH4 0x55160EA6 EQ PUSH2 0xBB6 JUMPI DUP1 PUSH4 0x5815D762 EQ PUSH2 0xA7D JUMPI DUP1 PUSH4 0x643D430C EQ PUSH2 0x2D1 JUMPI DUP1 PUSH4 0x65537E8D EQ PUSH2 0xA5F JUMPI DUP1 PUSH4 0x65F65057 EQ PUSH2 0xA11 JUMPI DUP1 PUSH4 0x6A8A6894 EQ PUSH2 0x31E JUMPI DUP1 PUSH4 0x6AFE5795 EQ PUSH2 0x2D1 JUMPI DUP1 PUSH4 0x6C9FA638 EQ PUSH2 0x30E JUMPI DUP1 PUSH4 0x6CD30148 EQ PUSH2 0x36B JUMPI DUP1 PUSH4 0x73D867F5 EQ PUSH2 0x2D1 JUMPI DUP1 PUSH4 0x76AEFE77 EQ PUSH2 0x8FC JUMPI DUP1 PUSH4 0x76E6EB7E EQ PUSH2 0x30E JUMPI DUP1 PUSH4 0x7DB6F4A2 EQ PUSH2 0x7CD JUMPI DUP1 PUSH4 0x853DA57E EQ PUSH2 0x7A7 JUMPI DUP1 PUSH4 0x862B3737 EQ PUSH2 0x78E JUMPI DUP1 PUSH4 0x8B62E507 EQ PUSH2 0x775 JUMPI DUP1 PUSH4 0x8BF6B935 EQ PUSH2 0x2D1 JUMPI DUP1 PUSH4 0x8E0C71AD EQ PUSH2 0x2D1 JUMPI DUP1 PUSH4 0x91AFCF5C EQ PUSH2 0x2D1 JUMPI DUP1 PUSH4 0x94E961C9 EQ PUSH2 0x2D1 JUMPI DUP1 PUSH4 0x954236DC EQ PUSH2 0x2D1 JUMPI DUP1 PUSH4 0x9DD18C15 EQ PUSH2 0x2DB JUMPI DUP1 PUSH4 0x9EA3EA99 EQ PUSH2 0x752 JUMPI DUP1 PUSH4 0xA3ACA8D7 EQ PUSH2 0x729 JUMPI DUP1 PUSH4 0xA7A096F6 EQ PUSH2 0x66A JUMPI DUP1 PUSH4 0xAAD88BAA EQ PUSH2 0x4FC JUMPI DUP1 PUSH4 0xACA43908 EQ PUSH2 0x3FC JUMPI DUP1 PUSH4 0xADB6233F EQ PUSH2 0x2D6 JUMPI DUP1 PUSH4 0xB139C797 EQ PUSH2 0x2D1 JUMPI DUP1 PUSH4 0xB38C950A EQ PUSH2 0x3F7 JUMPI DUP1 PUSH4 0xB517AC7D EQ PUSH2 0x3F7 JUMPI DUP1 PUSH4 0xC898A6E9 EQ PUSH2 0x3A5 JUMPI DUP1 PUSH4 0xCC8F3F6D EQ PUSH2 0x36B JUMPI DUP1 PUSH4 0xD0E3692D EQ PUSH2 0x31E JUMPI DUP1 PUSH4 0xD3BCA884 EQ PUSH2 0x30E JUMPI DUP1 PUSH4 0xD4FAC45D EQ PUSH2 0x2E0 JUMPI DUP1 PUSH4 0xE4E3CFEE EQ PUSH2 0x2DB JUMPI DUP1 PUSH4 0xE8163DDA EQ PUSH2 0x2D6 JUMPI DUP1 PUSH4 0xEAA4D6CA EQ PUSH2 0x2D1 JUMPI PUSH4 0xEF802613 SUB PUSH2 0xE JUMPI CALLVALUE PUSH2 0x15 JUMPI PUSH1 0x20 CALLDATASIZE PUSH1 0x3 NOT ADD SLT PUSH2 0x15 JUMPI STOP JUMPDEST PUSH2 0x107D JUMP JUMPDEST PUSH2 0x1244 JUMP JUMPDEST PUSH2 0x10ED JUMP JUMPDEST CALLVALUE PUSH2 0x15 JUMPI PUSH1 0x40 CALLDATASIZE PUSH1 0x3 NOT ADD SLT PUSH2 0x15 JUMPI PUSH2 0x2F9 PUSH2 0xF79 JUMP JUMPDEST POP PUSH2 0x302 PUSH2 0xF8F JUMP JUMPDEST POP PUSH1 0x20 PUSH1 0x40 MLOAD PUSH1 0x0 DUP2 MSTORE RETURN JUMPDEST CALLVALUE PUSH2 0x15 JUMPI PUSH2 0x31C CALLDATASIZE PUSH2 0x120A JUMP JUMPDEST STOP JUMPDEST CALLVALUE PUSH2 0x15 JUMPI PUSH1 0x40 CALLDATASIZE PUSH1 0x3 NOT ADD SLT PUSH2 0x15 JUMPI PUSH1 0x1 PUSH1 0x1 PUSH1 0xA0 SHL SUB PUSH2 0x33F PUSH2 0xF79 JUMP JUMPDEST AND PUSH1 0x0 MSTORE PUSH1 0x2 PUSH1 0x20 MSTORE PUSH1 0x40 PUSH1 0x0 KECCAK256 PUSH1 0x24 CALLDATALOAD PUSH1 0x0 MSTORE PUSH1 0x20 MSTORE PUSH1 0x20 PUSH1 0xFF PUSH1 0x40 PUSH1 0x0 KECCAK256 SLOAD AND PUSH1 0x40 MLOAD SWAP1 ISZERO ISZERO DUP2 MSTORE RETURN JUMPDEST CALLVALUE PUSH2 0x15 JUMPI PUSH1 0x20 CALLDATASIZE PUSH1 0x3 NOT ADD SLT PUSH2 0x15 JUMPI PUSH1 0x1 PUSH1 0x1 PUSH1 0xA0 SHL SUB PUSH2 0x38C PUSH2 0xF79 JUMP JUMPDEST AND PUSH1 0x0 MSTORE PUSH1 0x3 PUSH1 0x20 MSTORE PUSH1 0x20 PUSH1 0x40 PUSH1 0x0 KECCAK256 SLOAD PUSH1 0x40 MLOAD SWAP1 DUP2 MSTORE RETURN JUMPDEST CALLVALUE PUSH2 0x15 JUMPI PUSH32 0x6735B7FBEFD125BEF8C4083373CD273E9B6E34E3BE0B23CEBD946F989B9A0934 PUSH2 0x3D4 CALLDATASIZE PUSH2 0x120A JUMP JUMPDEST PUSH1 0x40 DUP1 MLOAD PUSH1 0x1 PUSH1 0x1 PUSH1 0xA0 SHL SUB SWAP4 DUP5 AND DUP2 MSTORE PUSH1 0x20 DUP2 ADD SWAP3 SWAP1 SWAP3 MSTORE SWAP3 SWAP1 SWAP2 AND SWAP3 SWAP2 SWAP1 LOG2 STOP JUMPDEST PUSH2 0x1099 JUMP JUMPDEST CALLVALUE PUSH2 0x15 JUMPI PUSH2 0x140 CALLDATASIZE PUSH1 0x3 NOT ADD SLT PUSH2 0x15 JUMPI PUSH2 0x416 PUSH2 0xF79 JUMP JUMPDEST PUSH2 0x41E PUSH2 0xF8F JUMP JUMPDEST PUSH1 0x44 CALLDATALOAD PUSH1 0x1 PUSH1 0x1 PUSH1 0x40 SHL SUB DUP2 GT PUSH2 0x15 JUMPI PUSH2 0x43D SWAP1 CALLDATASIZE SWAP1 PUSH1 0x4 ADD PUSH2 0xFFB JUMP JUMPDEST POP PUSH1 0x64 CALLDATALOAD SWAP1 PUSH1 0x1 PUSH1 0x1 PUSH1 0xA0 SHL SUB DUP3 AND DUP3 SUB PUSH2 0x15 JUMPI PUSH2 0x45A PUSH2 0xFD1 JUMP JUMPDEST POP PUSH2 0x463 PUSH2 0x106D JUMP JUMPDEST POP PUSH2 0x124 CALLDATALOAD PUSH1 0x1 PUSH1 0x1 PUSH1 0x40 SHL SUB DUP2 GT PUSH2 0x15 JUMPI PUSH2 0x484 SWAP1 CALLDATASIZE SWAP1 PUSH1 0x4 ADD PUSH2 0xFFB JUMP JUMPDEST POP PUSH1 0xFF PUSH1 0x0 SLOAD PUSH1 0x8 SHR AND PUSH2 0x4D8 JUMPI PUSH1 0x40 DUP1 MLOAD PUSH1 0x1 PUSH1 0x1 PUSH1 0xA0 SHL SUB SWAP4 DUP5 AND DUP2 MSTORE PUSH1 0x84 CALLDATALOAD PUSH1 0x20 DUP3 ADD MSTORE SWAP2 DUP4 AND SWAP4 SWAP1 SWAP3 AND SWAP2 PUSH32 0xA48793584600905A3386F996BB7D0E3D8BD0CF62DCE1AD2469C2E550207C3E34 SWAP2 LOG3 STOP JUMPDEST PUSH1 0x40 MLOAD PUSH3 0x461BCD PUSH1 0xE5 SHL DUP2 MSTORE PUSH1 0x20 PUSH1 0x4 DUP3 ADD MSTORE DUP1 PUSH2 0x4F8 PUSH1 0x24 DUP3 ADD PUSH2 0x1140 JUMP JUMPDEST SUB SWAP1 REVERT JUMPDEST CALLVALUE PUSH2 0x15 JUMPI PUSH2 0x50A CALLDATASIZE PUSH2 0x11CF JUMP JUMPDEST SWAP1 PUSH1 0xFF DUP1 NOT PUSH1 0x0 SLOAD AND SWAP2 ISZERO ISZERO AND OR PUSH1 0x0 SSTORE DUP1 MLOAD PUSH1 0x1 PUSH1 0x1 PUSH1 0x40 SHL SUB DUP2 GT PUSH2 0x654 JUMPI PUSH2 0x536 PUSH1 0x1 SLOAD PUSH2 0x1106 JUMP JUMPDEST PUSH1 0x1F DUP2 GT PUSH2 0x5E7 JUMPI JUMPDEST POP PUSH1 0x20 SWAP2 PUSH1 0x1F DUP3 GT PUSH1 0x1 EQ PUSH2 0x57B JUMPI SWAP2 DUP2 SWAP3 PUSH1 0x0 SWAP3 PUSH2 0x570 JUMPI JUMPDEST POP POP PUSH1 0x0 NOT PUSH1 0x3 DUP4 SWAP1 SHL SHR NOT AND PUSH1 0x1 SWAP2 DUP3 SHL OR SWAP1 SSTORE STOP JUMPDEST ADD MLOAD SWAP1 POP DUP3 DUP1 PUSH2 0x559 JUMP JUMPDEST PUSH1 0x1F NOT DUP3 AND SWAP3 PUSH1 0x1 PUSH1 0x0 MSTORE PUSH1 0x0 DUP1 MLOAD PUSH1 0x20 PUSH2 0x12F6 DUP4 CODECOPY DUP2 MLOAD SWAP2 MSTORE SWAP2 PUSH1 0x0 JUMPDEST DUP6 DUP2 LT PUSH2 0x5CF JUMPI POP DUP4 PUSH1 0x1 SWAP6 LT PUSH2 0x5B6 JUMPI JUMPDEST POP POP POP DUP2 SHL ADD PUSH1 0x1 SSTORE STOP JUMPDEST ADD MLOAD PUSH1 0x0 NOT PUSH1 0xF8 DUP5 PUSH1 0x3 SHL AND SHR NOT AND SWAP1 SSTORE DUP3 DUP1 DUP1 PUSH2 0x5AB JUMP JUMPDEST SWAP2 SWAP3 PUSH1 0x20 PUSH1 0x1 DUP2 SWAP3 DUP7 DUP6 ADD MLOAD DUP2 SSTORE ADD SWAP5 ADD SWAP3 ADD PUSH2 0x599 JUMP JUMPDEST PUSH1 0x1 PUSH1 0x0 MSTORE PUSH1 0x1F DUP3 ADD PUSH1 0x5 SHR PUSH1 0x0 DUP1 MLOAD PUSH1 0x20 PUSH2 0x12F6 DUP4 CODECOPY DUP2 MLOAD SWAP2 MSTORE ADD SWAP1 PUSH1 0x20 DUP4 LT PUSH2 0x63E JUMPI JUMPDEST PUSH1 0x1F ADD PUSH1 0x5 SHR PUSH1 0x0 DUP1 MLOAD PUSH1 0x20 PUSH2 0x12F6 DUP4 CODECOPY DUP2 MLOAD SWAP2 MSTORE ADD SWAP1 JUMPDEST DUP2 DUP2 LT PUSH2 0x632 JUMPI POP PUSH2 0x53F JUMP JUMPDEST PUSH1 0x0 DUP2 SSTORE PUSH1 0x1 ADD PUSH2 0x625 JUMP JUMPDEST PUSH1 0x0 DUP1 MLOAD PUSH1 0x20 PUSH2 0x12F6 DUP4 CODECOPY DUP2 MLOAD SWAP2 MSTORE SWAP2 POP PUSH2 0x60D JUMP JUMPDEST PUSH4 0x4E487B71 PUSH1 0xE0 SHL PUSH1 0x0 MSTORE PUSH1 0x41 PUSH1 0x4 MSTORE PUSH1 0x24 PUSH1 0x0 REVERT JUMPDEST CALLVALUE PUSH2 0x15 JUMPI PUSH1 0x60 CALLDATASIZE PUSH1 0x3 NOT ADD SLT PUSH2 0x15 JUMPI PUSH1 0x4 CALLDATALOAD PUSH1 0x1 PUSH1 0x1 PUSH1 0x40 SHL SUB DUP2 GT PUSH2 0x15 JUMPI CALLDATASIZE PUSH1 0x23 DUP3 ADD SLT ISZERO PUSH2 0x15 JUMPI DUP1 PUSH1 0x4 ADD CALLDATALOAD SWAP1 PUSH1 0x24 PUSH1 0x20 PUSH2 0x6AA DUP5 PUSH2 0xF62 JUMP JUMPDEST PUSH2 0x6B7 PUSH1 0x40 MLOAD SWAP2 DUP3 PUSH2 0xF41 JUMP JUMPDEST DUP5 DUP2 MSTORE ADD SWAP3 PUSH1 0x6 SHL DUP3 ADD ADD SWAP1 CALLDATASIZE DUP3 GT PUSH2 0x15 JUMPI PUSH1 0x24 ADD SWAP2 JUMPDEST DUP2 DUP4 LT PUSH2 0x6DE JUMPI PUSH2 0x31C PUSH2 0xF8F JUMP JUMPDEST PUSH1 0x40 DUP4 CALLDATASIZE SUB SLT PUSH2 0x15 JUMPI PUSH1 0x40 MLOAD SWAP1 PUSH1 0x40 DUP3 ADD SWAP1 DUP3 DUP3 LT PUSH1 0x1 PUSH1 0x1 PUSH1 0x40 SHL SUB DUP4 GT OR PUSH2 0x654 JUMPI PUSH1 0x40 SWAP3 PUSH1 0x20 SWAP3 DUP5 MSTORE DUP6 CALLDATALOAD DUP2 MSTORE PUSH2 0x71A DUP4 DUP8 ADD PUSH2 0xFE7 JUMP JUMPDEST DUP4 DUP3 ADD MSTORE DUP2 MSTORE ADD SWAP3 ADD SWAP2 PUSH2 0x6CF JUMP JUMPDEST CALLVALUE PUSH2 0x15 JUMPI PUSH1 0x0 CALLDATASIZE PUSH1 0x3 NOT ADD SLT PUSH2 0x15 JUMPI PUSH1 0x4 SLOAD PUSH1 0x40 MLOAD PUSH1 0x1 PUSH1 0x1 PUSH1 0xA0 SHL SUB SWAP1 SWAP2 AND DUP2 MSTORE PUSH1 0x20 SWAP1 RETURN JUMPDEST CALLVALUE PUSH2 0x15 JUMPI PUSH1 0x0 CALLDATASIZE PUSH1 0x3 NOT ADD SLT PUSH2 0x15 JUMPI PUSH1 0x20 PUSH1 0xFF PUSH1 0x0 SLOAD AND PUSH1 0x40 MLOAD SWAP1 ISZERO ISZERO DUP2 MSTORE RETURN JUMPDEST CALLVALUE PUSH2 0x15 JUMPI PUSH1 0x40 CALLDATASIZE PUSH1 0x3 NOT ADD SLT PUSH2 0x15 JUMPI PUSH2 0x31C PUSH2 0xF8F JUMP JUMPDEST CALLVALUE PUSH2 0x15 JUMPI PUSH1 0x40 CALLDATASIZE PUSH1 0x3 NOT ADD SLT PUSH2 0x15 JUMPI PUSH2 0x302 PUSH2 0xF79 JUMP JUMPDEST CALLVALUE PUSH2 0x15 JUMPI PUSH1 0x0 CALLDATASIZE PUSH1 0x3 NOT ADD SLT PUSH2 0x15 JUMPI PUSH1 0x20 PUSH1 0xFF PUSH1 0x0 SLOAD PUSH1 0x8 SHR AND PUSH1 0x40 MLOAD SWAP1 ISZERO ISZERO DUP2 MSTORE RETURN JUMPDEST CALLVALUE PUSH2 0x15 JUMPI PUSH2 0x120 CALLDATASIZE PUSH1 0x3 NOT ADD SLT PUSH2 0x15 JUMPI PUSH2 0x7E7 PUSH2 0xF79 JUMP JUMPDEST POP PUSH1 0x24 CALLDATALOAD PUSH1 0x1 PUSH1 0x1 PUSH1 0x40 SHL SUB DUP2 GT PUSH2 0x15 JUMPI CALLDATASIZE PUSH1 0x23 DUP3 ADD SLT ISZERO PUSH2 0x15 JUMPI DUP1 PUSH1 0x4 ADD CALLDATALOAD SWAP1 PUSH1 0x24 PUSH1 0x20 PUSH2 0x817 DUP5 PUSH2 0xF62 JUMP JUMPDEST PUSH2 0x824 PUSH1 0x40 MLOAD SWAP2 DUP3 PUSH2 0xF41 JUMP JUMPDEST DUP5 DUP2 MSTORE ADD SWAP3 PUSH1 0x5 SHL DUP3 ADD ADD SWAP1 CALLDATASIZE DUP3 GT PUSH2 0x15 JUMPI PUSH1 0x24 DUP2 ADD SWAP3 JUMPDEST DUP3 DUP5 LT PUSH2 0x87F JUMPI PUSH2 0x84C PUSH2 0xFA5 JUMP JUMPDEST POP PUSH2 0x855 PUSH2 0xFBB JUMP JUMPDEST POP PUSH2 0x85E PUSH2 0x105E JUMP JUMPDEST POP PUSH2 0x104 CALLDATALOAD PUSH1 0x1 PUSH1 0x1 PUSH1 0x40 SHL SUB DUP2 GT PUSH2 0x15 JUMPI PUSH2 0x31C SWAP1 CALLDATASIZE SWAP1 PUSH1 0x4 ADD PUSH2 0xFFB JUMP JUMPDEST DUP4 CALLDATALOAD PUSH1 0x1 PUSH1 0x1 PUSH1 0x40 SHL SUB DUP2 GT PUSH2 0x15 JUMPI DUP3 ADD PUSH1 0x60 PUSH1 0x23 NOT DUP3 CALLDATASIZE SUB ADD SLT PUSH2 0x15 JUMPI PUSH1 0x40 MLOAD SWAP2 PUSH2 0x8AC DUP4 PUSH2 0xF26 JUMP JUMPDEST PUSH1 0x24 DUP3 ADD CALLDATALOAD DUP4 MSTORE PUSH2 0x8BF PUSH1 0x44 DUP4 ADD PUSH2 0xFE7 JUMP JUMPDEST PUSH1 0x20 DUP5 ADD MSTORE PUSH1 0x64 DUP3 ADD CALLDATALOAD SWAP3 PUSH1 0x1 PUSH1 0x1 PUSH1 0x40 SHL SUB DUP5 GT PUSH2 0x15 JUMPI PUSH2 0x8EC PUSH1 0x20 SWAP5 SWAP4 PUSH1 0x24 DUP7 SWAP6 CALLDATASIZE SWAP3 ADD ADD PUSH2 0xFFB JUMP JUMPDEST PUSH1 0x40 DUP3 ADD MSTORE DUP2 MSTORE ADD SWAP4 ADD SWAP3 PUSH2 0x83D JUMP JUMPDEST CALLVALUE PUSH2 0x15 JUMPI PUSH1 0xC0 CALLDATASIZE PUSH1 0x3 NOT ADD SLT PUSH2 0x15 JUMPI PUSH2 0x915 PUSH2 0xF79 JUMP JUMPDEST PUSH2 0x91D PUSH2 0xFA5 JUMP JUMPDEST POP PUSH1 0x64 CALLDATALOAD SWAP1 PUSH2 0x92A PUSH2 0x104F JUMP JUMPDEST POP PUSH1 0xA4 CALLDATALOAD PUSH1 0x1 PUSH1 0x1 PUSH1 0x40 SHL SUB DUP2 GT PUSH2 0x15 JUMPI PUSH2 0x94A SWAP1 CALLDATASIZE SWAP1 PUSH1 0x4 ADD PUSH2 0xFFB JUMP JUMPDEST POP PUSH1 0xFF PUSH1 0x0 SLOAD AND PUSH2 0x4D8 JUMPI PUSH1 0x1 DUP1 PUSH1 0xA0 SHL SUB AND SWAP1 DUP2 PUSH1 0x0 MSTORE PUSH1 0x2 PUSH1 0x20 MSTORE PUSH1 0x40 PUSH1 0x0 KECCAK256 DUP2 PUSH1 0x0 MSTORE PUSH1 0x20 MSTORE PUSH1 0xFF PUSH1 0x40 PUSH1 0x0 KECCAK256 SLOAD AND PUSH2 0x9D7 JUMPI PUSH1 0x40 PUSH32 0xEA69DE7B94EE8035326D39C368F4686E91BEA242D10341CEDB498EEF32B649AC SWAP2 DUP4 PUSH1 0x0 MSTORE PUSH1 0x2 PUSH1 0x20 MSTORE DUP2 PUSH1 0x0 KECCAK256 DUP2 PUSH1 0x0 MSTORE PUSH1 0x20 MSTORE DUP2 PUSH1 0x0 KECCAK256 PUSH1 0x1 PUSH1 0xFF NOT DUP3 SLOAD AND OR SWAP1 SSTORE DUP2 MLOAD SWAP1 PUSH1 0x24 CALLDATALOAD DUP3 MSTORE PUSH1 0x20 DUP3 ADD MSTORE LOG2 STOP JUMPDEST PUSH1 0x40 MLOAD PUSH3 0x461BCD PUSH1 0xE5 SHL DUP2 MSTORE PUSH1 0x20 PUSH1 0x4 DUP3 ADD MSTORE PUSH1 0x12 PUSH1 0x24 DUP3 ADD MSTORE PUSH18 0x139BDB98D948185B1C9958591E481D5CD959 PUSH1 0x72 SHL PUSH1 0x44 DUP3 ADD MSTORE PUSH1 0x64 SWAP1 REVERT JUMPDEST CALLVALUE PUSH2 0x15 JUMPI PUSH1 0x0 CALLDATASIZE PUSH1 0x3 NOT ADD SLT PUSH2 0x15 JUMPI PUSH2 0xA2A PUSH2 0x12D6 JUMP JUMPDEST POP PUSH1 0x60 PUSH2 0xA35 PUSH2 0x12D6 JUMP JUMPDEST PUSH1 0x40 DUP1 MLOAD DUP3 MLOAD PUSH1 0x1 PUSH1 0x1 PUSH1 0xA0 SHL SUB SWAP1 DUP2 AND DUP3 MSTORE PUSH1 0x20 DUP1 DUP6 ADD MLOAD SWAP1 SWAP2 AND SWAP1 DUP3 ADD MSTORE SWAP2 DUP2 ADD MLOAD SWAP1 DUP3 ADD MSTORE RETURN JUMPDEST CALLVALUE PUSH2 0x15 JUMPI PUSH1 0x0 CALLDATASIZE PUSH1 0x3 NOT ADD SLT PUSH2 0x15 JUMPI PUSH1 0x20 PUSH1 0x5 SLOAD PUSH1 0x40 MLOAD SWAP1 DUP2 MSTORE RETURN JUMPDEST CALLVALUE PUSH2 0x15 JUMPI PUSH2 0xA8B CALLDATASIZE PUSH2 0x11CF JUMP JUMPDEST SWAP1 PUSH2 0xFF00 PUSH1 0x0 SLOAD SWAP2 ISZERO ISZERO PUSH1 0x8 SHL AND SWAP1 PUSH2 0xFF00 NOT AND OR PUSH1 0x0 SSTORE DUP1 MLOAD PUSH1 0x1 PUSH1 0x1 PUSH1 0x40 SHL SUB DUP2 GT PUSH2 0x654 JUMPI PUSH2 0xABE PUSH1 0x1 SLOAD PUSH2 0x1106 JUMP JUMPDEST PUSH1 0x1F DUP2 GT PUSH2 0xB49 JUMPI JUMPDEST POP PUSH1 0x20 SWAP2 PUSH1 0x1F DUP3 GT PUSH1 0x1 EQ PUSH2 0xAF7 JUMPI SWAP2 DUP2 SWAP3 PUSH1 0x0 SWAP3 PUSH2 0x570 JUMPI POP POP PUSH1 0x0 NOT PUSH1 0x3 DUP4 SWAP1 SHL SHR NOT AND PUSH1 0x1 SWAP2 DUP3 SHL OR SWAP1 SSTORE STOP JUMPDEST PUSH1 0x1F NOT DUP3 AND SWAP3 PUSH1 0x1 PUSH1 0x0 MSTORE PUSH1 0x0 DUP1 MLOAD PUSH1 0x20 PUSH2 0x12F6 DUP4 CODECOPY DUP2 MLOAD SWAP2 MSTORE SWAP2 PUSH1 0x0 JUMPDEST DUP6 DUP2 LT PUSH2 0xB31 JUMPI POP DUP4 PUSH1 0x1 SWAP6 LT PUSH2 0x5B6 JUMPI POP POP POP DUP2 SHL ADD PUSH1 0x1 SSTORE STOP JUMPDEST SWAP2 SWAP3 PUSH1 0x20 PUSH1 0x1 DUP2 SWAP3 DUP7 DUP6 ADD MLOAD DUP2 SSTORE ADD SWAP5 ADD SWAP3 ADD PUSH2 0xB15 JUMP JUMPDEST PUSH1 0x1 PUSH1 0x0 MSTORE PUSH1 0x1F DUP3 ADD PUSH1 0x5 SHR PUSH1 0x0 DUP1 MLOAD PUSH1 0x20 PUSH2 0x12F6 DUP4 CODECOPY DUP2 MLOAD SWAP2 MSTORE ADD SWAP1 PUSH1 0x20 DUP4 LT PUSH2 0xBA0 JUMPI JUMPDEST PUSH1 0x1F ADD PUSH1 0x5 SHR PUSH1 0x0 DUP1 MLOAD PUSH1 0x20 PUSH2 0x12F6 DUP4 CODECOPY DUP2 MLOAD SWAP2 MSTORE ADD SWAP1 JUMPDEST DUP2 DUP2 LT PUSH2 0xB94 JUMPI POP PUSH2 0xAC7 JUMP JUMPDEST PUSH1 0x0 DUP2 SSTORE PUSH1 0x1 ADD PUSH2 0xB87 JUMP JUMPDEST PUSH1 0x0 DUP1 MLOAD PUSH1 0x20 PUSH2 0x12F6 DUP4 CODECOPY DUP2 MLOAD SWAP2 MSTORE SWAP2 POP PUSH2 0xB6F JUMP JUMPDEST CALLVALUE PUSH2 0x15 JUMPI PUSH1 0x40 CALLDATASIZE PUSH1 0x3 NOT ADD SLT PUSH2 0x15 JUMPI PUSH2 0xBCF PUSH2 0xF79 JUMP JUMPDEST POP PUSH2 0x31C PUSH2 0xF8F JUMP JUMPDEST CALLVALUE PUSH2 0x15 JUMPI PUSH1 0x0 CALLDATASIZE PUSH1 0x3 NOT ADD SLT PUSH2 0x15 JUMPI PUSH2 0xC17 PUSH1 0x40 MLOAD PUSH2 0xC03 DUP2 PUSH2 0xBFC DUP2 PUSH2 0x1140 JUMP JUMPDEST SUB DUP3 PUSH2 0xF41 JUMP JUMPDEST PUSH1 0x40 MLOAD SWAP2 DUP3 SWAP2 PUSH1 0x20 DUP4 MSTORE PUSH1 0x20 DUP4 ADD SWAP1 PUSH2 0x10AC JUMP JUMPDEST SUB SWAP1 RETURN JUMPDEST CALLVALUE PUSH2 0x15 JUMPI PUSH1 0x20 CALLDATASIZE PUSH1 0x3 NOT ADD SLT PUSH2 0x15 JUMPI PUSH2 0x302 PUSH2 0xF79 JUMP JUMPDEST CALLVALUE PUSH2 0x15 JUMPI PUSH1 0x20 CALLDATASIZE PUSH1 0x3 NOT ADD SLT PUSH2 0x15 JUMPI PUSH1 0x1 PUSH1 0x1 PUSH1 0xA0 SHL SUB PUSH2 0xC55 PUSH2 0xF79 JUMP JUMPDEST AND PUSH12 0xFFFFFFFFFFFFFFFFFFFFFFFF PUSH1 0xA0 SHL PUSH1 0x4 SLOAD AND OR PUSH1 0x4 SSTORE PUSH1 0x0 DUP1 RETURN JUMPDEST CALLVALUE PUSH2 0x15 JUMPI PUSH1 0x0 CALLDATASIZE PUSH1 0x3 NOT ADD SLT PUSH2 0x15 JUMPI PUSH2 0xC8C PUSH2 0x1286 JUMP JUMPDEST POP PUSH2 0xC95 PUSH2 0x1286 JUMP JUMPDEST PUSH1 0x40 MLOAD DUP1 SWAP2 PUSH1 0x20 DUP3 MSTORE PUSH1 0xE0 PUSH2 0xCF4 PUSH2 0xCDE PUSH2 0xCBE DUP5 MLOAD PUSH2 0x100 PUSH1 0x20 DUP9 ADD MSTORE PUSH2 0x120 DUP8 ADD SWAP1 PUSH2 0x10AC JUMP JUMPDEST PUSH1 0x20 DUP6 ADD MLOAD PUSH1 0x40 DUP8 ADD MSTORE PUSH1 0x40 DUP6 ADD MLOAD PUSH1 0x1F NOT DUP8 DUP4 SUB ADD PUSH1 0x60 DUP9 ADD MSTORE PUSH2 0x10AC JUMP JUMPDEST PUSH1 0x60 DUP5 ADD MLOAD DUP6 DUP3 SUB PUSH1 0x1F NOT ADD PUSH1 0x80 DUP8 ADD MSTORE PUSH2 0x10AC JUMP JUMPDEST SWAP2 PUSH1 0x1 DUP1 PUSH1 0xA0 SHL SUB PUSH1 0x80 DUP3 ADD MLOAD AND PUSH1 0xA0 DUP6 ADD MSTORE PUSH1 0xA0 DUP2 ADD MLOAD PUSH1 0xC0 DUP6 ADD MSTORE PUSH1 0xC0 DUP2 ADD MLOAD DUP3 DUP6 ADD MSTORE ADD MLOAD PUSH2 0x100 DUP4 ADD MSTORE SUB SWAP1 RETURN JUMPDEST CALLVALUE PUSH2 0x15 JUMPI PUSH1 0x20 CALLDATASIZE PUSH1 0x3 NOT ADD SLT PUSH2 0x15 JUMPI PUSH1 0x4 CALLDATALOAD PUSH1 0x1 PUSH1 0x1 PUSH1 0x40 SHL SUB DUP2 GT PUSH2 0x15 JUMPI CALLDATASIZE PUSH1 0x23 DUP3 ADD SLT ISZERO PUSH2 0x15 JUMPI DUP1 PUSH1 0x4 ADD CALLDATALOAD SWAP1 PUSH1 0x24 PUSH1 0x20 PUSH2 0xD66 DUP5 PUSH2 0xF62 JUMP JUMPDEST PUSH2 0xD73 PUSH1 0x40 MLOAD SWAP2 DUP3 PUSH2 0xF41 JUMP JUMPDEST DUP5 DUP2 MSTORE ADD SWAP3 PUSH1 0x5 SHL DUP3 ADD ADD SWAP1 CALLDATASIZE DUP3 GT PUSH2 0x15 JUMPI PUSH1 0x24 DUP2 ADD SWAP3 JUMPDEST DUP3 DUP5 LT PUSH2 0xDF7 JUMPI PUSH1 0x40 MLOAD PUSH1 0x20 PUSH2 0xDA2 DUP2 DUP4 PUSH2 0xF41 JUMP JUMPDEST PUSH1 0x0 DUP3 MSTORE PUSH1 0x0 CALLDATASIZE DUP2 CALLDATACOPY PUSH1 0x40 MLOAD SWAP2 DUP3 SWAP2 PUSH1 0x40 DUP4 ADD PUSH1 0x0 DUP5 MSTORE PUSH1 0x40 DUP3 DUP6 ADD MSTORE DUP3 MLOAD DUP1 SWAP2 MSTORE DUP2 PUSH1 0x60 DUP6 ADD SWAP4 ADD SWAP2 PUSH1 0x0 JUMPDEST DUP3 DUP2 LT PUSH2 0xDDE JUMPI POP POP POP POP SUB SWAP1 RETURN JUMPDEST DUP4 MLOAD ISZERO ISZERO DUP6 MSTORE DUP7 SWAP6 POP SWAP4 DUP2 ADD SWAP4 SWAP3 DUP2 ADD SWAP3 PUSH1 0x1 ADD PUSH2 0xDCF JUMP JUMPDEST DUP4 CALLDATALOAD PUSH1 0x1 PUSH1 0x1 PUSH1 0x40 SHL SUB DUP2 GT PUSH2 0x15 JUMPI DUP3 ADD PUSH2 0x140 PUSH1 0x23 NOT DUP3 CALLDATASIZE SUB ADD SLT PUSH2 0x15 JUMPI PUSH1 0x40 MLOAD SWAP2 PUSH2 0x140 DUP4 ADD DUP4 DUP2 LT PUSH1 0x1 PUSH1 0x1 PUSH1 0x40 SHL SUB DUP3 GT OR PUSH2 0x654 JUMPI PUSH1 0x40 MSTORE PUSH2 0xE42 PUSH1 0x24 DUP4 ADD PUSH2 0xFE7 JUMP JUMPDEST DUP4 MSTORE PUSH2 0xE50 PUSH1 0x44 DUP4 ADD PUSH2 0xFE7 JUMP JUMPDEST PUSH1 0x20 DUP5 ADD MSTORE PUSH1 0x64 DUP3 ADD CALLDATALOAD PUSH1 0x1 PUSH1 0x1 PUSH1 0x40 SHL SUB DUP2 GT PUSH2 0x15 JUMPI PUSH2 0xE78 SWAP1 PUSH1 0x24 CALLDATASIZE SWAP2 DUP6 ADD ADD PUSH2 0xFFB JUMP JUMPDEST PUSH1 0x40 DUP5 ADD MSTORE PUSH2 0xE89 PUSH1 0x84 DUP4 ADD PUSH2 0xFE7 JUMP JUMPDEST PUSH1 0x60 DUP5 ADD MSTORE PUSH1 0xA4 DUP3 ADD CALLDATALOAD PUSH1 0x80 DUP5 ADD MSTORE PUSH1 0xC4 DUP3 ADD CALLDATALOAD PUSH1 0xA0 DUP5 ADD MSTORE PUSH2 0xEAE PUSH1 0xE4 DUP4 ADD PUSH2 0xFE7 JUMP JUMPDEST PUSH1 0xC0 DUP5 ADD MSTORE PUSH2 0x104 DUP3 ADD CALLDATALOAD PUSH1 0xE0 DUP5 ADD MSTORE PUSH2 0x124 DUP3 ADD CALLDATALOAD DUP1 ISZERO ISZERO DUP2 SUB PUSH2 0x15 JUMPI PUSH2 0x100 DUP5 ADD MSTORE PUSH2 0x144 DUP3 ADD CALLDATALOAD SWAP3 PUSH1 0x1 PUSH1 0x1 PUSH1 0x40 SHL SUB DUP5 GT PUSH2 0x15 JUMPI PUSH2 0xEFC PUSH1 0x20 SWAP5 SWAP4 PUSH1 0x24 DUP7 SWAP6 CALLDATASIZE SWAP3 ADD ADD PUSH2 0xFFB JUMP JUMPDEST PUSH2 0x120 DUP3 ADD MSTORE DUP2 MSTORE ADD SWAP4 ADD SWAP3 PUSH2 0xD8C JUMP JUMPDEST CALLVALUE PUSH2 0x15 JUMPI PUSH1 0x20 CALLDATASIZE PUSH1 0x3 NOT ADD SLT PUSH2 0x15 JUMPI PUSH1 0x4 CALLDATALOAD PUSH1 0x5 SSTORE STOP JUMPDEST PUSH1 0x60 DUP2 ADD SWAP1 DUP2 LT PUSH1 0x1 PUSH1 0x1 PUSH1 0x40 SHL SUB DUP3 GT OR PUSH2 0x654 JUMPI PUSH1 0x40 MSTORE JUMP JUMPDEST SWAP1 PUSH1 0x1F DUP1 NOT SWAP2 ADD AND DUP2 ADD SWAP1 DUP2 LT PUSH1 0x1 PUSH1 0x1 PUSH1 0x40 SHL SUB DUP3 GT OR PUSH2 0x654 JUMPI PUSH1 0x40 MSTORE JUMP JUMPDEST PUSH1 0x1 PUSH1 0x1 PUSH1 0x40 SHL SUB DUP2 GT PUSH2 0x654 JUMPI PUSH1 0x5 SHL PUSH1 0x20 ADD SWAP1 JUMP JUMPDEST PUSH1 0x4 CALLDATALOAD SWAP1 PUSH1 0x1 PUSH1 0x1 PUSH1 0xA0 SHL SUB DUP3 AND DUP3 SUB PUSH2 0x15 JUMPI JUMP JUMPDEST PUSH1 0x24 CALLDATALOAD SWAP1 PUSH1 0x1 PUSH1 0x1 PUSH1 0xA0 SHL SUB DUP3 AND DUP3 SUB PUSH2 0x15 JUMPI JUMP JUMPDEST PUSH1 0x44 CALLDATALOAD SWAP1 PUSH1 0x1 PUSH1 0x1 PUSH1 0xA0 SHL SUB DUP3 AND DUP3 SUB PUSH2 0x15 JUMPI JUMP JUMPDEST PUSH1 0xA4 CALLDATALOAD SWAP1 PUSH1 0x1 PUSH1 0x1 PUSH1 0xA0 SHL SUB DUP3 AND DUP3 SUB PUSH2 0x15 JUMPI JUMP JUMPDEST PUSH1 0xC4 CALLDATALOAD SWAP1 PUSH1 0x1 PUSH1 0x1 PUSH1 0xA0 SHL SUB DUP3 AND DUP3 SUB PUSH2 0x15 JUMPI JUMP JUMPDEST CALLDATALOAD SWAP1 PUSH1 0x1 PUSH1 0x1 PUSH1 0xA0 SHL SUB DUP3 AND DUP3 SUB PUSH2 0x15 JUMPI JUMP JUMPDEST DUP2 PUSH1 0x1F DUP3 ADD SLT ISZERO PUSH2 0x15 JUMPI PUSH1 0x20 DUP2 CALLDATALOAD SWAP2 ADD PUSH1 0x1 PUSH1 0x1 PUSH1 0x40 SHL SUB DUP3 GT PUSH2 0x654 JUMPI PUSH1 0x40 MLOAD SWAP3 PUSH2 0x1032 PUSH1 0x1F DUP5 ADD PUSH1 0x1F NOT AND PUSH1 0x20 ADD DUP6 PUSH2 0xF41 JUMP JUMPDEST DUP3 DUP5 MSTORE DUP3 DUP3 ADD GT PUSH2 0x15 JUMPI DUP2 PUSH1 0x0 SWAP3 PUSH1 0x20 SWAP3 DUP4 DUP7 ADD CALLDATACOPY DUP4 ADD ADD MSTORE SWAP1 JUMP JUMPDEST PUSH1 0x84 CALLDATALOAD SWAP1 DUP2 ISZERO ISZERO DUP3 SUB PUSH2 0x15 JUMPI JUMP JUMPDEST PUSH1 0xE4 CALLDATALOAD SWAP1 DUP2 ISZERO ISZERO DUP3 SUB PUSH2 0x15 JUMPI JUMP JUMPDEST PUSH2 0x104 CALLDATALOAD SWAP1 DUP2 ISZERO ISZERO DUP3 SUB PUSH2 0x15 JUMPI JUMP JUMPDEST CALLVALUE PUSH2 0x15 JUMPI PUSH1 0x0 CALLDATASIZE PUSH1 0x3 NOT ADD SLT PUSH2 0x15 JUMPI PUSH1 0x20 PUSH1 0x40 MLOAD PUSH1 0x0 DUP2 MSTORE RETURN JUMPDEST CALLVALUE PUSH2 0x15 JUMPI PUSH1 0x0 CALLDATASIZE PUSH1 0x3 NOT ADD SLT PUSH2 0x15 JUMPI STOP JUMPDEST SWAP2 SWAP1 DUP3 MLOAD SWAP3 DUP4 DUP3 MSTORE PUSH1 0x0 JUMPDEST DUP5 DUP2 LT PUSH2 0x10D8 JUMPI POP POP DUP3 PUSH1 0x0 PUSH1 0x20 DUP1 SWAP5 SWAP6 DUP5 ADD ADD MSTORE PUSH1 0x1F DUP1 NOT SWAP2 ADD AND ADD ADD SWAP1 JUMP JUMPDEST DUP1 PUSH1 0x20 DUP1 SWAP3 DUP5 ADD ADD MLOAD DUP3 DUP3 DUP7 ADD ADD MSTORE ADD PUSH2 0x10B7 JUMP JUMPDEST CALLVALUE PUSH2 0x15 JUMPI PUSH1 0x20 CALLDATASIZE PUSH1 0x3 NOT ADD SLT PUSH2 0x15 JUMPI PUSH2 0x31C PUSH2 0xF79 JUMP JUMPDEST SWAP1 PUSH1 0x1 DUP3 DUP2 SHR SWAP3 AND DUP1 ISZERO PUSH2 0x1136 JUMPI JUMPDEST PUSH1 0x20 DUP4 LT EQ PUSH2 0x1120 JUMPI JUMP JUMPDEST PUSH4 0x4E487B71 PUSH1 0xE0 SHL PUSH1 0x0 MSTORE PUSH1 0x22 PUSH1 0x4 MSTORE PUSH1 0x24 PUSH1 0x0 REVERT JUMPDEST SWAP2 PUSH1 0x7F AND SWAP2 PUSH2 0x1115 JUMP JUMPDEST PUSH1 0x1 SLOAD PUSH1 0x0 SWAP3 SWAP2 PUSH2 0x1150 DUP3 PUSH2 0x1106 JUMP JUMPDEST DUP1 DUP3 MSTORE SWAP2 PUSH1 0x1 DUP2 AND SWAP1 DUP2 ISZERO PUSH2 0x11B3 JUMPI POP PUSH1 0x1 EQ PUSH2 0x116B JUMPI POP POP JUMP JUMPDEST PUSH1 0x1 PUSH1 0x0 SWAP1 DUP2 MSTORE SWAP3 SWAP4 POP SWAP1 SWAP2 SWAP1 PUSH1 0x0 DUP1 MLOAD PUSH1 0x20 PUSH2 0x12F6 DUP4 CODECOPY DUP2 MLOAD SWAP2 MSTORE JUMPDEST DUP4 DUP4 LT PUSH2 0x1199 JUMPI POP PUSH1 0x20 SWAP3 POP ADD ADD SWAP1 JUMP JUMPDEST PUSH1 0x1 DUP2 PUSH1 0x20 SWAP3 SWAP5 SWAP4 SWAP5 SLOAD DUP4 DUP6 DUP8 ADD ADD MSTORE ADD SWAP2 ADD SWAP2 SWAP1 PUSH2 0x1188 JUMP JUMPDEST SWAP1 POP PUSH1 0x20 SWAP4 SWAP5 POP PUSH1 0xFF SWAP3 SWAP2 SWAP3 NOT AND DUP4 DUP4 ADD MSTORE ISZERO ISZERO PUSH1 0x5 SHL ADD ADD SWAP1 JUMP JUMPDEST SWAP1 PUSH1 0x40 PUSH1 0x3 NOT DUP4 ADD SLT PUSH2 0x15 JUMPI PUSH1 0x4 CALLDATALOAD DUP1 ISZERO ISZERO DUP2 SUB PUSH2 0x15 JUMPI SWAP2 PUSH1 0x24 CALLDATALOAD SWAP1 PUSH1 0x1 PUSH1 0x1 PUSH1 0x40 SHL SUB DUP3 GT PUSH2 0x15 JUMPI PUSH2 0x1207 SWAP2 PUSH1 0x4 ADD PUSH2 0xFFB JUMP JUMPDEST SWAP1 JUMP JUMPDEST PUSH1 0x60 SWAP1 PUSH1 0x3 NOT ADD SLT PUSH2 0x15 JUMPI PUSH1 0x4 CALLDATALOAD PUSH1 0x1 PUSH1 0x1 PUSH1 0xA0 SHL SUB DUP2 AND DUP2 SUB PUSH2 0x15 JUMPI SWAP1 PUSH1 0x24 CALLDATALOAD PUSH1 0x1 PUSH1 0x1 PUSH1 0xA0 SHL SUB DUP2 AND DUP2 SUB PUSH2 0x15 JUMPI SWAP1 PUSH1 0x44 CALLDATALOAD SWAP1 JUMP JUMPDEST CALLVALUE PUSH2 0x15 JUMPI PUSH1 0x0 PUSH1 0x40 CALLDATASIZE PUSH1 0x3 NOT ADD SLT PUSH2 0x1283 JUMPI PUSH1 0x4 CALLDATALOAD SWAP1 PUSH1 0x1 PUSH1 0x1 PUSH1 0xA0 SHL SUB DUP3 AND DUP3 SUB PUSH2 0x1283 JUMPI POP POP PUSH1 0x24 CALLDATALOAD PUSH1 0x1 PUSH1 0x1 PUSH1 0xF8 SHL SUB NOT DUP2 AND DUP2 SUB PUSH2 0x15 JUMPI STOP JUMPDEST DUP1 REVERT JUMPDEST PUSH1 0x40 MLOAD SWAP1 PUSH2 0x100 DUP3 ADD DUP3 DUP2 LT PUSH1 0x1 PUSH1 0x1 PUSH1 0x40 SHL SUB DUP3 GT OR PUSH2 0x654 JUMPI PUSH1 0x40 MSTORE PUSH1 0x0 PUSH1 0xE0 DUP4 PUSH1 0x60 DUP2 MSTORE DUP3 PUSH1 0x20 DUP3 ADD MSTORE PUSH1 0x60 PUSH1 0x40 DUP3 ADD MSTORE PUSH1 0x60 DUP1 DUP3 ADD MSTORE DUP3 PUSH1 0x80 DUP3 ADD MSTORE DUP3 PUSH1 0xA0 DUP3 ADD MSTORE DUP3 PUSH1 0xC0 DUP3 ADD MSTORE ADD MSTORE JUMP JUMPDEST PUSH1 0x40 MLOAD SWAP1 PUSH2 0x12E3 DUP3 PUSH2 0xF26 JUMP JUMPDEST PUSH1 0x0 PUSH1 0x40 DUP4 DUP3 DUP2 MSTORE DUP3 PUSH1 0x20 DUP3 ADD MSTORE ADD MSTORE JUMP INVALID 0xB1 0xE 0x2D MSTORE PUSH23 0x12073B26EECDFD717E6A320CF44B4AFAC2B0732D9FCBE2 0xB7 STATICCALL 0xC 0xF6 LOG2 PUSH5 0x6970667358 0x22 SLT KECCAK256 PUSH2 0x23B2 ISZERO 0xE8 0xAC ORIGIN 0xC1 0xE6 SHR GT 0xCD 0xC6 DUP10 LOG4 SWAP7 0xCF 0xC6 SWAP9 0xC4 0xD7 PUSH25 0xEB72F90B95D55E9165FF64736F6C634300081C003300000000 "},"methodIdentifiers":{"acceptAdmin()":"0e18b681","acceptImplementation()":"15ba56e5","acceptUserValidatorProposal()":"b517ac7d","addAmountToUser(address,address,uint256)":"6c9fa638","addBalance(address,address,uint256)":"d3bca884","asyncNonceStatus(address,uint256)":"4b366ccc","batchPay((address,address,string,address,uint256,uint256,address,uint256,bool,bytes)[])":"04af45f3","caPay(address,address,uint256)":"c898a6e9","cancelUserValidatorProposal()":"401dffee","disperseCaPay((uint256,address)[],address,uint256)":"a7a096f6","dispersePay(address,(uint256,address,string)[],address,uint256,uint256,address,uint256,bool,bytes)":"7db6f4a2","evvmID()":"65537e8d","failureReason()":"4f9522a4","getAsyncNonceReservation(address,uint256)":"862b3737","getBalance(address,address)":"d4fac45d","getChainHostCoinAddress()":"8e0c71ad","getCurrentAdmin()":"643d430c","getCurrentImplementation()":"29cca569","getEraPrincipalToken()":"eaa4d6ca","getEvvmID()":"17c85152","getEvvmMetadata()":"0faff8e8","getIfUsedAsyncNonce(address,uint256)":"d0e3692d","getNameServiceAddress()":"3a8cd872","getNextCurrentSyncNonce(address)":"6cd30148","getNextFisherDepositNonce(address)":"4234a706","getPrincipalTokenAddress()":"280e32fb","getPrincipalTokenTotalSupply()":"47ecd0f6","getProposalAdmin()":"91afcf5c","getProposalImplementation()":"4b4a293a","getRewardAmount()":"09a69f57","getStakingContractAddress()":"6afe5795","getTimeToAcceptAdmin()":"73d867f5","getTimeToAcceptImplementation()":"8bf6b935","getUserValidatorAddress()":"b139c797","getUserValidatorAddressDetails()":"65f65057","getWhitelistTokenToBeAdded()":"94e961c9","getWhitelistTokenToBeAddedDateToSet()":"954236dc","initializeSystemContracts(address,address)":"55160ea6","isAddressStaker(address)":"286b4b44","nextSyncNonce(address)":"cc8f3f6d","pay(address,address,string,address,uint256,uint256,address,uint256,bool,bytes)":"aca43908","pointStaker(address,bytes1)":"adb6233f","principalTokenAddress()":"a3aca8d7","proposeAdmin(address)":"147bf6c4","proposeImplementation(address)":"9dd18c15","proposeUserValidator(address)":"e4e3cfee","recalculateReward()":"5300e162","rejectProposalAdmin()":"b38c950a","rejectUpgrade()":"3f54542a","removeAmountFromUser(address,address,uint256)":"76e6eb7e","reserveAsyncNonce(uint256,address)":"8b62e507","revokeAsyncNonce(uint256)":"ef802613","setEvvmID(uint256)":"01ed3f51","setFailNonceValidation(bool,bytes)":"aad88baa","setFailPayment(bool,bytes)":"5815d762","setPointStaker(address,bytes1)":"e8163dda","setPrincipalTokenAddress(address)":"2cb0aa98","shouldFailNonceValidation()":"9ea3ea99","shouldFailPayment()":"853da57e","usedNonces(address,uint256)":"6a8a6894","validateAndConsumeNonce(address,bytes32,address,uint256,bool,bytes)":"76aefe77"}}}}}