{"contracts/zkVVM.sol":{"zkVVM":{"abi":[{"inputs":[{"internalType":"address","name":"_admin","type":"address"},{"internalType":"address","name":"_coreAddress","type":"address"},{"internalType":"address","name":"_stakingAddress","type":"address"},{"internalType":"address","name":"_withdrawVerifierAddress","type":"address"}],"stateMutability":"nonpayable","type":"constructor"},{"inputs":[{"internalType":"bytes","name":"reason","type":"bytes"}],"name":"DepositNonceValidationFailed","type":"error"},{"inputs":[{"internalType":"bytes","name":"reason","type":"bytes"}],"name":"DepositPaymentFailed","type":"error"},{"inputs":[],"name":"InvalidServiceSignature","type":"error"},{"inputs":[{"internalType":"bytes","name":"reason","type":"bytes"}],"name":"WithdrawNonceValidationFailed","type":"error"},{"anonymous":false,"inputs":[{"indexed":false,"internalType":"bytes32","name":"root","type":"bytes32"},{"indexed":false,"internalType":"bool","name":"isRegistered","type":"bool"}],"name":"DebugRootCheck","type":"event"},{"anonymous":false,"inputs":[{"indexed":true,"internalType":"address","name":"user","type":"address"},{"indexed":false,"internalType":"bytes","name":"commitment","type":"bytes"},{"indexed":false,"internalType":"uint256","name":"amount","type":"uint256"}],"name":"Deposited","type":"event"},{"anonymous":false,"inputs":[{"indexed":false,"internalType":"bytes32","name":"root","type":"bytes32"},{"indexed":false,"internalType":"bool","name":"isRegistered","type":"bool"}],"name":"RootChecked","type":"event"},{"anonymous":false,"inputs":[{"indexed":true,"internalType":"bytes32","name":"root","type":"bytes32"}],"name":"RootRegistered","type":"event"},{"anonymous":false,"inputs":[{"indexed":true,"internalType":"address","name":"recipient","type":"address"},{"indexed":true,"internalType":"bytes32","name":"nullifier","type":"bytes32"},{"indexed":false,"internalType":"uint256","name":"amount","type":"uint256"}],"name":"Withdrawn","type":"event"},{"inputs":[],"name":"admin","outputs":[{"internalType":"address","name":"","type":"address"}],"stateMutability":"view","type":"function"},{"inputs":[{"internalType":"bytes","name":"","type":"bytes"}],"name":"commitments","outputs":[{"internalType":"bool","name":"","type":"bool"}],"stateMutability":"view","type":"function"},{"inputs":[],"name":"currentRoot","outputs":[{"internalType":"bytes32","name":"","type":"bytes32"}],"stateMutability":"view","type":"function"},{"inputs":[{"internalType":"address","name":"user","type":"address"},{"internalType":"bytes","name":"commitment","type":"bytes"},{"internalType":"uint256","name":"amount","type":"uint256"},{"internalType":"address","name":"originExecutor","type":"address"},{"internalType":"uint256","name":"nonce","type":"uint256"},{"internalType":"bytes","name":"signature","type":"bytes"},{"internalType":"uint256","name":"priorityFeePay","type":"uint256"},{"internalType":"uint256","name":"noncePay","type":"uint256"},{"internalType":"bytes","name":"signaturePay","type":"bytes"},{"internalType":"bytes32","name":"expectedNextRoot","type":"bytes32"}],"name":"deposit","outputs":[],"stateMutability":"nonpayable","type":"function"},{"inputs":[],"name":"getCurrentRoot","outputs":[{"internalType":"bytes32","name":"","type":"bytes32"}],"stateMutability":"view","type":"function"},{"inputs":[{"internalType":"address","name":"user","type":"address"},{"internalType":"uint256","name":"nonce","type":"uint256"}],"name":"getIfUsedAsyncNonce","outputs":[{"internalType":"bool","name":"","type":"bool"}],"stateMutability":"view","type":"function"},{"inputs":[{"internalType":"address","name":"user","type":"address"}],"name":"getNextCurrentSyncNonce","outputs":[{"internalType":"uint256","name":"","type":"uint256"}],"stateMutability":"view","type":"function"},{"inputs":[{"internalType":"bytes32","name":"","type":"bytes32"}],"name":"merkleRoots","outputs":[{"internalType":"bool","name":"","type":"bool"}],"stateMutability":"view","type":"function"},{"inputs":[{"internalType":"bytes32","name":"","type":"bytes32"}],"name":"nullifiers","outputs":[{"internalType":"bool","name":"","type":"bool"}],"stateMutability":"view","type":"function"},{"inputs":[{"internalType":"bytes32","name":"root","type":"bytes32"}],"name":"registerRoot","outputs":[],"stateMutability":"nonpayable","type":"function"},{"inputs":[{"internalType":"address","name":"user","type":"address"},{"internalType":"address","name":"recipient","type":"address"},{"internalType":"bytes","name":"proof","type":"bytes"},{"internalType":"bytes32","name":"expectedRoot","type":"bytes32"},{"internalType":"bytes32[]","name":"publicInputs","type":"bytes32[]"},{"internalType":"bytes32","name":"ciphertext","type":"bytes32"},{"internalType":"address","name":"originExecutor","type":"address"},{"internalType":"uint256","name":"nonce","type":"uint256"},{"internalType":"bytes","name":"signature","type":"bytes"}],"name":"withdraw","outputs":[],"stateMutability":"nonpayable","type":"function"},{"inputs":[],"name":"withdrawVerifier","outputs":[{"internalType":"contract IVerifier","name":"","type":"address"}],"stateMutability":"view","type":"function"}],"evm":{"bytecode":{"linkReferences":{},"object":"60a0346100d157601f6115d038819003918201601f19168301916001600160401b038311848410176100d6578084926080946040528339810103126100d157610047816100ec565b90610054602082016100ec565b9061006d6060610066604084016100ec565b92016100ec565b600080546001600160a01b03199081166001600160a01b039586161790915560018054821693851693909317909255821660805260068054909116929091169190911790556040516114cf90816101018239608051818181610a3c01526110630152f35b600080fd5b634e487b7160e01b600052604160045260246000fd5b51906001600160a01b03821682036100d15756fe608080604052600436101561001357600080fd5b600090813560e01c9081632997e86b146111a4575080636cd30148146110ea5780637912b8e6146110875780638270482d146100d6578063864eb1641461103657806395d07edb14610f28578063d0e3692d14610e7d578063d54f6c8b14610678578063f5db85f214610128578063f851a440146100f4578063fdab463d146100d65763fe5a5377146100a557600080fd5b346100d35760206003193601126100d35760ff60406020926004358152600384522054166040519015158152f35b80fd5b50346100d357806003193601126100d3576020600554604051908152f35b50346100d357806003193601126100d357602073ffffffffffffffffffffffffffffffffffffffff60065416604051908152f35b50346100d3576101406003193601126100d3576101436111d0565b60243567ffffffffffffffff81116105a557610163903690600401611266565b6044359060643573ffffffffffffffffffffffffffffffffffffffff811681036106745760a43567ffffffffffffffff81116105a1576101a7903690600401611266565b6101043567ffffffffffffffff811161066c576101c8903690600401611266565b9086610124359373ffffffffffffffffffffffffffffffffffffffff825416604051602081019060808252600760a08201527f6465706f7369740000000000000000000000000000000000000000000000000060c082015260c060408201526102528161023860e082018c611346565b8c60608301528a608083015203601f1981018352826111f8565b51902090803b15610670578392838b9361029f604051988996879586947f76aefe77000000000000000000000000000000000000000000000000000000008652608435926004870161136b565b03925af19182610657575b50506102f9576102f56102bb6113b6565b6040519182917fe2bbc03d000000000000000000000000000000000000000000000000000000008352602060048401526024830190611346565b0390fd5b60405160ff845191602081818801946103138183886112ad565b8101600281520301902054166106135784156105a9576020610340916040518093819288519283916112ad565b81016002815203019020600160ff198254161790558573ffffffffffffffffffffffffffffffffffffffff8154166103766113e6565b96813b156105a557829173ffffffffffffffffffffffffffffffffffffffff838193610423604051988996879586947faca43908000000000000000000000000000000000000000000000000000000008652169e8f60048601523060248601526101406044860152856101448601521660648401528c608484015260c43560a48401528360c484015260e43560e48401526001610104840152610160610124840152610164830190611346565b03925af1918261058c575b5050610479576102f561043f6113b6565b6040519182917fbc92d5bc000000000000000000000000000000000000000000000000000000008352602060048401526024830190611346565b806104c6575b506104ba907fa4c217d71f344fdc455ed8c987fd4fb1be6f11a2e05066e27244d08ce9124fd892604051928392604084526040840190611346565b9060208301520390a280f35b90818552600360205260ff604086205416610548577fa4c217d71f344fdc455ed8c987fd4fb1be6f11a2e05066e27244d08ce9124fd892826104ba93600555808752600360205260408720600160ff198254161790557f13b7988e460e02147392c67a86a8e331384a2a1ab002269648d8ac81a5efc0868780a292509061047f565b606460405162461bcd60e51b815260206004820152601a60248201527f7a6b56564d3a20726f6f742d616c72656164792d6578697374730000000000006044820152fd5b81610596916111f8565b6105a157853861042e565b8580fd5b8280fd5b608460405162461bcd60e51b815260206004820152602760248201527f7a6b56564d3a20616d6f756e742d6d7573742d62652d677265617465722d746860448201527f616e2d7a65726f000000000000000000000000000000000000000000000000006064820152fd5b606460405162461bcd60e51b815260206004820152601e60248201527f7a6b56564d3a20636f6d6d69746d656e742d616c72656164792d7573656400006044820152fd5b81610661916111f8565b61066c5786386102aa565b8680fd5b8380fd5b8480fd5b50346100d3576101206003193601126100d3576106936111d0565b60243573ffffffffffffffffffffffffffffffffffffffff81168091036105a5576044359167ffffffffffffffff831161067057366023840112156106705782600401359167ffffffffffffffff8311610674576024840193602484369201011161067457606435936084359367ffffffffffffffff851161066c573660238601121561066c5784600401359167ffffffffffffffff8311610e795760248601913660248560051b89010111610e755760a4359660c43573ffffffffffffffffffffffffffffffffffffffff81168103610e71578a610104359167ffffffffffffffff8311610e6d5787898761082d888f97610793903690600401611266565b976108198d73ffffffffffffffffffffffffffffffffffffffff8a541697610807604051978896602088019a60a08c52600860c08a01527f776974686472617700000000000000000000000000000000000000000000000060e08a0152604089015260e060608901526101008801916112e8565b91601f19868403016080870152611309565b9060a083015203601f1981018352826111f8565b51902091813b1561067057838c93610878604051978896879586947f76aefe7700000000000000000000000000000000000000000000000000000000865260e435926004870161136b565b03925af19081610e59575b506108cd576102f56108936113b6565b6040519182917f71d49912000000000000000000000000000000000000000000000000000000008352602060048401526024830190611346565b60058503610e15578460021015610da45760648101358903610dd1578415610da4578335988560011015610d77578560031015610d77576044608483013592013515610d33578a52600360205260ff60408b20541615610cef57888a52600460205260ff60408b205416610cab578573ffffffffffffffffffffffffffffffffffffffff821603610c675760405160208101918a835260408201527f76328d31273a9e776d3dbfcc94e0245f6b4cf54eed9ee2adcb530d421c285b2760608201526060815261099d6080826111f8565b519020604051602081019182528a6040820152604081526109bf6060826111f8565b5190208088189714610bfd57610a23602093610a119560405196879586957fea50d0e40000000000000000000000000000000000000000000000000000000087526040600488015260448701916112e8565b91600319858403016024860152611309565b038173ffffffffffffffffffffffffffffffffffffffff7f0000000000000000000000000000000000000000000000000000000000000000165afa908115610bf2578691610bc3575b5015610b7f578490848252600460205260408220600160ff19825416179055610a936113e6565b9073ffffffffffffffffffffffffffffffffffffffff83541691823b1561067057606484928373ffffffffffffffffffffffffffffffffffffffff9560405196879586947fc898a6e900000000000000000000000000000000000000000000000000000000865260048601521660248401528960448401525af18015610b7457610b5f575b5050602073ffffffffffffffffffffffffffffffffffffffff7f1353fec506e912e37c0fbf3dddb0aa594d9b70ae58b1cc56ee735f589c351b68926040519485521692a380f35b81610b69916111f8565b610670578338610b18565b6040513d84823e3d90fd5b606460405162461bcd60e51b815260206004820152600d60248201527f696e76616c69642070726f6f66000000000000000000000000000000000000006044820152fd5b610be5915060203d602011610beb575b610bdd81836111f8565b8101906112d0565b38610a6c565b503d610bd3565b6040513d88823e3d90fd5b608460405162461bcd60e51b815260206004820152603060248201527f7a6b56564d3a2077697468647261772d616d6f756e742d6d7573742d62652d6760448201527f7265617465722d7468616e2d7a65726f000000000000000000000000000000006064820152fd5b606460405162461bcd60e51b815260206004820152601960248201527f7a6b56564d3a20726563697069656e742d6d69736d61746368000000000000006044820152fd5b606460405162461bcd60e51b815260206004820152601560248201527f7a6b56564d3a206e756c6c69666965722d7573656400000000000000000000006044820152fd5b606460405162461bcd60e51b815260206004820152601360248201527f7a6b56564d3a20756e6b6e6f776e2d726f6f74000000000000000000000000006044820152fd5b606460405162461bcd60e51b815260206004820152601b60248201527f7a6b56564d3a20696e76616c69642d6d65726b6c652d646570746800000000006044820152fd5b60248b7f4e487b710000000000000000000000000000000000000000000000000000000081526032600452fd5b60248a7f4e487b710000000000000000000000000000000000000000000000000000000081526032600452fd5b606460405162461bcd60e51b815260206004820152601460248201527f7a6b56564d3a20726f6f742d6d69736d617463680000000000000000000000006044820152fd5b606460405162461bcd60e51b815260206004820152601c60248201527f7a6b56564d3a20696e76616c69642d7075626c69632d696e70757473000000006044820152fd5b8b610e66919c929c6111f8565b9938610883565b5080fd5b8a80fd5b8880fd5b8780fd5b50346100d35760406003193601126100d357610e976111d0565b602073ffffffffffffffffffffffffffffffffffffffff6044818554169360405194859384927fd0e3692d00000000000000000000000000000000000000000000000000000000845216600483015260243560248301525afa908115610b745760209291610f0b575b506040519015158152f35b610f229150823d8411610beb57610bdd81836111f8565b38610f00565b50346100d35760206003193601126100d357600435808252600360205260ff604083205416610ff25773ffffffffffffffffffffffffffffffffffffffff600654163303610fae57808252600360205260408220600160ff198254161790557f13b7988e460e02147392c67a86a8e331384a2a1ab002269648d8ac81a5efc0868280a280f35b606460405162461bcd60e51b815260206004820152601f60248201527f4f6e6c792061646d696e2063616e2063616c6c2074686973206d6574686f64006044820152fd5b606460405162461bcd60e51b815260206004820152601260248201527f526f6f7420616c7265616479206b6e6f776e00000000000000000000000000006044820152fd5b50346100d357806003193601126100d357602060405173ffffffffffffffffffffffffffffffffffffffff7f0000000000000000000000000000000000000000000000000000000000000000168152f35b50346100d35760206003193601126100d3576004359067ffffffffffffffff82116100d357602060ff6110d4826110c13660048801611266565b81604051938285809451938492016112ad565b8101600281520301902054166040519015158152f35b50346100d35760206003193601126100d3576111046111d0565b602073ffffffffffffffffffffffffffffffffffffffff6024818554169360405194859384927f6cd301480000000000000000000000000000000000000000000000000000000084521660048301525afa908115610b7457829161116e575b602082604051908152f35b90506020813d60201161119c575b81611189602093836111f8565b81010312610e6d57602091505138611163565b3d915061117c565b905034610e6d576020600319360112610e6d5760ff604060209360043581526004855220541615158152f35b6004359073ffffffffffffffffffffffffffffffffffffffff821682036111f357565b600080fd5b90601f601f19910116810190811067ffffffffffffffff82111761121b57604052565b7f4e487b7100000000000000000000000000000000000000000000000000000000600052604160045260246000fd5b67ffffffffffffffff811161121b57601f01601f191660200190565b81601f820112156111f35780359061127d8261124a565b9261128b60405194856111f8565b828452602083830101116111f357816000926020809301838601378301015290565b60005b8381106112c05750506000910152565b81810151838201526020016112b0565b908160209103126111f3575180151581036111f35790565b601f8260209493601f19938186528686013760008582860101520116010190565b90918281527f07ffffffffffffffffffffffffffffffffffffffffffffffffffffffffffffff83116111f35760209260051b809284830137010190565b90601f19601f602093611364815180928187528780880191016112ad565b0116010190565b9160c09373ffffffffffffffffffffffffffffffffffffffff91826113b398979416855260208501521660408301526060820152600160808201528160a08201520190611346565b90565b3d156113e1573d906113c78261124a565b916113d560405193846111f8565b82523d6000602084013e565b606090565b6004602073ffffffffffffffffffffffffffffffffffffffff60005416604051928380927f280e32fb0000000000000000000000000000000000000000000000000000000082525afa90811561148d57600091611441575090565b6020813d602011611485575b8161145a602093836111f8565b81010312610e6d57519073ffffffffffffffffffffffffffffffffffffffff821682036100d3575090565b3d915061144d565b6040513d6000823e3d90fdfea2646970667358221220dbfe83c01f6116ebe00f72a76824d4d0964366c5680920c4da2e7aef0f3a9f8864736f6c634300081c0033","opcodes":"PUSH1 0xA0 CALLVALUE PUSH2 0xD1 JUMPI PUSH1 0x1F PUSH2 0x15D0 CODESIZE DUP2 SWAP1 SUB SWAP2 DUP3 ADD PUSH1 0x1F NOT AND DUP4 ADD SWAP2 PUSH1 0x1 PUSH1 0x1 PUSH1 0x40 SHL SUB DUP4 GT DUP5 DUP5 LT OR PUSH2 0xD6 JUMPI DUP1 DUP5 SWAP3 PUSH1 0x80 SWAP5 PUSH1 0x40 MSTORE DUP4 CODECOPY DUP2 ADD SUB SLT PUSH2 0xD1 JUMPI PUSH2 0x47 DUP2 PUSH2 0xEC JUMP JUMPDEST SWAP1 PUSH2 0x54 PUSH1 0x20 DUP3 ADD PUSH2 0xEC JUMP JUMPDEST SWAP1 PUSH2 0x6D PUSH1 0x60 PUSH2 0x66 PUSH1 0x40 DUP5 ADD PUSH2 0xEC JUMP JUMPDEST SWAP3 ADD PUSH2 0xEC JUMP JUMPDEST PUSH1 0x0 DUP1 SLOAD PUSH1 0x1 PUSH1 0x1 PUSH1 0xA0 SHL SUB NOT SWAP1 DUP2 AND PUSH1 0x1 PUSH1 0x1 PUSH1 0xA0 SHL SUB SWAP6 DUP7 AND OR SWAP1 SWAP2 SSTORE PUSH1 0x1 DUP1 SLOAD DUP3 AND SWAP4 DUP6 AND SWAP4 SWAP1 SWAP4 OR SWAP1 SWAP3 SSTORE DUP3 AND PUSH1 0x80 MSTORE PUSH1 0x6 DUP1 SLOAD SWAP1 SWAP2 AND SWAP3 SWAP1 SWAP2 AND SWAP2 SWAP1 SWAP2 OR SWAP1 SSTORE PUSH1 0x40 MLOAD PUSH2 0x14CF SWAP1 DUP2 PUSH2 0x101 DUP3 CODECOPY PUSH1 0x80 MLOAD DUP2 DUP2 DUP2 PUSH2 0xA3C ADD MSTORE PUSH2 0x1063 ADD MSTORE RETURN JUMPDEST PUSH1 0x0 DUP1 REVERT JUMPDEST PUSH4 0x4E487B71 PUSH1 0xE0 SHL PUSH1 0x0 MSTORE PUSH1 0x41 PUSH1 0x4 MSTORE PUSH1 0x24 PUSH1 0x0 REVERT JUMPDEST MLOAD SWAP1 PUSH1 0x1 PUSH1 0x1 PUSH1 0xA0 SHL SUB DUP3 AND DUP3 SUB PUSH2 0xD1 JUMPI JUMP INVALID PUSH1 0x80 DUP1 PUSH1 0x40 MSTORE PUSH1 0x4 CALLDATASIZE LT ISZERO PUSH2 0x13 JUMPI PUSH1 0x0 DUP1 REVERT JUMPDEST PUSH1 0x0 SWAP1 DUP2 CALLDATALOAD PUSH1 0xE0 SHR SWAP1 DUP2 PUSH4 0x2997E86B EQ PUSH2 0x11A4 JUMPI POP DUP1 PUSH4 0x6CD30148 EQ PUSH2 0x10EA JUMPI DUP1 PUSH4 0x7912B8E6 EQ PUSH2 0x1087 JUMPI DUP1 PUSH4 0x8270482D EQ PUSH2 0xD6 JUMPI DUP1 PUSH4 0x864EB164 EQ PUSH2 0x1036 JUMPI DUP1 PUSH4 0x95D07EDB EQ PUSH2 0xF28 JUMPI DUP1 PUSH4 0xD0E3692D EQ PUSH2 0xE7D JUMPI DUP1 PUSH4 0xD54F6C8B EQ PUSH2 0x678 JUMPI DUP1 PUSH4 0xF5DB85F2 EQ PUSH2 0x128 JUMPI DUP1 PUSH4 0xF851A440 EQ PUSH2 0xF4 JUMPI DUP1 PUSH4 0xFDAB463D EQ PUSH2 0xD6 JUMPI PUSH4 0xFE5A5377 EQ PUSH2 0xA5 JUMPI PUSH1 0x0 DUP1 REVERT JUMPDEST CALLVALUE PUSH2 0xD3 JUMPI PUSH1 0x20 PUSH1 0x3 NOT CALLDATASIZE ADD SLT PUSH2 0xD3 JUMPI PUSH1 0xFF PUSH1 0x40 PUSH1 0x20 SWAP3 PUSH1 0x4 CALLDATALOAD DUP2 MSTORE PUSH1 0x3 DUP5 MSTORE KECCAK256 SLOAD AND PUSH1 0x40 MLOAD SWAP1 ISZERO ISZERO DUP2 MSTORE RETURN JUMPDEST DUP1 REVERT JUMPDEST POP CALLVALUE PUSH2 0xD3 JUMPI DUP1 PUSH1 0x3 NOT CALLDATASIZE ADD SLT PUSH2 0xD3 JUMPI PUSH1 0x20 PUSH1 0x5 SLOAD PUSH1 0x40 MLOAD SWAP1 DUP2 MSTORE RETURN JUMPDEST POP CALLVALUE PUSH2 0xD3 JUMPI DUP1 PUSH1 0x3 NOT CALLDATASIZE ADD SLT PUSH2 0xD3 JUMPI PUSH1 0x20 PUSH20 0xFFFFFFFFFFFFFFFFFFFFFFFFFFFFFFFFFFFFFFFF PUSH1 0x6 SLOAD AND PUSH1 0x40 MLOAD SWAP1 DUP2 MSTORE RETURN JUMPDEST POP CALLVALUE PUSH2 0xD3 JUMPI PUSH2 0x140 PUSH1 0x3 NOT CALLDATASIZE ADD SLT PUSH2 0xD3 JUMPI PUSH2 0x143 PUSH2 0x11D0 JUMP JUMPDEST PUSH1 0x24 CALLDATALOAD PUSH8 0xFFFFFFFFFFFFFFFF DUP2 GT PUSH2 0x5A5 JUMPI PUSH2 0x163 SWAP1 CALLDATASIZE SWAP1 PUSH1 0x4 ADD PUSH2 0x1266 JUMP JUMPDEST PUSH1 0x44 CALLDATALOAD SWAP1 PUSH1 0x64 CALLDATALOAD PUSH20 0xFFFFFFFFFFFFFFFFFFFFFFFFFFFFFFFFFFFFFFFF DUP2 AND DUP2 SUB PUSH2 0x674 JUMPI PUSH1 0xA4 CALLDATALOAD PUSH8 0xFFFFFFFFFFFFFFFF DUP2 GT PUSH2 0x5A1 JUMPI PUSH2 0x1A7 SWAP1 CALLDATASIZE SWAP1 PUSH1 0x4 ADD PUSH2 0x1266 JUMP JUMPDEST PUSH2 0x104 CALLDATALOAD PUSH8 0xFFFFFFFFFFFFFFFF DUP2 GT PUSH2 0x66C JUMPI PUSH2 0x1C8 SWAP1 CALLDATASIZE SWAP1 PUSH1 0x4 ADD PUSH2 0x1266 JUMP JUMPDEST SWAP1 DUP7 PUSH2 0x124 CALLDATALOAD SWAP4 PUSH20 0xFFFFFFFFFFFFFFFFFFFFFFFFFFFFFFFFFFFFFFFF DUP3 SLOAD AND PUSH1 0x40 MLOAD PUSH1 0x20 DUP2 ADD SWAP1 PUSH1 0x80 DUP3 MSTORE PUSH1 0x7 PUSH1 0xA0 DUP3 ADD MSTORE PUSH32 0x6465706F73697400000000000000000000000000000000000000000000000000 PUSH1 0xC0 DUP3 ADD MSTORE PUSH1 0xC0 PUSH1 0x40 DUP3 ADD MSTORE PUSH2 0x252 DUP2 PUSH2 0x238 PUSH1 0xE0 DUP3 ADD DUP13 PUSH2 0x1346 JUMP JUMPDEST DUP13 PUSH1 0x60 DUP4 ADD MSTORE DUP11 PUSH1 0x80 DUP4 ADD MSTORE SUB PUSH1 0x1F NOT DUP2 ADD DUP4 MSTORE DUP3 PUSH2 0x11F8 JUMP JUMPDEST MLOAD SWAP1 KECCAK256 SWAP1 DUP1 EXTCODESIZE ISZERO PUSH2 0x670 JUMPI DUP4 SWAP3 DUP4 DUP12 SWAP4 PUSH2 0x29F PUSH1 0x40 MLOAD SWAP9 DUP10 SWAP7 DUP8 SWAP6 DUP7 SWAP5 PUSH32 0x76AEFE7700000000000000000000000000000000000000000000000000000000 DUP7 MSTORE PUSH1 0x84 CALLDATALOAD SWAP3 PUSH1 0x4 DUP8 ADD PUSH2 0x136B JUMP JUMPDEST SUB SWAP3 GAS CALL SWAP2 DUP3 PUSH2 0x657 JUMPI JUMPDEST POP POP PUSH2 0x2F9 JUMPI PUSH2 0x2F5 PUSH2 0x2BB PUSH2 0x13B6 JUMP JUMPDEST PUSH1 0x40 MLOAD SWAP2 DUP3 SWAP2 PUSH32 0xE2BBC03D00000000000000000000000000000000000000000000000000000000 DUP4 MSTORE PUSH1 0x20 PUSH1 0x4 DUP5 ADD MSTORE PUSH1 0x24 DUP4 ADD SWAP1 PUSH2 0x1346 JUMP JUMPDEST SUB SWAP1 REVERT JUMPDEST PUSH1 0x40 MLOAD PUSH1 0xFF DUP5 MLOAD SWAP2 PUSH1 0x20 DUP2 DUP2 DUP9 ADD SWAP5 PUSH2 0x313 DUP2 DUP4 DUP9 PUSH2 0x12AD JUMP JUMPDEST DUP2 ADD PUSH1 0x2 DUP2 MSTORE SUB ADD SWAP1 KECCAK256 SLOAD AND PUSH2 0x613 JUMPI DUP5 ISZERO PUSH2 0x5A9 JUMPI PUSH1 0x20 PUSH2 0x340 SWAP2 PUSH1 0x40 MLOAD DUP1 SWAP4 DUP2 SWAP3 DUP9 MLOAD SWAP3 DUP4 SWAP2 PUSH2 0x12AD JUMP JUMPDEST DUP2 ADD PUSH1 0x2 DUP2 MSTORE SUB ADD SWAP1 KECCAK256 PUSH1 0x1 PUSH1 0xFF NOT DUP3 SLOAD AND OR SWAP1 SSTORE DUP6 PUSH20 0xFFFFFFFFFFFFFFFFFFFFFFFFFFFFFFFFFFFFFFFF DUP2 SLOAD AND PUSH2 0x376 PUSH2 0x13E6 JUMP JUMPDEST SWAP7 DUP2 EXTCODESIZE ISZERO PUSH2 0x5A5 JUMPI DUP3 SWAP2 PUSH20 0xFFFFFFFFFFFFFFFFFFFFFFFFFFFFFFFFFFFFFFFF DUP4 DUP2 SWAP4 PUSH2 0x423 PUSH1 0x40 MLOAD SWAP9 DUP10 SWAP7 DUP8 SWAP6 DUP7 SWAP5 PUSH32 0xACA4390800000000000000000000000000000000000000000000000000000000 DUP7 MSTORE AND SWAP15 DUP16 PUSH1 0x4 DUP7 ADD MSTORE ADDRESS PUSH1 0x24 DUP7 ADD MSTORE PUSH2 0x140 PUSH1 0x44 DUP7 ADD MSTORE DUP6 PUSH2 0x144 DUP7 ADD MSTORE AND PUSH1 0x64 DUP5 ADD MSTORE DUP13 PUSH1 0x84 DUP5 ADD MSTORE PUSH1 0xC4 CALLDATALOAD PUSH1 0xA4 DUP5 ADD MSTORE DUP4 PUSH1 0xC4 DUP5 ADD MSTORE PUSH1 0xE4 CALLDATALOAD PUSH1 0xE4 DUP5 ADD MSTORE PUSH1 0x1 PUSH2 0x104 DUP5 ADD MSTORE PUSH2 0x160 PUSH2 0x124 DUP5 ADD MSTORE PUSH2 0x164 DUP4 ADD SWAP1 PUSH2 0x1346 JUMP JUMPDEST SUB SWAP3 GAS CALL SWAP2 DUP3 PUSH2 0x58C JUMPI JUMPDEST POP POP PUSH2 0x479 JUMPI PUSH2 0x2F5 PUSH2 0x43F PUSH2 0x13B6 JUMP JUMPDEST PUSH1 0x40 MLOAD SWAP2 DUP3 SWAP2 PUSH32 0xBC92D5BC00000000000000000000000000000000000000000000000000000000 DUP4 MSTORE PUSH1 0x20 PUSH1 0x4 DUP5 ADD MSTORE PUSH1 0x24 DUP4 ADD SWAP1 PUSH2 0x1346 JUMP JUMPDEST DUP1 PUSH2 0x4C6 JUMPI JUMPDEST POP PUSH2 0x4BA SWAP1 PUSH32 0xA4C217D71F344FDC455ED8C987FD4FB1BE6F11A2E05066E27244D08CE9124FD8 SWAP3 PUSH1 0x40 MLOAD SWAP3 DUP4 SWAP3 PUSH1 0x40 DUP5 MSTORE PUSH1 0x40 DUP5 ADD SWAP1 PUSH2 0x1346 JUMP JUMPDEST SWAP1 PUSH1 0x20 DUP4 ADD MSTORE SUB SWAP1 LOG2 DUP1 RETURN JUMPDEST SWAP1 DUP2 DUP6 MSTORE PUSH1 0x3 PUSH1 0x20 MSTORE PUSH1 0xFF PUSH1 0x40 DUP7 KECCAK256 SLOAD AND PUSH2 0x548 JUMPI PUSH32 0xA4C217D71F344FDC455ED8C987FD4FB1BE6F11A2E05066E27244D08CE9124FD8 SWAP3 DUP3 PUSH2 0x4BA SWAP4 PUSH1 0x5 SSTORE DUP1 DUP8 MSTORE PUSH1 0x3 PUSH1 0x20 MSTORE PUSH1 0x40 DUP8 KECCAK256 PUSH1 0x1 PUSH1 0xFF NOT DUP3 SLOAD AND OR SWAP1 SSTORE PUSH32 0x13B7988E460E02147392C67A86A8E331384A2A1AB002269648D8AC81A5EFC086 DUP8 DUP1 LOG2 SWAP3 POP SWAP1 PUSH2 0x47F JUMP JUMPDEST PUSH1 0x64 PUSH1 0x40 MLOAD PUSH3 0x461BCD PUSH1 0xE5 SHL DUP2 MSTORE PUSH1 0x20 PUSH1 0x4 DUP3 ADD MSTORE PUSH1 0x1A PUSH1 0x24 DUP3 ADD MSTORE PUSH32 0x7A6B56564D3A20726F6F742D616C72656164792D657869737473000000000000 PUSH1 0x44 DUP3 ADD MSTORE REVERT JUMPDEST DUP2 PUSH2 0x596 SWAP2 PUSH2 0x11F8 JUMP JUMPDEST PUSH2 0x5A1 JUMPI DUP6 CODESIZE PUSH2 0x42E JUMP JUMPDEST DUP6 DUP1 REVERT JUMPDEST DUP3 DUP1 REVERT JUMPDEST PUSH1 0x84 PUSH1 0x40 MLOAD PUSH3 0x461BCD PUSH1 0xE5 SHL DUP2 MSTORE PUSH1 0x20 PUSH1 0x4 DUP3 ADD MSTORE PUSH1 0x27 PUSH1 0x24 DUP3 ADD MSTORE PUSH32 0x7A6B56564D3A20616D6F756E742D6D7573742D62652D677265617465722D7468 PUSH1 0x44 DUP3 ADD MSTORE PUSH32 0x616E2D7A65726F00000000000000000000000000000000000000000000000000 PUSH1 0x64 DUP3 ADD MSTORE REVERT JUMPDEST PUSH1 0x64 PUSH1 0x40 MLOAD PUSH3 0x461BCD PUSH1 0xE5 SHL DUP2 MSTORE PUSH1 0x20 PUSH1 0x4 DUP3 ADD MSTORE PUSH1 0x1E PUSH1 0x24 DUP3 ADD MSTORE PUSH32 0x7A6B56564D3A20636F6D6D69746D656E742D616C72656164792D757365640000 PUSH1 0x44 DUP3 ADD MSTORE REVERT JUMPDEST DUP2 PUSH2 0x661 SWAP2 PUSH2 0x11F8 JUMP JUMPDEST PUSH2 0x66C JUMPI DUP7 CODESIZE PUSH2 0x2AA JUMP JUMPDEST DUP7 DUP1 REVERT JUMPDEST DUP4 DUP1 REVERT JUMPDEST DUP5 DUP1 REVERT JUMPDEST POP CALLVALUE PUSH2 0xD3 JUMPI PUSH2 0x120 PUSH1 0x3 NOT CALLDATASIZE ADD SLT PUSH2 0xD3 JUMPI PUSH2 0x693 PUSH2 0x11D0 JUMP JUMPDEST PUSH1 0x24 CALLDATALOAD PUSH20 0xFFFFFFFFFFFFFFFFFFFFFFFFFFFFFFFFFFFFFFFF DUP2 AND DUP1 SWAP2 SUB PUSH2 0x5A5 JUMPI PUSH1 0x44 CALLDATALOAD SWAP2 PUSH8 0xFFFFFFFFFFFFFFFF DUP4 GT PUSH2 0x670 JUMPI CALLDATASIZE PUSH1 0x23 DUP5 ADD SLT ISZERO PUSH2 0x670 JUMPI DUP3 PUSH1 0x4 ADD CALLDATALOAD SWAP2 PUSH8 0xFFFFFFFFFFFFFFFF DUP4 GT PUSH2 0x674 JUMPI PUSH1 0x24 DUP5 ADD SWAP4 PUSH1 0x24 DUP5 CALLDATASIZE SWAP3 ADD ADD GT PUSH2 0x674 JUMPI PUSH1 0x64 CALLDATALOAD SWAP4 PUSH1 0x84 CALLDATALOAD SWAP4 PUSH8 0xFFFFFFFFFFFFFFFF DUP6 GT PUSH2 0x66C JUMPI CALLDATASIZE PUSH1 0x23 DUP7 ADD SLT ISZERO PUSH2 0x66C JUMPI DUP5 PUSH1 0x4 ADD CALLDATALOAD SWAP2 PUSH8 0xFFFFFFFFFFFFFFFF DUP4 GT PUSH2 0xE79 JUMPI PUSH1 0x24 DUP7 ADD SWAP2 CALLDATASIZE PUSH1 0x24 DUP6 PUSH1 0x5 SHL DUP10 ADD ADD GT PUSH2 0xE75 JUMPI PUSH1 0xA4 CALLDATALOAD SWAP7 PUSH1 0xC4 CALLDATALOAD PUSH20 0xFFFFFFFFFFFFFFFFFFFFFFFFFFFFFFFFFFFFFFFF DUP2 AND DUP2 SUB PUSH2 0xE71 JUMPI DUP11 PUSH2 0x104 CALLDATALOAD SWAP2 PUSH8 0xFFFFFFFFFFFFFFFF DUP4 GT PUSH2 0xE6D JUMPI DUP8 DUP10 DUP8 PUSH2 0x82D DUP9 DUP16 SWAP8 PUSH2 0x793 SWAP1 CALLDATASIZE SWAP1 PUSH1 0x4 ADD PUSH2 0x1266 JUMP JUMPDEST SWAP8 PUSH2 0x819 DUP14 PUSH20 0xFFFFFFFFFFFFFFFFFFFFFFFFFFFFFFFFFFFFFFFF DUP11 SLOAD AND SWAP8 PUSH2 0x807 PUSH1 0x40 MLOAD SWAP8 DUP9 SWAP7 PUSH1 0x20 DUP9 ADD SWAP11 PUSH1 0xA0 DUP13 MSTORE PUSH1 0x8 PUSH1 0xC0 DUP11 ADD MSTORE PUSH32 0x7769746864726177000000000000000000000000000000000000000000000000 PUSH1 0xE0 DUP11 ADD MSTORE PUSH1 0x40 DUP10 ADD MSTORE PUSH1 0xE0 PUSH1 0x60 DUP10 ADD MSTORE PUSH2 0x100 DUP9 ADD SWAP2 PUSH2 0x12E8 JUMP JUMPDEST SWAP2 PUSH1 0x1F NOT DUP7 DUP5 SUB ADD PUSH1 0x80 DUP8 ADD MSTORE PUSH2 0x1309 JUMP JUMPDEST SWAP1 PUSH1 0xA0 DUP4 ADD MSTORE SUB PUSH1 0x1F NOT DUP2 ADD DUP4 MSTORE DUP3 PUSH2 0x11F8 JUMP JUMPDEST MLOAD SWAP1 KECCAK256 SWAP2 DUP2 EXTCODESIZE ISZERO PUSH2 0x670 JUMPI DUP4 DUP13 SWAP4 PUSH2 0x878 PUSH1 0x40 MLOAD SWAP8 DUP9 SWAP7 DUP8 SWAP6 DUP7 SWAP5 PUSH32 0x76AEFE7700000000000000000000000000000000000000000000000000000000 DUP7 MSTORE PUSH1 0xE4 CALLDATALOAD SWAP3 PUSH1 0x4 DUP8 ADD PUSH2 0x136B JUMP JUMPDEST SUB SWAP3 GAS CALL SWAP1 DUP2 PUSH2 0xE59 JUMPI JUMPDEST POP PUSH2 0x8CD JUMPI PUSH2 0x2F5 PUSH2 0x893 PUSH2 0x13B6 JUMP JUMPDEST PUSH1 0x40 MLOAD SWAP2 DUP3 SWAP2 PUSH32 0x71D4991200000000000000000000000000000000000000000000000000000000 DUP4 MSTORE PUSH1 0x20 PUSH1 0x4 DUP5 ADD MSTORE PUSH1 0x24 DUP4 ADD SWAP1 PUSH2 0x1346 JUMP JUMPDEST PUSH1 0x5 DUP6 SUB PUSH2 0xE15 JUMPI DUP5 PUSH1 0x2 LT ISZERO PUSH2 0xDA4 JUMPI PUSH1 0x64 DUP2 ADD CALLDATALOAD DUP10 SUB PUSH2 0xDD1 JUMPI DUP5 ISZERO PUSH2 0xDA4 JUMPI DUP4 CALLDATALOAD SWAP9 DUP6 PUSH1 0x1 LT ISZERO PUSH2 0xD77 JUMPI DUP6 PUSH1 0x3 LT ISZERO PUSH2 0xD77 JUMPI PUSH1 0x44 PUSH1 0x84 DUP4 ADD CALLDATALOAD SWAP3 ADD CALLDATALOAD ISZERO PUSH2 0xD33 JUMPI DUP11 MSTORE PUSH1 0x3 PUSH1 0x20 MSTORE PUSH1 0xFF PUSH1 0x40 DUP12 KECCAK256 SLOAD AND ISZERO PUSH2 0xCEF JUMPI DUP9 DUP11 MSTORE PUSH1 0x4 PUSH1 0x20 MSTORE PUSH1 0xFF PUSH1 0x40 DUP12 KECCAK256 SLOAD AND PUSH2 0xCAB JUMPI DUP6 PUSH20 0xFFFFFFFFFFFFFFFFFFFFFFFFFFFFFFFFFFFFFFFF DUP3 AND SUB PUSH2 0xC67 JUMPI PUSH1 0x40 MLOAD PUSH1 0x20 DUP2 ADD SWAP2 DUP11 DUP4 MSTORE PUSH1 0x40 DUP3 ADD MSTORE PUSH32 0x76328D31273A9E776D3DBFCC94E0245F6B4CF54EED9EE2ADCB530D421C285B27 PUSH1 0x60 DUP3 ADD MSTORE PUSH1 0x60 DUP2 MSTORE PUSH2 0x99D PUSH1 0x80 DUP3 PUSH2 0x11F8 JUMP JUMPDEST MLOAD SWAP1 KECCAK256 PUSH1 0x40 MLOAD PUSH1 0x20 DUP2 ADD SWAP2 DUP3 MSTORE DUP11 PUSH1 0x40 DUP3 ADD MSTORE PUSH1 0x40 DUP2 MSTORE PUSH2 0x9BF PUSH1 0x60 DUP3 PUSH2 0x11F8 JUMP JUMPDEST MLOAD SWAP1 KECCAK256 DUP1 DUP9 XOR SWAP8 EQ PUSH2 0xBFD JUMPI PUSH2 0xA23 PUSH1 0x20 SWAP4 PUSH2 0xA11 SWAP6 PUSH1 0x40 MLOAD SWAP7 DUP8 SWAP6 DUP7 SWAP6 PUSH32 0xEA50D0E400000000000000000000000000000000000000000000000000000000 DUP8 MSTORE PUSH1 0x40 PUSH1 0x4 DUP9 ADD MSTORE PUSH1 0x44 DUP8 ADD SWAP2 PUSH2 0x12E8 JUMP JUMPDEST SWAP2 PUSH1 0x3 NOT DUP6 DUP5 SUB ADD PUSH1 0x24 DUP7 ADD MSTORE PUSH2 0x1309 JUMP JUMPDEST SUB DUP2 PUSH20 0xFFFFFFFFFFFFFFFFFFFFFFFFFFFFFFFFFFFFFFFF PUSH32 0x0 AND GAS STATICCALL SWAP1 DUP2 ISZERO PUSH2 0xBF2 JUMPI DUP7 SWAP2 PUSH2 0xBC3 JUMPI JUMPDEST POP ISZERO PUSH2 0xB7F JUMPI DUP5 SWAP1 DUP5 DUP3 MSTORE PUSH1 0x4 PUSH1 0x20 MSTORE PUSH1 0x40 DUP3 KECCAK256 PUSH1 0x1 PUSH1 0xFF NOT DUP3 SLOAD AND OR SWAP1 SSTORE PUSH2 0xA93 PUSH2 0x13E6 JUMP JUMPDEST SWAP1 PUSH20 0xFFFFFFFFFFFFFFFFFFFFFFFFFFFFFFFFFFFFFFFF DUP4 SLOAD AND SWAP2 DUP3 EXTCODESIZE ISZERO PUSH2 0x670 JUMPI PUSH1 0x64 DUP5 SWAP3 DUP4 PUSH20 0xFFFFFFFFFFFFFFFFFFFFFFFFFFFFFFFFFFFFFFFF SWAP6 PUSH1 0x40 MLOAD SWAP7 DUP8 SWAP6 DUP7 SWAP5 PUSH32 0xC898A6E900000000000000000000000000000000000000000000000000000000 DUP7 MSTORE PUSH1 0x4 DUP7 ADD MSTORE AND PUSH1 0x24 DUP5 ADD MSTORE DUP10 PUSH1 0x44 DUP5 ADD MSTORE GAS CALL DUP1 ISZERO PUSH2 0xB74 JUMPI PUSH2 0xB5F JUMPI JUMPDEST POP POP PUSH1 0x20 PUSH20 0xFFFFFFFFFFFFFFFFFFFFFFFFFFFFFFFFFFFFFFFF PUSH32 0x1353FEC506E912E37C0FBF3DDDB0AA594D9B70AE58B1CC56EE735F589C351B68 SWAP3 PUSH1 0x40 MLOAD SWAP5 DUP6 MSTORE AND SWAP3 LOG3 DUP1 RETURN JUMPDEST DUP2 PUSH2 0xB69 SWAP2 PUSH2 0x11F8 JUMP JUMPDEST PUSH2 0x670 JUMPI DUP4 CODESIZE PUSH2 0xB18 JUMP JUMPDEST PUSH1 0x40 MLOAD RETURNDATASIZE DUP5 DUP3 RETURNDATACOPY RETURNDATASIZE SWAP1 REVERT JUMPDEST PUSH1 0x64 PUSH1 0x40 MLOAD PUSH3 0x461BCD PUSH1 0xE5 SHL DUP2 MSTORE PUSH1 0x20 PUSH1 0x4 DUP3 ADD MSTORE PUSH1 0xD PUSH1 0x24 DUP3 ADD MSTORE PUSH32 0x696E76616C69642070726F6F6600000000000000000000000000000000000000 PUSH1 0x44 DUP3 ADD MSTORE REVERT JUMPDEST PUSH2 0xBE5 SWAP2 POP PUSH1 0x20 RETURNDATASIZE PUSH1 0x20 GT PUSH2 0xBEB JUMPI JUMPDEST PUSH2 0xBDD DUP2 DUP4 PUSH2 0x11F8 JUMP JUMPDEST DUP2 ADD SWAP1 PUSH2 0x12D0 JUMP JUMPDEST CODESIZE PUSH2 0xA6C JUMP JUMPDEST POP RETURNDATASIZE PUSH2 0xBD3 JUMP JUMPDEST PUSH1 0x40 MLOAD RETURNDATASIZE DUP9 DUP3 RETURNDATACOPY RETURNDATASIZE SWAP1 REVERT JUMPDEST PUSH1 0x84 PUSH1 0x40 MLOAD PUSH3 0x461BCD PUSH1 0xE5 SHL DUP2 MSTORE PUSH1 0x20 PUSH1 0x4 DUP3 ADD MSTORE PUSH1 0x30 PUSH1 0x24 DUP3 ADD MSTORE PUSH32 0x7A6B56564D3A2077697468647261772D616D6F756E742D6D7573742D62652D67 PUSH1 0x44 DUP3 ADD MSTORE PUSH32 0x7265617465722D7468616E2D7A65726F00000000000000000000000000000000 PUSH1 0x64 DUP3 ADD MSTORE REVERT JUMPDEST PUSH1 0x64 PUSH1 0x40 MLOAD PUSH3 0x461BCD PUSH1 0xE5 SHL DUP2 MSTORE PUSH1 0x20 PUSH1 0x4 DUP3 ADD MSTORE PUSH1 0x19 PUSH1 0x24 DUP3 ADD MSTORE PUSH32 0x7A6B56564D3A20726563697069656E742D6D69736D6174636800000000000000 PUSH1 0x44 DUP3 ADD MSTORE REVERT JUMPDEST PUSH1 0x64 PUSH1 0x40 MLOAD PUSH3 0x461BCD PUSH1 0xE5 SHL DUP2 MSTORE PUSH1 0x20 PUSH1 0x4 DUP3 ADD MSTORE PUSH1 0x15 PUSH1 0x24 DUP3 ADD MSTORE PUSH32 0x7A6B56564D3A206E756C6C69666965722D757365640000000000000000000000 PUSH1 0x44 DUP3 ADD MSTORE REVERT JUMPDEST PUSH1 0x64 PUSH1 0x40 MLOAD PUSH3 0x461BCD PUSH1 0xE5 SHL DUP2 MSTORE PUSH1 0x20 PUSH1 0x4 DUP3 ADD MSTORE PUSH1 0x13 PUSH1 0x24 DUP3 ADD MSTORE PUSH32 0x7A6B56564D3A20756E6B6E6F776E2D726F6F7400000000000000000000000000 PUSH1 0x44 DUP3 ADD MSTORE REVERT JUMPDEST PUSH1 0x64 PUSH1 0x40 MLOAD PUSH3 0x461BCD PUSH1 0xE5 SHL DUP2 MSTORE PUSH1 0x20 PUSH1 0x4 DUP3 ADD MSTORE PUSH1 0x1B PUSH1 0x24 DUP3 ADD MSTORE PUSH32 0x7A6B56564D3A20696E76616C69642D6D65726B6C652D64657074680000000000 PUSH1 0x44 DUP3 ADD MSTORE REVERT JUMPDEST PUSH1 0x24 DUP12 PUSH32 0x4E487B7100000000000000000000000000000000000000000000000000000000 DUP2 MSTORE PUSH1 0x32 PUSH1 0x4 MSTORE REVERT JUMPDEST PUSH1 0x24 DUP11 PUSH32 0x4E487B7100000000000000000000000000000000000000000000000000000000 DUP2 MSTORE PUSH1 0x32 PUSH1 0x4 MSTORE REVERT JUMPDEST PUSH1 0x64 PUSH1 0x40 MLOAD PUSH3 0x461BCD PUSH1 0xE5 SHL DUP2 MSTORE PUSH1 0x20 PUSH1 0x4 DUP3 ADD MSTORE PUSH1 0x14 PUSH1 0x24 DUP3 ADD MSTORE PUSH32 0x7A6B56564D3A20726F6F742D6D69736D61746368000000000000000000000000 PUSH1 0x44 DUP3 ADD MSTORE REVERT JUMPDEST PUSH1 0x64 PUSH1 0x40 MLOAD PUSH3 0x461BCD PUSH1 0xE5 SHL DUP2 MSTORE PUSH1 0x20 PUSH1 0x4 DUP3 ADD MSTORE PUSH1 0x1C PUSH1 0x24 DUP3 ADD MSTORE PUSH32 0x7A6B56564D3A20696E76616C69642D7075626C69632D696E7075747300000000 PUSH1 0x44 DUP3 ADD MSTORE REVERT JUMPDEST DUP12 PUSH2 0xE66 SWAP2 SWAP13 SWAP3 SWAP13 PUSH2 0x11F8 JUMP JUMPDEST SWAP10 CODESIZE PUSH2 0x883 JUMP JUMPDEST POP DUP1 REVERT JUMPDEST DUP11 DUP1 REVERT JUMPDEST DUP9 DUP1 REVERT JUMPDEST DUP8 DUP1 REVERT JUMPDEST POP CALLVALUE PUSH2 0xD3 JUMPI PUSH1 0x40 PUSH1 0x3 NOT CALLDATASIZE ADD SLT PUSH2 0xD3 JUMPI PUSH2 0xE97 PUSH2 0x11D0 JUMP JUMPDEST PUSH1 0x20 PUSH20 0xFFFFFFFFFFFFFFFFFFFFFFFFFFFFFFFFFFFFFFFF PUSH1 0x44 DUP2 DUP6 SLOAD AND SWAP4 PUSH1 0x40 MLOAD SWAP5 DUP6 SWAP4 DUP5 SWAP3 PUSH32 0xD0E3692D00000000000000000000000000000000000000000000000000000000 DUP5 MSTORE AND PUSH1 0x4 DUP4 ADD MSTORE PUSH1 0x24 CALLDATALOAD PUSH1 0x24 DUP4 ADD MSTORE GAS STATICCALL SWAP1 DUP2 ISZERO PUSH2 0xB74 JUMPI PUSH1 0x20 SWAP3 SWAP2 PUSH2 0xF0B JUMPI JUMPDEST POP PUSH1 0x40 MLOAD SWAP1 ISZERO ISZERO DUP2 MSTORE RETURN JUMPDEST PUSH2 0xF22 SWAP2 POP DUP3 RETURNDATASIZE DUP5 GT PUSH2 0xBEB JUMPI PUSH2 0xBDD DUP2 DUP4 PUSH2 0x11F8 JUMP JUMPDEST CODESIZE PUSH2 0xF00 JUMP JUMPDEST POP CALLVALUE PUSH2 0xD3 JUMPI PUSH1 0x20 PUSH1 0x3 NOT CALLDATASIZE ADD SLT PUSH2 0xD3 JUMPI PUSH1 0x4 CALLDATALOAD DUP1 DUP3 MSTORE PUSH1 0x3 PUSH1 0x20 MSTORE PUSH1 0xFF PUSH1 0x40 DUP4 KECCAK256 SLOAD AND PUSH2 0xFF2 JUMPI PUSH20 0xFFFFFFFFFFFFFFFFFFFFFFFFFFFFFFFFFFFFFFFF PUSH1 0x6 SLOAD AND CALLER SUB PUSH2 0xFAE JUMPI DUP1 DUP3 MSTORE PUSH1 0x3 PUSH1 0x20 MSTORE PUSH1 0x40 DUP3 KECCAK256 PUSH1 0x1 PUSH1 0xFF NOT DUP3 SLOAD AND OR SWAP1 SSTORE PUSH32 0x13B7988E460E02147392C67A86A8E331384A2A1AB002269648D8AC81A5EFC086 DUP3 DUP1 LOG2 DUP1 RETURN JUMPDEST PUSH1 0x64 PUSH1 0x40 MLOAD PUSH3 0x461BCD PUSH1 0xE5 SHL DUP2 MSTORE PUSH1 0x20 PUSH1 0x4 DUP3 ADD MSTORE PUSH1 0x1F PUSH1 0x24 DUP3 ADD MSTORE PUSH32 0x4F6E6C792061646D696E2063616E2063616C6C2074686973206D6574686F6400 PUSH1 0x44 DUP3 ADD MSTORE REVERT JUMPDEST PUSH1 0x64 PUSH1 0x40 MLOAD PUSH3 0x461BCD PUSH1 0xE5 SHL DUP2 MSTORE PUSH1 0x20 PUSH1 0x4 DUP3 ADD MSTORE PUSH1 0x12 PUSH1 0x24 DUP3 ADD MSTORE PUSH32 0x526F6F7420616C7265616479206B6E6F776E0000000000000000000000000000 PUSH1 0x44 DUP3 ADD MSTORE REVERT JUMPDEST POP CALLVALUE PUSH2 0xD3 JUMPI DUP1 PUSH1 0x3 NOT CALLDATASIZE ADD SLT PUSH2 0xD3 JUMPI PUSH1 0x20 PUSH1 0x40 MLOAD PUSH20 0xFFFFFFFFFFFFFFFFFFFFFFFFFFFFFFFFFFFFFFFF PUSH32 0x0 AND DUP2 MSTORE RETURN JUMPDEST POP CALLVALUE PUSH2 0xD3 JUMPI PUSH1 0x20 PUSH1 0x3 NOT CALLDATASIZE ADD SLT PUSH2 0xD3 JUMPI PUSH1 0x4 CALLDATALOAD SWAP1 PUSH8 0xFFFFFFFFFFFFFFFF DUP3 GT PUSH2 0xD3 JUMPI PUSH1 0x20 PUSH1 0xFF PUSH2 0x10D4 DUP3 PUSH2 0x10C1 CALLDATASIZE PUSH1 0x4 DUP9 ADD PUSH2 0x1266 JUMP JUMPDEST DUP2 PUSH1 0x40 MLOAD SWAP4 DUP3 DUP6 DUP1 SWAP5 MLOAD SWAP4 DUP5 SWAP3 ADD PUSH2 0x12AD JUMP JUMPDEST DUP2 ADD PUSH1 0x2 DUP2 MSTORE SUB ADD SWAP1 KECCAK256 SLOAD AND PUSH1 0x40 MLOAD SWAP1 ISZERO ISZERO DUP2 MSTORE RETURN JUMPDEST POP CALLVALUE PUSH2 0xD3 JUMPI PUSH1 0x20 PUSH1 0x3 NOT CALLDATASIZE ADD SLT PUSH2 0xD3 JUMPI PUSH2 0x1104 PUSH2 0x11D0 JUMP JUMPDEST PUSH1 0x20 PUSH20 0xFFFFFFFFFFFFFFFFFFFFFFFFFFFFFFFFFFFFFFFF PUSH1 0x24 DUP2 DUP6 SLOAD AND SWAP4 PUSH1 0x40 MLOAD SWAP5 DUP6 SWAP4 DUP5 SWAP3 PUSH32 0x6CD3014800000000000000000000000000000000000000000000000000000000 DUP5 MSTORE AND PUSH1 0x4 DUP4 ADD MSTORE GAS STATICCALL SWAP1 DUP2 ISZERO PUSH2 0xB74 JUMPI DUP3 SWAP2 PUSH2 0x116E JUMPI JUMPDEST PUSH1 0x20 DUP3 PUSH1 0x40 MLOAD SWAP1 DUP2 MSTORE RETURN JUMPDEST SWAP1 POP PUSH1 0x20 DUP2 RETURNDATASIZE PUSH1 0x20 GT PUSH2 0x119C JUMPI JUMPDEST DUP2 PUSH2 0x1189 PUSH1 0x20 SWAP4 DUP4 PUSH2 0x11F8 JUMP JUMPDEST DUP2 ADD SUB SLT PUSH2 0xE6D JUMPI PUSH1 0x20 SWAP2 POP MLOAD CODESIZE PUSH2 0x1163 JUMP JUMPDEST RETURNDATASIZE SWAP2 POP PUSH2 0x117C JUMP JUMPDEST SWAP1 POP CALLVALUE PUSH2 0xE6D JUMPI PUSH1 0x20 PUSH1 0x3 NOT CALLDATASIZE ADD SLT PUSH2 0xE6D JUMPI PUSH1 0xFF PUSH1 0x40 PUSH1 0x20 SWAP4 PUSH1 0x4 CALLDATALOAD DUP2 MSTORE PUSH1 0x4 DUP6 MSTORE KECCAK256 SLOAD AND ISZERO ISZERO DUP2 MSTORE RETURN JUMPDEST PUSH1 0x4 CALLDATALOAD SWAP1 PUSH20 0xFFFFFFFFFFFFFFFFFFFFFFFFFFFFFFFFFFFFFFFF DUP3 AND DUP3 SUB PUSH2 0x11F3 JUMPI JUMP JUMPDEST PUSH1 0x0 DUP1 REVERT JUMPDEST SWAP1 PUSH1 0x1F PUSH1 0x1F NOT SWAP2 ADD AND DUP2 ADD SWAP1 DUP2 LT PUSH8 0xFFFFFFFFFFFFFFFF DUP3 GT OR PUSH2 0x121B JUMPI PUSH1 0x40 MSTORE JUMP JUMPDEST PUSH32 0x4E487B7100000000000000000000000000000000000000000000000000000000 PUSH1 0x0 MSTORE PUSH1 0x41 PUSH1 0x4 MSTORE PUSH1 0x24 PUSH1 0x0 REVERT JUMPDEST PUSH8 0xFFFFFFFFFFFFFFFF DUP2 GT PUSH2 0x121B JUMPI PUSH1 0x1F ADD PUSH1 0x1F NOT AND PUSH1 0x20 ADD SWAP1 JUMP JUMPDEST DUP2 PUSH1 0x1F DUP3 ADD SLT ISZERO PUSH2 0x11F3 JUMPI DUP1 CALLDATALOAD SWAP1 PUSH2 0x127D DUP3 PUSH2 0x124A JUMP JUMPDEST SWAP3 PUSH2 0x128B PUSH1 0x40 MLOAD SWAP5 DUP6 PUSH2 0x11F8 JUMP JUMPDEST DUP3 DUP5 MSTORE PUSH1 0x20 DUP4 DUP4 ADD ADD GT PUSH2 0x11F3 JUMPI DUP2 PUSH1 0x0 SWAP3 PUSH1 0x20 DUP1 SWAP4 ADD DUP4 DUP7 ADD CALLDATACOPY DUP4 ADD ADD MSTORE SWAP1 JUMP JUMPDEST PUSH1 0x0 JUMPDEST DUP4 DUP2 LT PUSH2 0x12C0 JUMPI POP POP PUSH1 0x0 SWAP2 ADD MSTORE JUMP JUMPDEST DUP2 DUP2 ADD MLOAD DUP4 DUP3 ADD MSTORE PUSH1 0x20 ADD PUSH2 0x12B0 JUMP JUMPDEST SWAP1 DUP2 PUSH1 0x20 SWAP2 SUB SLT PUSH2 0x11F3 JUMPI MLOAD DUP1 ISZERO ISZERO DUP2 SUB PUSH2 0x11F3 JUMPI SWAP1 JUMP JUMPDEST PUSH1 0x1F DUP3 PUSH1 0x20 SWAP5 SWAP4 PUSH1 0x1F NOT SWAP4 DUP2 DUP7 MSTORE DUP7 DUP7 ADD CALLDATACOPY PUSH1 0x0 DUP6 DUP3 DUP7 ADD ADD MSTORE ADD AND ADD ADD SWAP1 JUMP JUMPDEST SWAP1 SWAP2 DUP3 DUP2 MSTORE PUSH32 0x7FFFFFFFFFFFFFFFFFFFFFFFFFFFFFFFFFFFFFFFFFFFFFFFFFFFFFFFFFFFFFF DUP4 GT PUSH2 0x11F3 JUMPI PUSH1 0x20 SWAP3 PUSH1 0x5 SHL DUP1 SWAP3 DUP5 DUP4 ADD CALLDATACOPY ADD ADD SWAP1 JUMP JUMPDEST SWAP1 PUSH1 0x1F NOT PUSH1 0x1F PUSH1 0x20 SWAP4 PUSH2 0x1364 DUP2 MLOAD DUP1 SWAP3 DUP2 DUP8 MSTORE DUP8 DUP1 DUP9 ADD SWAP2 ADD PUSH2 0x12AD JUMP JUMPDEST ADD AND ADD ADD SWAP1 JUMP JUMPDEST SWAP2 PUSH1 0xC0 SWAP4 PUSH20 0xFFFFFFFFFFFFFFFFFFFFFFFFFFFFFFFFFFFFFFFF SWAP2 DUP3 PUSH2 0x13B3 SWAP9 SWAP8 SWAP5 AND DUP6 MSTORE PUSH1 0x20 DUP6 ADD MSTORE AND PUSH1 0x40 DUP4 ADD MSTORE PUSH1 0x60 DUP3 ADD MSTORE PUSH1 0x1 PUSH1 0x80 DUP3 ADD MSTORE DUP2 PUSH1 0xA0 DUP3 ADD MSTORE ADD SWAP1 PUSH2 0x1346 JUMP JUMPDEST SWAP1 JUMP JUMPDEST RETURNDATASIZE ISZERO PUSH2 0x13E1 JUMPI RETURNDATASIZE SWAP1 PUSH2 0x13C7 DUP3 PUSH2 0x124A JUMP JUMPDEST SWAP2 PUSH2 0x13D5 PUSH1 0x40 MLOAD SWAP4 DUP5 PUSH2 0x11F8 JUMP JUMPDEST DUP3 MSTORE RETURNDATASIZE PUSH1 0x0 PUSH1 0x20 DUP5 ADD RETURNDATACOPY JUMP JUMPDEST PUSH1 0x60 SWAP1 JUMP JUMPDEST PUSH1 0x4 PUSH1 0x20 PUSH20 0xFFFFFFFFFFFFFFFFFFFFFFFFFFFFFFFFFFFFFFFF PUSH1 0x0 SLOAD AND PUSH1 0x40 MLOAD SWAP3 DUP4 DUP1 SWAP3 PUSH32 0x280E32FB00000000000000000000000000000000000000000000000000000000 DUP3 MSTORE GAS STATICCALL SWAP1 DUP2 ISZERO PUSH2 0x148D JUMPI PUSH1 0x0 SWAP2 PUSH2 0x1441 JUMPI POP SWAP1 JUMP JUMPDEST PUSH1 0x20 DUP2 RETURNDATASIZE PUSH1 0x20 GT PUSH2 0x1485 JUMPI JUMPDEST DUP2 PUSH2 0x145A PUSH1 0x20 SWAP4 DUP4 PUSH2 0x11F8 JUMP JUMPDEST DUP2 ADD SUB SLT PUSH2 0xE6D JUMPI MLOAD SWAP1 PUSH20 0xFFFFFFFFFFFFFFFFFFFFFFFFFFFFFFFFFFFFFFFF DUP3 AND DUP3 SUB PUSH2 0xD3 JUMPI POP SWAP1 JUMP JUMPDEST RETURNDATASIZE SWAP2 POP PUSH2 0x144D JUMP JUMPDEST PUSH1 0x40 MLOAD RETURNDATASIZE PUSH1 0x0 DUP3 RETURNDATACOPY RETURNDATASIZE SWAP1 REVERT INVALID LOG2 PUSH5 0x6970667358 0x22 SLT KECCAK256 0xDB INVALID DUP4 0xC0 0x1F PUSH2 0x16EB 0xE0 0xF PUSH19 0xA76824D4D0964366C5680920C4DA2E7AEF0F3A SWAP16 DUP9 PUSH5 0x736F6C6343 STOP ADDMOD SHR STOP CALLER "},"methodIdentifiers":{"admin()":"f851a440","commitments(bytes)":"7912b8e6","currentRoot()":"fdab463d","deposit(address,bytes,uint256,address,uint256,bytes,uint256,uint256,bytes,bytes32)":"f5db85f2","getCurrentRoot()":"8270482d","getIfUsedAsyncNonce(address,uint256)":"d0e3692d","getNextCurrentSyncNonce(address)":"6cd30148","merkleRoots(bytes32)":"fe5a5377","nullifiers(bytes32)":"2997e86b","registerRoot(bytes32)":"95d07edb","withdraw(address,address,bytes,bytes32,bytes32[],bytes32,address,uint256,bytes)":"d54f6c8b","withdrawVerifier()":"864eb164"}}}}}