{"contracts/UltraVerifier.sol":{"UltraVerifier":{"abi":[{"inputs":[],"name":"INVALID_VERIFICATION_KEY","type":"error"},{"inputs":[],"name":"MOD_EXP_FAILURE","type":"error"},{"inputs":[],"name":"OPENING_COMMITMENT_FAILED","type":"error"},{"inputs":[],"name":"PAIRING_FAILED","type":"error"},{"inputs":[],"name":"PAIRING_PREAMBLE_FAILED","type":"error"},{"inputs":[],"name":"POINT_NOT_ON_CURVE","type":"error"},{"inputs":[{"internalType":"uint256","name":"expected","type":"uint256"},{"internalType":"uint256","name":"actual","type":"uint256"}],"name":"PUBLIC_INPUT_COUNT_INVALID","type":"error"},{"inputs":[],"name":"PUBLIC_INPUT_GE_P","type":"error"},{"inputs":[],"name":"PUBLIC_INPUT_INVALID_BN128_G1_POINT","type":"error"},{"inputs":[],"name":"getVerificationKeyHash","outputs":[{"internalType":"bytes32","name":"","type":"bytes32"}],"stateMutability":"pure","type":"function"},{"inputs":[{"internalType":"bytes","name":"_proof","type":"bytes"},{"internalType":"bytes32[]","name":"_publicInputs","type":"bytes32[]"}],"name":"verify","outputs":[{"internalType":"bool","name":"","type":"bool"}],"stateMutability":"view","type":"function"}],"evm":{"bytecode":{"linkReferences":{},"object":"608060405234801561001057600080fd5b506140006103805260056103a0527f2d965651cdd9e4811f4e51b80ddca8a8b4a93ee17420aae6adaa01c2617c6e856103c0527f30638ce1a7661b6337a964756aa75257c6bf4778d89789ab819ce60c19b040016103e0527f0b403680f9b3152bcbad37ef230f532740e14e0040332499a283bf3702babb5f610400527f087f305958c7a7d59518731e4bf4cfd8c5d8d7d12a2cd331579856d08e6c7f0a610420527f0f79c8a4f8b3d5c4540e3f522c711d0dcac6d93fa612508ff653573eca2ec104610440527f0ada753c5825c54157ed27a1569bb1a8584048c93e664108b7fc20d7d3201466610460527f09b0341c5fe0654cc11a5042423337a914b0f9e6de4fe745148f5fbc4e21dce5610480527f232f7c438aaaaa030722ee0f4214519485bf11a1eb30619ec37db96f1ee9617b6104a0527f0e6351d42b46490eb422a8d31e77912524d6885f23ec7e544409a480994cd4eb6104c0527f24b7925fa4a182664038ecbd8d4deac9df248b332f617747eb21ac726247c58a6104e0527f273b9542001859a3fdcd07a9adc91e02a0aa4f84601f9771aeaff93e00083e8c610500527f2079ae59fad9120ad373c366e1833266473a33f4c53d215dc2ed9d50be87564b610520527f074278ecf143dcd624b707176e700bb3d6bb5c882cf9b824bbebf70da1b30927610540527f0f5b4df6a9bed8a84ff0b96e8c4b5e2b4c4b110fe8fe6aa2aab56aca57bbf3d0610560527edef39136e897d84ed1054fbf07890795c78c843a70d03343c7e0a5b88e6c8e610580527f179cfa1b294f9e3d0a1b3a998611f1f3dac0ca98452408e37bce5c7da934f0ce6105a0527f221112bbe89180fa01f4bde547a053374cc84fe1fae088fbfc612e2e617522d96105c0527f14c95976723976e5a42765a810f311624b9563f60d294bb33aaf7d11bc4d4b0c6105e0527f1b6554b6d2aa40d25b6ab07460e9ce2b6b85fb328405a1e1f56ca8176be0b329610600527f29955e8a0cd8c4afa3d13b5ce1be3e7712b58c51d589a9061426b3e4f0e548bc610620527f2c4c5b5ebd83d5248c92a7ef9552c3b45bcd805ed7c28e911beb9634f3ee5843610640527f1c3e8854a1e23d7f9d2e76f71b85de046c50622c7c3346787f392f89d5c29526610660527f020a0d0a272b3128cf78eb18891cd0f3007f59c6e614bcfc3c459cc0dce9ee9e610680527f19b412bd0d567afb69e00f7caf54436b665234109838fca7f5f1b67d89e059c06106a0527f2a01c7c945eec5239adee411b859c4e43deb6fdf2849cdf0a58071ea49e8b19b6106c0527f22b1e87e33dcb8b1d31178f75631719465e1160312a041a0b19b31a1aa6f82686106e0527f03c2afa9af515c93dfd56f1442a755603ed7a131163626b38a8b5c5c9b4e3d5f610700527f0b8114c29ccd5d7b495643eea6399708c1a9526bbd36b3f834457c3f8939949d610720527f101b91a079ff4f986d808337930dd7aa87713d7b992ee6141928484f97cc2cb8610740527f209ff4ac0ca25fe4f8ee72b07906d92089cbcf62ca81a623ba6a00e8eaa0d3d7610760527f2ed64ad6750aba45060308ded3024fe2b68ef2779adde7ec42484d04b4a026e5610780527f1536b9a11fe50685319e6216fdc57535a63a15a25c961c9f5412ce2b3d8bcdfc6107a0527f2d93bcc9e09c48fd3bd30b51e6ebfefc3d87d08b396ac625317b7eca5851bc956107c0527f2a8c594dd2b2510a6484ba8a68720ee760db3b4dc636d7e7c21cbc719a09b32b6107e0527f18484b22d5b961fd34caf121451d6b9fe7aa21eb62f1f1f34f3a86b90feb9252610800527f08b3820eea73f1ea978300c76306896e5d0a95c6c68f7a5c2de8e9492eb30bf7610820527f1fcbf10eba042054bbc36002030f6ef53a5838a2bb11ea293357a419e93239a6610840527f24956baf11671877a1974a69059e506e06d154841aaa195a05ae3059a53aa86e610860527f239cfebd4b5c0ffa5f45a84f0d45a48bb39fd84e2b01b985261ccf20353bc744610880527f02768130086ce450622e1bef92f03b5af0639a9aa184177d281bbee5599347296108a0527f1809ec8d0d86c2d030175288a5ffeaba7bdbb29f14275224b1e070aa6542880f6108c0527f09e7b4ca765193c5693325064ef2a918f128e6f9ac0033fc978b10991577ec696108e0527f245d147953119312c2a6c739997ea4d87a9eb87273f36c5cb906be68d249f321610900527f0d35c538b94d7385c6ef255c26a72c5080db14cb5b6007ea2cabd7c924497dde610920527f0eced81598a2f9d279dc02379bfdc321f85e9bd70a155b0cea4b1c7b3a60dc4b610940527f08088b382e027bc8d4933617d9932860295faaf92a4089ee1622374a76d1a9bd610960527f22c4fb105d0b9c165b88e90ad095aa6021c6cb7d3db020be2ca0601a0cea8142610980527f10e4636af52a1f295b97ef0087acba5b62420ed80988cde8641857cfb1cb9fa56109a05260006109c08190526109e0527f260e01b251f6f1c7e7ff4e580791dee8ea51d87a358e038b4efe30fac09383c1610a00527f0118c4d5b837bcc2bc89b5b398b5974e9f5944073b32078b7e231fec938883b0610a20527f04fc6369f7110fe3d25156c1bb9a72859cf2a04641f99ba4ee413c80da6a5fe4610a40527f22febda3c0c0632a56475b4214e5615e11e6dd3f96e6cea2854a87d4dacc5e55610a60527f281c036f06e7e9e911680d42558e6e8cf40976b0677771c0f8eee934641c8410613300527f30644e72e131a029b85045b68181585d97816a916871ca8d3c208c16d87cfd47600161040051610420518382830984600386838609088583840914841693505050506104405161046051838283098460038683860908858384091484169350505050610480516104a0518382830984600386838609088583840914841693505050506104c0516104e051838283098460038683860908858384091484169350508160005280602052505061050051610520518382830984600386838609088583840914841693505050506105405161056051838283098460038683860908858384091484169350505050610580516105a0518382830984600386838609088583840914841693505050506105c0516105e05183828309846003868386090885838409148416935050505061060051610620518382830984600386838609088583840914841693505050506106405161066051838283098460038683860908858384091484169350505050610680516106a0518382830984600386838609088583840914841693505050506106c0516106e05183828309846003868386090885838409148416935050505061070051610720518382830984600386838609088583840914841693505050506107405161076051838283098460038683860908858384091484169350505050610780516107a0518382830984600386838609088583840914841693505050506107c0516107e05183828309846003868386090885838409148416935050505061080051610820518382830984600386838609088583840914841693505050506108405161086051838283098460038683860908858384091484169350505050610880516108a0518382830984600386838609088583840914841693505050506108c0516108e05183828309846003868386090885838409148416935050505061090051610920518382830984600386838609088583840914841693505050506109405161096051838283098460038683860908858384091484169350505050610980516109a05183828309846003868386090885838409148416935050505080610af357637e5769bf60e01b60005260046000fd5b5050612c9c80610b046000396000f3fe608060405234801561001057600080fd5b50600436106100365760003560e01c8063937f6a101461003b578063ea50d0e41461006e575b600080fd5b6040517f4612ca206c3714979554ce2ee7c784ef3537cd1f957c061746fa6c7eb785ffbe81526020015b60405180910390f35b61008161007c366004612b93565b610091565b6040519015158152602001610065565b6140006103805260056103a0527f2d965651cdd9e4811f4e51b80ddca8a8b4a93ee17420aae6adaa01c2617c6e856103c0527f30638ce1a7661b6337a964756aa75257c6bf4778d89789ab819ce60c19b040016103e0527f0b403680f9b3152bcbad37ef230f532740e14e0040332499a283bf3702babb5f610400527f087f305958c7a7d59518731e4bf4cfd8c5d8d7d12a2cd331579856d08e6c7f0a610420527f0f79c8a4f8b3d5c4540e3f522c711d0dcac6d93fa612508ff653573eca2ec104610440527f0ada753c5825c54157ed27a1569bb1a8584048c93e664108b7fc20d7d3201466610460527f09b0341c5fe0654cc11a5042423337a914b0f9e6de4fe745148f5fbc4e21dce5610480527f232f7c438aaaaa030722ee0f4214519485bf11a1eb30619ec37db96f1ee9617b6104a0527f0e6351d42b46490eb422a8d31e77912524d6885f23ec7e544409a480994cd4eb6104c0527f24b7925fa4a182664038ecbd8d4deac9df248b332f617747eb21ac726247c58a6104e0527f273b9542001859a3fdcd07a9adc91e02a0aa4f84601f9771aeaff93e00083e8c610500527f2079ae59fad9120ad373c366e1833266473a33f4c53d215dc2ed9d50be87564b610520527f074278ecf143dcd624b707176e700bb3d6bb5c882cf9b824bbebf70da1b30927610540527f0f5b4df6a9bed8a84ff0b96e8c4b5e2b4c4b110fe8fe6aa2aab56aca57bbf3d0610560527edef39136e897d84ed1054fbf07890795c78c843a70d03343c7e0a5b88e6c8e610580527f179cfa1b294f9e3d0a1b3a998611f1f3dac0ca98452408e37bce5c7da934f0ce6105a0527f221112bbe89180fa01f4bde547a053374cc84fe1fae088fbfc612e2e617522d96105c0527f14c95976723976e5a42765a810f311624b9563f60d294bb33aaf7d11bc4d4b0c6105e0527f1b6554b6d2aa40d25b6ab07460e9ce2b6b85fb328405a1e1f56ca8176be0b329610600527f29955e8a0cd8c4afa3d13b5ce1be3e7712b58c51d589a9061426b3e4f0e548bc610620527f2c4c5b5ebd83d5248c92a7ef9552c3b45bcd805ed7c28e911beb9634f3ee5843610640527f1c3e8854a1e23d7f9d2e76f71b85de046c50622c7c3346787f392f89d5c29526610660527f020a0d0a272b3128cf78eb18891cd0f3007f59c6e614bcfc3c459cc0dce9ee9e610680527f19b412bd0d567afb69e00f7caf54436b665234109838fca7f5f1b67d89e059c06106a0527f2a01c7c945eec5239adee411b859c4e43deb6fdf2849cdf0a58071ea49e8b19b6106c0527f22b1e87e33dcb8b1d31178f75631719465e1160312a041a0b19b31a1aa6f82686106e0527f03c2afa9af515c93dfd56f1442a755603ed7a131163626b38a8b5c5c9b4e3d5f610700527f0b8114c29ccd5d7b495643eea6399708c1a9526bbd36b3f834457c3f8939949d610720527f101b91a079ff4f986d808337930dd7aa87713d7b992ee6141928484f97cc2cb8610740527f209ff4ac0ca25fe4f8ee72b07906d92089cbcf62ca81a623ba6a00e8eaa0d3d7610760527f2ed64ad6750aba45060308ded3024fe2b68ef2779adde7ec42484d04b4a026e5610780527f1536b9a11fe50685319e6216fdc57535a63a15a25c961c9f5412ce2b3d8bcdfc6107a0527f2d93bcc9e09c48fd3bd30b51e6ebfefc3d87d08b396ac625317b7eca5851bc956107c0527f2a8c594dd2b2510a6484ba8a68720ee760db3b4dc636d7e7c21cbc719a09b32b6107e0527f18484b22d5b961fd34caf121451d6b9fe7aa21eb62f1f1f34f3a86b90feb9252610800527f08b3820eea73f1ea978300c76306896e5d0a95c6c68f7a5c2de8e9492eb30bf7610820527f1fcbf10eba042054bbc36002030f6ef53a5838a2bb11ea293357a419e93239a6610840527f24956baf11671877a1974a69059e506e06d154841aaa195a05ae3059a53aa86e610860527f239cfebd4b5c0ffa5f45a84f0d45a48bb39fd84e2b01b985261ccf20353bc744610880527f02768130086ce450622e1bef92f03b5af0639a9aa184177d281bbee5599347296108a0527f1809ec8d0d86c2d030175288a5ffeaba7bdbb29f14275224b1e070aa6542880f6108c0527f09e7b4ca765193c5693325064ef2a918f128e6f9ac0033fc978b10991577ec696108e0527f245d147953119312c2a6c739997ea4d87a9eb87273f36c5cb906be68d249f321610900527f0d35c538b94d7385c6ef255c26a72c5080db14cb5b6007ea2cabd7c924497dde610920527f0eced81598a2f9d279dc02379bfdc321f85e9bd70a155b0cea4b1c7b3a60dc4b610940527f08088b382e027bc8d4933617d9932860295faaf92a4089ee1622374a76d1a9bd610960527f22c4fb105d0b9c165b88e90ad095aa6021c6cb7d3db020be2ca0601a0cea8142610980527f10e4636af52a1f295b97ef0087acba5b62420ed80988cde8641857cfb1cb9fa56109a05260006109c08190526109e08190527f260e01b251f6f1c7e7ff4e580791dee8ea51d87a358e038b4efe30fac09383c1610a00527f0118c4d5b837bcc2bc89b5b398b5974e9f5944073b32078b7e231fec938883b0610a20527f04fc6369f7110fe3d25156c1bb9a72859cf2a04641f99ba4ee413c80da6a5fe4610a40527f22febda3c0c0632a56475b4214e5615e11e6dd3f96e6cea2854a87d4dacc5e55610a60527f281c036f06e7e9e911680d42558e6e8cf40976b0677771c0f8eee934641c8410613300526103a05182811461089f576040517f7667dc9b000000000000000000000000000000000000000000000000000000008152600481018290526024810184905260440160405180910390fd5b7f30644e72e131a029b85045b68181585d97816a916871ca8d3c208c16d87cfd477f30644e72e131a029b85045b68181585d2833e84879b9709143e1f593f00000016024600435018281350661122052826020820135066112005282604082013506611260528260608201350661124052826080820135066112a0528260a082013506611280528260c0820135066112e0528260e0820135066112c05282610100820135066113205282610120820135066113005282610140820135066113605282610160820135066113405282610180820135066113a052826101a08201350661138052826101c0820135066113e052826101e0820135066113c05282610200820135066114205282610220820135066114005282610240820135066114605282610260820135066114405282610280820135066114a052826102a08201350661148052816102c08201350661160052816102e0820135066116205281610300820135066116405281610320820135066116605281610340820135066116805281610360820135066116a05281610380820135066116c052816103a0820135066116e052816103c08201350661170052816103e0820135066117205281610400820135066117405281610420820135066117605281610440820135066117805281610460820135066117a05281610480820135066117c052816104a0820135066117e052816104c08201350661180052816104e0820135066119605281610500820135066119805281610520820135066119a05281610540820135066119c052816105608201350661184052816105808201350661186052816105a08201350661188052816105c0820135066118a052816105e0820135066118c05281610600820135066118e05281610620820135066119005281610640820135066119205281610660820135066119405281610680820135066119e052816106a08201350661200052816106c08201350661202052816106e0820135066120405281610700820135066120605281610720820135066120805281610740820135066120a05281610760820135066120c05281610780820135066120e052816107a08201350661210052816107c08201350661212052826107e08201350661232052826108008201350661230052826108208201350661236052826108408201350661234052506109c05115610d1a576024803501806109e05160051b0190508035602082013560441b81019050604082013560881b81019050606082013560cc1b81019050608082013560a083013560441b8101905060c083013560881b8101905060e083013560cc1b8101905061010083013561012084013560441b8101905061014084013560881b8101905061016084013560cc1b810190506101808401356101a085013560441b810190506101c085013560881b810190506101e085013560cc1b810190508361340052826134205281613440528061346052868110878410168783108886101616610d14577feba9f4a60000000000000000000000000000000000000000000000000000000060005260046000fd5b50505050505b6103805160e01b6000526103a05160e01b60045260086000208061348052602480350160206103a05102808260206134800137600435602401915060c0826134a083013760e0016134802083810661266081905290925090508281800961268052828161268051096126a05250806000526112e0516020526112c051604052611320516060526113005160805260a0600020905081810661260052806000526001602053506021600090812082810661262052815261136051602052611340516040526113a0516060526113805160805260a09020818106612640819052828180096133205282816133205109613340528281613340510961336052806133805250806000526113e0516020526113c05160405261142051606052611400516080526114605160a0526114405160c0526114a05160e052611480516101005261012060002090508181066126c052806126e0525061260051612620516103c051600180856001602480350160206103a0510281018360058a0984600c8b0999505b81831015610eda57823585811085169450858a82089050858183018909975085818c01880996505084888209905084888b099950602083019250610e9b565b50505080610f0c577f374a972f0000000000000000000000000000000000000000000000000000000060005260046000fd5b50508161300052806130205250505050508081600161260051086126205109806103805160015b81811015610f48578483840992508001610f33565b5050613100528181800990508181820961312052506126c05161038051819060015b81811015610f7f578483840992508001610f6a565b50508061304052826001840382089050613300518084036103e051858286088684840992508687848808820990508684840992508687848808820990508687888686098808820990506103c051925086828609915086600188038708878485099450876001890389898b888d8b8c0909090896506130205194508493508782860994508488878709955085898388099650868a61312051890997508760206000526020805260206040528b8b8a0960605260028c036080528b60a0526020600060c0600060055afa611075577ff894a7bc0000000000000000000000000000000000000000000000000000000060005260046000fd5b60005198508b818a0990508b8b8a0998508b828a0991508b613120518a0998508b838a0992508b858a0998508b848a0993508b8a8a0998508b888a0997508b868a0998508b613020518d8b8c090998508b896130005109613060528b888b09613080528b848709613680528b8388096130a0528b826131005109613140528b8188096130c052505050505050505050505061264051506126005161262051828361190051840982611620510101846118e051850983611600510101098384611940518509836116605101018561192051860984611640510101098485868385096116a051096133805109858661198051870985611620510101876119605188098661160051010109925085866119c051870985611660510101876119a0518809866116405101010991508586878885870961208051096133805109870382089050856126405161338051096133805285868788613060518a0361208051086130c0510961338051098208905085612640516133805109613380528586878860018a036116a051086130a05109613380510982086135005250505050508061264051613380510961338052806117205161266051098182836120205161178051096116405108820890508161266051820990508182836120005161176051096116205108820890508161266051820990508182836119e0516117005109611600510882089050816118405183846126605161186051098586612680516118805109876126a0516118a05109080808826120c0518485612660516120e051098687612680516121005109886126a051612120510908080883846001612600510861262051098461262051866118c051870908935084818687612600518609860808925084838509935084856001612600510885099350846130a05161264051099250848385089350846116c0518509935084838603850893508481868761260051612060510961168051080892505050826130c05161332051098381850383089150836120a05183099150838461314051830983089150508261338051848386038508096135205250508061334051613380510961338052806116e0516116005109816117005161162051098261172051611640510983611740516116605109847f183227397098d014dc2822db40c0ac2e9419f4243cdcb848a1f0fac9f80000008687600389036117a0510888611760518a6116205161160051090909098586878889858a08880886088408611780510894505050505081828384856116605161160051086119e051870308611760510884600286036117a05108096126405109828384858685612040510887600189036117a051080985086117a05109613380510961354052505080613320516133805109613380526002810360038203826116005184036116205108836116205185036116405108846116405186036116605108856116605187036119e05108866133805188898888088a8b8b8a088c8a8e038e8c8d09080909099350868788612640516133805109898a8988088b8c8c8a088d8a8f038f8c8d090809090985089350868788613320516133805109898a8987088b8c8c89088d898f038f8b8c090809090985089350868788613340516133805109898a8986088b8c8c88088d888f038f8a8b090809090985089350505050836117c051820961356052505061336051613380518392500961338052806116205182036119e051088161204051612040510982611640516116405109836116e05185612040516116405109098485868384088785870888030886878788098889611620516119e0510861200051080908925050508261338051848561176051870360010884090990508261202051611640510883611640518503856116e05161204051090884858287611620518903612000510809868685090893505050828361264051613380510984856117605187036001088509099150826117e0518484840809613580525050806116205161162051098161164051611640510982611620518460118408098360048309915083600982099050836003840992508381850385848788611620516116205108612000510809089150508283846120205161164051088561164051611640510809840384856120005187036116205108850908915082613380518209905082836126405161338051098309915082611760518209905082611760518309915082836117e0518585850809613580510861358052505080613360516133805109613380528081611620516119e05109826120005161160051090881612020518303838461164051611620510985611660516116005109080882681000000000000000008209905082612040518403820890508282820890508261174051820990508268100000000000000000830991508283612000516119e05109830891508261172051848561166051611640510886038508098361176051858661204051612020510887038761166051880808099250836117005185858786860808096135c0525050612000518291506140009009816119e0518208905081614000820990508161164051820890508161400082099050816116205182089050816140008209905081611600518208905081611660518303820890508161174051820990508161400061202051098261200051820890508261400082099050826119e05182089050826140008209905082611660518208905082614000820990508261164051820890508261204051840382089050826117605182099050826117205184838508096135e0525050806126605161164051098161162051820890508161266051820990508161160051820890508161266051820990508161178051820890508082611660518403830891508161364052826116005184036119e05108836116605185036120405108848560018703840883098586848803600108830991508585876126405189858b61264051890908090861362052856126605161202051099450856120005186089450856126605186099450856119e0518608945085612660518609945085858703612040510894508561164051870361202051089150858687878903600108840987858903600108099150858487036116605108868760018903830882099050868760018903880887099550866126405184099250868284089250866126405184099250868684089250866126405184099250868184089250508161360052505083611620518503612000510892508361164051850385868488036001088609089250836117005161362051099150838461174051850983089150838461176051613640510983089150836116e0518309915083846117a051613600510983089150836135c05183089250836135e05184089250836118005184099250836133805184099250826135a05283613340516133805109613380525050508061368051826135a0518461358051866135605188613540518a61352051613500510808080808096136608190526126e0516136a08190526136c0919091526102e460043501610520816136e03750506105606136a020818106612700526000819052600160205381602160002006612720526002602053816021600020066127405260036020538160216000200661276052600460205381602160002006612780526005602053816021600020066127a0526006602053816021600020066127c0526007602053816021600020066127e0526008602053816021600020066128005260096020538160216000200661282052600a6020538160216000200661284052600b6020538160216000200661286052600c6020538160216000200661288052600d602053816021600020066128a052600e602053816021600020066128c052600f602053816021600020066128e05260106020538160216000200661290052601160205381602160002006612920526012602053816021600020066129405260136020538160216000200661296052601460205381602160002006612980526015602053816021600020066129a0526016602053816021600020066129c0526017602053816021600020066129e052601860205381602160002006612a0052601960205381602160002006612a2052601a60205381602160002006612a4052601b60205381602160002006612a6052601c60205381602160002006612a8052601d60205381602160002006612aa052601d6020535060216000908120828106612ac05281526123205160205261230051604052612360516060526123405160805260a08120829006612b00526113c0516113e0518482800985600387838609088683840914611ce6576328f6b59560e21b60005260046000fd5b50613160919091526131805261140051611420518482800985600387838609088683840914611d20576328f6b59560e21b60005260046000fd5b50816000528060205250506130405160405260406131a06060600060075afa90506040613160608061316060065afa8116905061144051611460518482830985600387838609088683840914611d81576328f6b59560e21b60005260046000fd5b50600091909152602052613040518290800960405260406131a06060600060075afa16604061316060808160065afa81169050611480516114a0518482830985600387838609088683840914611de2576328f6b59560e21b60005260046000fd5b50600091909152602052613040518290818180090960405260406131a06060600060075afa16604061316060808160065afa8116905061120051611220518482830985600387838609088683840914611e46576328f6b59560e21b60005260046000fd5b50816000528060205250508161270051836001612b0051080960405260406131a06060600060075afa16604061316060808160065afa8116905061124051611260518482830985600387838609088683840914611eae576328f6b59560e21b60005260046000fd5b50816000528060205250508161272051836001612b0051080960405260406131a06060600060075afa16604061316060808160065afa81169050611280516112a0518482830985600387838609088683840914611f16576328f6b59560e21b60005260046000fd5b50816000528060205250508161274051836001612b0051080960405260406131a06060600060075afa16604061316060808160065afa811690506112c0516112e0518482830985600387838609088683840914611f7e576328f6b59560e21b60005260046000fd5b50816000528060205250508161276051836001612b0051080960405260406131a06060600060075afa16604061316060808160065afa8116905061130051611320518482830985600387838609088683840914611fe6576328f6b59560e21b60005260046000fd5b50816000528060205250508161278051836001612b0051080960405260406131a06060600060075afa16604061316060808160065afa811690506113405161136051848283098560038783860908868384091461204e576328f6b59560e21b60005260046000fd5b5081600052806020525050816127a051836001612b0051080960405260406131a06060600060075afa16604061316060808160065afa81169050611380516113a05184828309856003878386090886838409146120b6576328f6b59560e21b60005260046000fd5b5081600052806020525050816127c051836001612b0051080960405260406131a06060600060075afa16604061316060808160065afa8116905061040051600052610420516020526127e05160405260406131a06060600060075afa16604061316060808160065afa8116905061044051600052610460516020526128005160405260406131a06060600060075afa16604061316060808160065afa81169050610480516000526104a0516020526128205160405260406131a06060600060075afa16604061316060808160065afa811690506104c0516000526104e0516020526128405160405260406131a06060600060075afa16604061316060808160065afa8116905061050051600052610520516020526128605160405260406131a06060600060075afa16604061316060808160065afa8116905061054051600052610560516020526128805160405260406131a06060600060075afa16604061316060808160065afa81169050610580516000526105a0516020526128a05160405260406131a06060600060075afa16604061316060808160065afa811690506105c0516000526105e0516020526128c05160405260406131a06060600060075afa16604061316060808160065afa8116905061060051600052610620516020526128e05160405260406131a06060600060075afa16604061316060808160065afa8116905061064051600052610660516020526129005160405260406131a06060600060075afa16604061316060808160065afa81169050610680516000526106a0516020526129205160405260406131a06060600060075afa16604061316060808160065afa811690506106c0516000526106e0516020526129405160405260406131a06060600060075afa16604061316060808160065afa8116905061070051600052610720516020526129605160405260406131a06060600060075afa16604061316060808160065afa8116905061074051600052610760516020526129805160405260406131a06060600060075afa16604061316060808160065afa81169050610780516000526107a051602052816129a051836001612b0051080960405260406131a06060600060075afa16604061316060808160065afa811690506107c0516000526107e051602052816129c051836001612b0051080960405260406131a06060600060075afa16604061316060808160065afa811690506108005160005261082051602052816129e051836001612b0051080960405260406131a06060600060075afa16604061316060808160065afa81169050610840516000526108605160205281612a0051836001612b0051080960405260406131a06060600060075afa16604061316060808160065afa81169050610880516000526108a051602052612a205160405260406131a06060600060075afa16604061316060808160065afa811690506108c0516000526108e051602052612a405160405260406131a06060600060075afa16604061316060808160065afa811690506109005160005261092051602052612a605160405260406131a06060600060075afa16604061316060808160065afa811690506109405160005261096051602052612a805160405260406131a06060600060075afa16604061316060808160065afa81169050610980516000526109a051602052612aa05160405260406131a06060600060075afa16604061316060808160065afa8116905081826116005184612b00516119e051090861270051098283846116205186612b00516120005109086127205109820890508283846116405186612b00516120205109086127405109820890508283846116605186612b00516120405109086127605109820890508283846116805186612b00516120605109086127805109820890508283846116a05186612b00516120805109086127a05109820890508283846116c05186612b00516120a05109086127c051098208905082836116e0516127e051098208905082836117005161280051098208905082836117205161282051098208905082836117405161284051098208905082836117605161286051098208905082836117805161288051098208905082836117a0516128a051098208905082836117c0516128c051098208905082836117e0516128e051098208905082836118005161290051098208905082836119605161292051098208905082836119805161294051098208905082836119a05161296051098208905082836119c0516129805109820890508283846118405186612b00516120c05109086129a05109820890508283846118605186612b00516120e05109086129c05109820890508283846118805186612b00516121005109086129e05109820890508283846118a05186612b0051612120510908612a0051098208905082836118c051612a2051098208905082836118e051612a40510982089050828361190051612a60510982089050828361192051612a80510982089050828361194051612aa0510982089050826136605182089050600160005260026020528083036040525060406131a06060600060075afa16604061316060808160065afa1680612852577f4e7197630000000000000000000000000000000000000000000000000000000060005260046000fd5b612b00516126c05161230051612320518682830987600389838609088883840914612888576328f6b59560e21b60005260046000fd5b50816000528060205250508060405260406131a06060600060075afa92506040613160608061316060065afa83169250612340516123605186828309876003898386090888838409146128e6576328f6b59560e21b60005260046000fd5b5081600052806020525050836103c05185838509096040525060406131a06060600060075afa821691506040613220608061316060065afa8216915061230051600052612320516020526123405160405261236051606052806080526040806060604060075afa8216915060406131e06080600060065afa82169150613200518403613200526109c05115612a4757613400516134205185828309866003888386090887838409146129a3576328f6b59560e21b60005260046000fd5b50600091909152602052828180096040526040606080600060075afa82169150613440516134605185828309866003888386090887838409146129f1576328f6b59560e21b60005260046000fd5b50600091825260205260409060608160075afa821691506132205160a0526132405160c05260406132206080606060065afa821691506131e0516040526132005160605260406131e06080600060065afa821691505b5080612a77577f01882d810000000000000000000000000000000000000000000000000000000060005260046000fd5b61322051600052613240516020527f198e9393920d483a7260bfb731fb5d25f1aa493335a9e71297e485b7aef312c26040527f1800deef121f1e76426a00665e5c4479674322d4f75edadd46debd5cd992f6ed6060527f090689d0585ff075ec9e99ad690c3395bc4b313370b38ef355acdadcd122975b6080527f12c85ea5db8c6deb4aab71808dcb408fe3d1e7690c43d37b4ce6cc0166fa7daa60a0526131e05160c0526132005160e052610a005161010052610a205161012052610a405161014052610a60516101605260206000610180600060085afa90506000518116612b85577fd71fd2630000000000000000000000000000000000000000000000000000000060005260046000fd5b505050600160005260206000f35b60008060008060408587031215612ba957600080fd5b843567ffffffffffffffff811115612bc057600080fd5b8501601f81018713612bd157600080fd5b803567ffffffffffffffff811115612be857600080fd5b876020828401011115612bfa57600080fd5b60209182019550935085013567ffffffffffffffff811115612c1b57600080fd5b8501601f81018713612c2c57600080fd5b803567ffffffffffffffff811115612c4357600080fd5b8760208260051b8401011115612c5857600080fd5b94979396506020019450505056fea26469706673582212207ef1fa18459411b042a48ee35be6814083c5cbb6e849dd2458914763a62b87e964736f6c634300081c0033","opcodes":"PUSH1 0x80 PUSH1 0x40 MSTORE CALLVALUE DUP1 ISZERO PUSH2 0x10 JUMPI PUSH1 0x0 DUP1 REVERT JUMPDEST POP PUSH2 0x4000 PUSH2 0x380 MSTORE PUSH1 0x5 PUSH2 0x3A0 MSTORE PUSH32 0x2D965651CDD9E4811F4E51B80DDCA8A8B4A93EE17420AAE6ADAA01C2617C6E85 PUSH2 0x3C0 MSTORE PUSH32 0x30638CE1A7661B6337A964756AA75257C6BF4778D89789AB819CE60C19B04001 PUSH2 0x3E0 MSTORE PUSH32 0xB403680F9B3152BCBAD37EF230F532740E14E0040332499A283BF3702BABB5F PUSH2 0x400 MSTORE PUSH32 0x87F305958C7A7D59518731E4BF4CFD8C5D8D7D12A2CD331579856D08E6C7F0A PUSH2 0x420 MSTORE PUSH32 0xF79C8A4F8B3D5C4540E3F522C711D0DCAC6D93FA612508FF653573ECA2EC104 PUSH2 0x440 MSTORE PUSH32 0xADA753C5825C54157ED27A1569BB1A8584048C93E664108B7FC20D7D3201466 PUSH2 0x460 MSTORE PUSH32 0x9B0341C5FE0654CC11A5042423337A914B0F9E6DE4FE745148F5FBC4E21DCE5 PUSH2 0x480 MSTORE PUSH32 0x232F7C438AAAAA030722EE0F4214519485BF11A1EB30619EC37DB96F1EE9617B PUSH2 0x4A0 MSTORE PUSH32 0xE6351D42B46490EB422A8D31E77912524D6885F23EC7E544409A480994CD4EB PUSH2 0x4C0 MSTORE PUSH32 0x24B7925FA4A182664038ECBD8D4DEAC9DF248B332F617747EB21AC726247C58A PUSH2 0x4E0 MSTORE PUSH32 0x273B9542001859A3FDCD07A9ADC91E02A0AA4F84601F9771AEAFF93E00083E8C PUSH2 0x500 MSTORE PUSH32 0x2079AE59FAD9120AD373C366E1833266473A33F4C53D215DC2ED9D50BE87564B PUSH2 0x520 MSTORE PUSH32 0x74278ECF143DCD624B707176E700BB3D6BB5C882CF9B824BBEBF70DA1B30927 PUSH2 0x540 MSTORE PUSH32 0xF5B4DF6A9BED8A84FF0B96E8C4B5E2B4C4B110FE8FE6AA2AAB56ACA57BBF3D0 PUSH2 0x560 MSTORE PUSH31 0xDEF39136E897D84ED1054FBF07890795C78C843A70D03343C7E0A5B88E6C8E PUSH2 0x580 MSTORE PUSH32 0x179CFA1B294F9E3D0A1B3A998611F1F3DAC0CA98452408E37BCE5C7DA934F0CE PUSH2 0x5A0 MSTORE PUSH32 0x221112BBE89180FA01F4BDE547A053374CC84FE1FAE088FBFC612E2E617522D9 PUSH2 0x5C0 MSTORE PUSH32 0x14C95976723976E5A42765A810F311624B9563F60D294BB33AAF7D11BC4D4B0C PUSH2 0x5E0 MSTORE PUSH32 0x1B6554B6D2AA40D25B6AB07460E9CE2B6B85FB328405A1E1F56CA8176BE0B329 PUSH2 0x600 MSTORE PUSH32 0x29955E8A0CD8C4AFA3D13B5CE1BE3E7712B58C51D589A9061426B3E4F0E548BC PUSH2 0x620 MSTORE PUSH32 0x2C4C5B5EBD83D5248C92A7EF9552C3B45BCD805ED7C28E911BEB9634F3EE5843 PUSH2 0x640 MSTORE PUSH32 0x1C3E8854A1E23D7F9D2E76F71B85DE046C50622C7C3346787F392F89D5C29526 PUSH2 0x660 MSTORE PUSH32 0x20A0D0A272B3128CF78EB18891CD0F3007F59C6E614BCFC3C459CC0DCE9EE9E PUSH2 0x680 MSTORE PUSH32 0x19B412BD0D567AFB69E00F7CAF54436B665234109838FCA7F5F1B67D89E059C0 PUSH2 0x6A0 MSTORE PUSH32 0x2A01C7C945EEC5239ADEE411B859C4E43DEB6FDF2849CDF0A58071EA49E8B19B PUSH2 0x6C0 MSTORE PUSH32 0x22B1E87E33DCB8B1D31178F75631719465E1160312A041A0B19B31A1AA6F8268 PUSH2 0x6E0 MSTORE PUSH32 0x3C2AFA9AF515C93DFD56F1442A755603ED7A131163626B38A8B5C5C9B4E3D5F PUSH2 0x700 MSTORE PUSH32 0xB8114C29CCD5D7B495643EEA6399708C1A9526BBD36B3F834457C3F8939949D PUSH2 0x720 MSTORE PUSH32 0x101B91A079FF4F986D808337930DD7AA87713D7B992EE6141928484F97CC2CB8 PUSH2 0x740 MSTORE PUSH32 0x209FF4AC0CA25FE4F8EE72B07906D92089CBCF62CA81A623BA6A00E8EAA0D3D7 PUSH2 0x760 MSTORE PUSH32 0x2ED64AD6750ABA45060308DED3024FE2B68EF2779ADDE7EC42484D04B4A026E5 PUSH2 0x780 MSTORE PUSH32 0x1536B9A11FE50685319E6216FDC57535A63A15A25C961C9F5412CE2B3D8BCDFC PUSH2 0x7A0 MSTORE PUSH32 0x2D93BCC9E09C48FD3BD30B51E6EBFEFC3D87D08B396AC625317B7ECA5851BC95 PUSH2 0x7C0 MSTORE PUSH32 0x2A8C594DD2B2510A6484BA8A68720EE760DB3B4DC636D7E7C21CBC719A09B32B PUSH2 0x7E0 MSTORE PUSH32 0x18484B22D5B961FD34CAF121451D6B9FE7AA21EB62F1F1F34F3A86B90FEB9252 PUSH2 0x800 MSTORE PUSH32 0x8B3820EEA73F1EA978300C76306896E5D0A95C6C68F7A5C2DE8E9492EB30BF7 PUSH2 0x820 MSTORE PUSH32 0x1FCBF10EBA042054BBC36002030F6EF53A5838A2BB11EA293357A419E93239A6 PUSH2 0x840 MSTORE PUSH32 0x24956BAF11671877A1974A69059E506E06D154841AAA195A05AE3059A53AA86E PUSH2 0x860 MSTORE PUSH32 0x239CFEBD4B5C0FFA5F45A84F0D45A48BB39FD84E2B01B985261CCF20353BC744 PUSH2 0x880 MSTORE PUSH32 0x2768130086CE450622E1BEF92F03B5AF0639A9AA184177D281BBEE559934729 PUSH2 0x8A0 MSTORE PUSH32 0x1809EC8D0D86C2D030175288A5FFEABA7BDBB29F14275224B1E070AA6542880F PUSH2 0x8C0 MSTORE PUSH32 0x9E7B4CA765193C5693325064EF2A918F128E6F9AC0033FC978B10991577EC69 PUSH2 0x8E0 MSTORE PUSH32 0x245D147953119312C2A6C739997EA4D87A9EB87273F36C5CB906BE68D249F321 PUSH2 0x900 MSTORE PUSH32 0xD35C538B94D7385C6EF255C26A72C5080DB14CB5B6007EA2CABD7C924497DDE PUSH2 0x920 MSTORE PUSH32 0xECED81598A2F9D279DC02379BFDC321F85E9BD70A155B0CEA4B1C7B3A60DC4B PUSH2 0x940 MSTORE PUSH32 0x8088B382E027BC8D4933617D9932860295FAAF92A4089EE1622374A76D1A9BD PUSH2 0x960 MSTORE PUSH32 0x22C4FB105D0B9C165B88E90AD095AA6021C6CB7D3DB020BE2CA0601A0CEA8142 PUSH2 0x980 MSTORE PUSH32 0x10E4636AF52A1F295B97EF0087ACBA5B62420ED80988CDE8641857CFB1CB9FA5 PUSH2 0x9A0 MSTORE PUSH1 0x0 PUSH2 0x9C0 DUP2 SWAP1 MSTORE PUSH2 0x9E0 MSTORE PUSH32 0x260E01B251F6F1C7E7FF4E580791DEE8EA51D87A358E038B4EFE30FAC09383C1 PUSH2 0xA00 MSTORE PUSH32 0x118C4D5B837BCC2BC89B5B398B5974E9F5944073B32078B7E231FEC938883B0 PUSH2 0xA20 MSTORE PUSH32 0x4FC6369F7110FE3D25156C1BB9A72859CF2A04641F99BA4EE413C80DA6A5FE4 PUSH2 0xA40 MSTORE PUSH32 0x22FEBDA3C0C0632A56475B4214E5615E11E6DD3F96E6CEA2854A87D4DACC5E55 PUSH2 0xA60 MSTORE PUSH32 0x281C036F06E7E9E911680D42558E6E8CF40976B0677771C0F8EEE934641C8410 PUSH2 0x3300 MSTORE PUSH32 0x30644E72E131A029B85045B68181585D97816A916871CA8D3C208C16D87CFD47 PUSH1 0x1 PUSH2 0x400 MLOAD PUSH2 0x420 MLOAD DUP4 DUP3 DUP4 MULMOD DUP5 PUSH1 0x3 DUP7 DUP4 DUP7 MULMOD ADDMOD DUP6 DUP4 DUP5 MULMOD EQ DUP5 AND SWAP4 POP POP POP POP PUSH2 0x440 MLOAD PUSH2 0x460 MLOAD DUP4 DUP3 DUP4 MULMOD DUP5 PUSH1 0x3 DUP7 DUP4 DUP7 MULMOD ADDMOD DUP6 DUP4 DUP5 MULMOD EQ DUP5 AND SWAP4 POP POP POP POP PUSH2 0x480 MLOAD PUSH2 0x4A0 MLOAD DUP4 DUP3 DUP4 MULMOD DUP5 PUSH1 0x3 DUP7 DUP4 DUP7 MULMOD ADDMOD DUP6 DUP4 DUP5 MULMOD EQ DUP5 AND SWAP4 POP POP POP POP PUSH2 0x4C0 MLOAD PUSH2 0x4E0 MLOAD DUP4 DUP3 DUP4 MULMOD DUP5 PUSH1 0x3 DUP7 DUP4 DUP7 MULMOD ADDMOD DUP6 DUP4 DUP5 MULMOD EQ DUP5 AND SWAP4 POP POP DUP2 PUSH1 0x0 MSTORE DUP1 PUSH1 0x20 MSTORE POP POP PUSH2 0x500 MLOAD PUSH2 0x520 MLOAD DUP4 DUP3 DUP4 MULMOD DUP5 PUSH1 0x3 DUP7 DUP4 DUP7 MULMOD ADDMOD DUP6 DUP4 DUP5 MULMOD EQ DUP5 AND SWAP4 POP POP POP POP PUSH2 0x540 MLOAD PUSH2 0x560 MLOAD DUP4 DUP3 DUP4 MULMOD DUP5 PUSH1 0x3 DUP7 DUP4 DUP7 MULMOD ADDMOD DUP6 DUP4 DUP5 MULMOD EQ DUP5 AND SWAP4 POP POP POP POP PUSH2 0x580 MLOAD PUSH2 0x5A0 MLOAD DUP4 DUP3 DUP4 MULMOD DUP5 PUSH1 0x3 DUP7 DUP4 DUP7 MULMOD ADDMOD DUP6 DUP4 DUP5 MULMOD EQ DUP5 AND SWAP4 POP POP POP POP PUSH2 0x5C0 MLOAD PUSH2 0x5E0 MLOAD DUP4 DUP3 DUP4 MULMOD DUP5 PUSH1 0x3 DUP7 DUP4 DUP7 MULMOD ADDMOD DUP6 DUP4 DUP5 MULMOD EQ DUP5 AND SWAP4 POP POP POP POP PUSH2 0x600 MLOAD PUSH2 0x620 MLOAD DUP4 DUP3 DUP4 MULMOD DUP5 PUSH1 0x3 DUP7 DUP4 DUP7 MULMOD ADDMOD DUP6 DUP4 DUP5 MULMOD EQ DUP5 AND SWAP4 POP POP POP POP PUSH2 0x640 MLOAD PUSH2 0x660 MLOAD DUP4 DUP3 DUP4 MULMOD DUP5 PUSH1 0x3 DUP7 DUP4 DUP7 MULMOD ADDMOD DUP6 DUP4 DUP5 MULMOD EQ DUP5 AND SWAP4 POP POP POP POP PUSH2 0x680 MLOAD PUSH2 0x6A0 MLOAD DUP4 DUP3 DUP4 MULMOD DUP5 PUSH1 0x3 DUP7 DUP4 DUP7 MULMOD ADDMOD DUP6 DUP4 DUP5 MULMOD EQ DUP5 AND SWAP4 POP POP POP POP PUSH2 0x6C0 MLOAD PUSH2 0x6E0 MLOAD DUP4 DUP3 DUP4 MULMOD DUP5 PUSH1 0x3 DUP7 DUP4 DUP7 MULMOD ADDMOD DUP6 DUP4 DUP5 MULMOD EQ DUP5 AND SWAP4 POP POP POP POP PUSH2 0x700 MLOAD PUSH2 0x720 MLOAD DUP4 DUP3 DUP4 MULMOD DUP5 PUSH1 0x3 DUP7 DUP4 DUP7 MULMOD ADDMOD DUP6 DUP4 DUP5 MULMOD EQ DUP5 AND SWAP4 POP POP POP POP PUSH2 0x740 MLOAD PUSH2 0x760 MLOAD DUP4 DUP3 DUP4 MULMOD DUP5 PUSH1 0x3 DUP7 DUP4 DUP7 MULMOD ADDMOD DUP6 DUP4 DUP5 MULMOD EQ DUP5 AND SWAP4 POP POP POP POP PUSH2 0x780 MLOAD PUSH2 0x7A0 MLOAD DUP4 DUP3 DUP4 MULMOD DUP5 PUSH1 0x3 DUP7 DUP4 DUP7 MULMOD ADDMOD DUP6 DUP4 DUP5 MULMOD EQ DUP5 AND SWAP4 POP POP POP POP PUSH2 0x7C0 MLOAD PUSH2 0x7E0 MLOAD DUP4 DUP3 DUP4 MULMOD DUP5 PUSH1 0x3 DUP7 DUP4 DUP7 MULMOD ADDMOD DUP6 DUP4 DUP5 MULMOD EQ DUP5 AND SWAP4 POP POP POP POP PUSH2 0x800 MLOAD PUSH2 0x820 MLOAD DUP4 DUP3 DUP4 MULMOD DUP5 PUSH1 0x3 DUP7 DUP4 DUP7 MULMOD ADDMOD DUP6 DUP4 DUP5 MULMOD EQ DUP5 AND SWAP4 POP POP POP POP PUSH2 0x840 MLOAD PUSH2 0x860 MLOAD DUP4 DUP3 DUP4 MULMOD DUP5 PUSH1 0x3 DUP7 DUP4 DUP7 MULMOD ADDMOD DUP6 DUP4 DUP5 MULMOD EQ DUP5 AND SWAP4 POP POP POP POP PUSH2 0x880 MLOAD PUSH2 0x8A0 MLOAD DUP4 DUP3 DUP4 MULMOD DUP5 PUSH1 0x3 DUP7 DUP4 DUP7 MULMOD ADDMOD DUP6 DUP4 DUP5 MULMOD EQ DUP5 AND SWAP4 POP POP POP POP PUSH2 0x8C0 MLOAD PUSH2 0x8E0 MLOAD DUP4 DUP3 DUP4 MULMOD DUP5 PUSH1 0x3 DUP7 DUP4 DUP7 MULMOD ADDMOD DUP6 DUP4 DUP5 MULMOD EQ DUP5 AND SWAP4 POP POP POP POP PUSH2 0x900 MLOAD PUSH2 0x920 MLOAD DUP4 DUP3 DUP4 MULMOD DUP5 PUSH1 0x3 DUP7 DUP4 DUP7 MULMOD ADDMOD DUP6 DUP4 DUP5 MULMOD EQ DUP5 AND SWAP4 POP POP POP POP PUSH2 0x940 MLOAD PUSH2 0x960 MLOAD DUP4 DUP3 DUP4 MULMOD DUP5 PUSH1 0x3 DUP7 DUP4 DUP7 MULMOD ADDMOD DUP6 DUP4 DUP5 MULMOD EQ DUP5 AND SWAP4 POP POP POP POP PUSH2 0x980 MLOAD PUSH2 0x9A0 MLOAD DUP4 DUP3 DUP4 MULMOD DUP5 PUSH1 0x3 DUP7 DUP4 DUP7 MULMOD ADDMOD DUP6 DUP4 DUP5 MULMOD EQ DUP5 AND SWAP4 POP POP POP POP DUP1 PUSH2 0xAF3 JUMPI PUSH4 0x7E5769BF PUSH1 0xE0 SHL PUSH1 0x0 MSTORE PUSH1 0x4 PUSH1 0x0 REVERT JUMPDEST POP POP PUSH2 0x2C9C DUP1 PUSH2 0xB04 PUSH1 0x0 CODECOPY PUSH1 0x0 RETURN INVALID PUSH1 0x80 PUSH1 0x40 MSTORE CALLVALUE DUP1 ISZERO PUSH2 0x10 JUMPI PUSH1 0x0 DUP1 REVERT JUMPDEST POP PUSH1 0x4 CALLDATASIZE LT PUSH2 0x36 JUMPI PUSH1 0x0 CALLDATALOAD PUSH1 0xE0 SHR DUP1 PUSH4 0x937F6A10 EQ PUSH2 0x3B JUMPI DUP1 PUSH4 0xEA50D0E4 EQ PUSH2 0x6E JUMPI JUMPDEST PUSH1 0x0 DUP1 REVERT JUMPDEST PUSH1 0x40 MLOAD PUSH32 0x4612CA206C3714979554CE2EE7C784EF3537CD1F957C061746FA6C7EB785FFBE DUP2 MSTORE PUSH1 0x20 ADD JUMPDEST PUSH1 0x40 MLOAD DUP1 SWAP2 SUB SWAP1 RETURN JUMPDEST PUSH2 0x81 PUSH2 0x7C CALLDATASIZE PUSH1 0x4 PUSH2 0x2B93 JUMP JUMPDEST PUSH2 0x91 JUMP JUMPDEST PUSH1 0x40 MLOAD SWAP1 ISZERO ISZERO DUP2 MSTORE PUSH1 0x20 ADD PUSH2 0x65 JUMP JUMPDEST PUSH2 0x4000 PUSH2 0x380 MSTORE PUSH1 0x5 PUSH2 0x3A0 MSTORE PUSH32 0x2D965651CDD9E4811F4E51B80DDCA8A8B4A93EE17420AAE6ADAA01C2617C6E85 PUSH2 0x3C0 MSTORE PUSH32 0x30638CE1A7661B6337A964756AA75257C6BF4778D89789AB819CE60C19B04001 PUSH2 0x3E0 MSTORE PUSH32 0xB403680F9B3152BCBAD37EF230F532740E14E0040332499A283BF3702BABB5F PUSH2 0x400 MSTORE PUSH32 0x87F305958C7A7D59518731E4BF4CFD8C5D8D7D12A2CD331579856D08E6C7F0A PUSH2 0x420 MSTORE PUSH32 0xF79C8A4F8B3D5C4540E3F522C711D0DCAC6D93FA612508FF653573ECA2EC104 PUSH2 0x440 MSTORE PUSH32 0xADA753C5825C54157ED27A1569BB1A8584048C93E664108B7FC20D7D3201466 PUSH2 0x460 MSTORE PUSH32 0x9B0341C5FE0654CC11A5042423337A914B0F9E6DE4FE745148F5FBC4E21DCE5 PUSH2 0x480 MSTORE PUSH32 0x232F7C438AAAAA030722EE0F4214519485BF11A1EB30619EC37DB96F1EE9617B PUSH2 0x4A0 MSTORE PUSH32 0xE6351D42B46490EB422A8D31E77912524D6885F23EC7E544409A480994CD4EB PUSH2 0x4C0 MSTORE PUSH32 0x24B7925FA4A182664038ECBD8D4DEAC9DF248B332F617747EB21AC726247C58A PUSH2 0x4E0 MSTORE PUSH32 0x273B9542001859A3FDCD07A9ADC91E02A0AA4F84601F9771AEAFF93E00083E8C PUSH2 0x500 MSTORE PUSH32 0x2079AE59FAD9120AD373C366E1833266473A33F4C53D215DC2ED9D50BE87564B PUSH2 0x520 MSTORE PUSH32 0x74278ECF143DCD624B707176E700BB3D6BB5C882CF9B824BBEBF70DA1B30927 PUSH2 0x540 MSTORE PUSH32 0xF5B4DF6A9BED8A84FF0B96E8C4B5E2B4C4B110FE8FE6AA2AAB56ACA57BBF3D0 PUSH2 0x560 MSTORE PUSH31 0xDEF39136E897D84ED1054FBF07890795C78C843A70D03343C7E0A5B88E6C8E PUSH2 0x580 MSTORE PUSH32 0x179CFA1B294F9E3D0A1B3A998611F1F3DAC0CA98452408E37BCE5C7DA934F0CE PUSH2 0x5A0 MSTORE PUSH32 0x221112BBE89180FA01F4BDE547A053374CC84FE1FAE088FBFC612E2E617522D9 PUSH2 0x5C0 MSTORE PUSH32 0x14C95976723976E5A42765A810F311624B9563F60D294BB33AAF7D11BC4D4B0C PUSH2 0x5E0 MSTORE PUSH32 0x1B6554B6D2AA40D25B6AB07460E9CE2B6B85FB328405A1E1F56CA8176BE0B329 PUSH2 0x600 MSTORE PUSH32 0x29955E8A0CD8C4AFA3D13B5CE1BE3E7712B58C51D589A9061426B3E4F0E548BC PUSH2 0x620 MSTORE PUSH32 0x2C4C5B5EBD83D5248C92A7EF9552C3B45BCD805ED7C28E911BEB9634F3EE5843 PUSH2 0x640 MSTORE PUSH32 0x1C3E8854A1E23D7F9D2E76F71B85DE046C50622C7C3346787F392F89D5C29526 PUSH2 0x660 MSTORE PUSH32 0x20A0D0A272B3128CF78EB18891CD0F3007F59C6E614BCFC3C459CC0DCE9EE9E PUSH2 0x680 MSTORE PUSH32 0x19B412BD0D567AFB69E00F7CAF54436B665234109838FCA7F5F1B67D89E059C0 PUSH2 0x6A0 MSTORE PUSH32 0x2A01C7C945EEC5239ADEE411B859C4E43DEB6FDF2849CDF0A58071EA49E8B19B PUSH2 0x6C0 MSTORE PUSH32 0x22B1E87E33DCB8B1D31178F75631719465E1160312A041A0B19B31A1AA6F8268 PUSH2 0x6E0 MSTORE PUSH32 0x3C2AFA9AF515C93DFD56F1442A755603ED7A131163626B38A8B5C5C9B4E3D5F PUSH2 0x700 MSTORE PUSH32 0xB8114C29CCD5D7B495643EEA6399708C1A9526BBD36B3F834457C3F8939949D PUSH2 0x720 MSTORE PUSH32 0x101B91A079FF4F986D808337930DD7AA87713D7B992EE6141928484F97CC2CB8 PUSH2 0x740 MSTORE PUSH32 0x209FF4AC0CA25FE4F8EE72B07906D92089CBCF62CA81A623BA6A00E8EAA0D3D7 PUSH2 0x760 MSTORE PUSH32 0x2ED64AD6750ABA45060308DED3024FE2B68EF2779ADDE7EC42484D04B4A026E5 PUSH2 0x780 MSTORE PUSH32 0x1536B9A11FE50685319E6216FDC57535A63A15A25C961C9F5412CE2B3D8BCDFC PUSH2 0x7A0 MSTORE PUSH32 0x2D93BCC9E09C48FD3BD30B51E6EBFEFC3D87D08B396AC625317B7ECA5851BC95 PUSH2 0x7C0 MSTORE PUSH32 0x2A8C594DD2B2510A6484BA8A68720EE760DB3B4DC636D7E7C21CBC719A09B32B PUSH2 0x7E0 MSTORE PUSH32 0x18484B22D5B961FD34CAF121451D6B9FE7AA21EB62F1F1F34F3A86B90FEB9252 PUSH2 0x800 MSTORE PUSH32 0x8B3820EEA73F1EA978300C76306896E5D0A95C6C68F7A5C2DE8E9492EB30BF7 PUSH2 0x820 MSTORE PUSH32 0x1FCBF10EBA042054BBC36002030F6EF53A5838A2BB11EA293357A419E93239A6 PUSH2 0x840 MSTORE PUSH32 0x24956BAF11671877A1974A69059E506E06D154841AAA195A05AE3059A53AA86E PUSH2 0x860 MSTORE PUSH32 0x239CFEBD4B5C0FFA5F45A84F0D45A48BB39FD84E2B01B985261CCF20353BC744 PUSH2 0x880 MSTORE PUSH32 0x2768130086CE450622E1BEF92F03B5AF0639A9AA184177D281BBEE559934729 PUSH2 0x8A0 MSTORE PUSH32 0x1809EC8D0D86C2D030175288A5FFEABA7BDBB29F14275224B1E070AA6542880F PUSH2 0x8C0 MSTORE PUSH32 0x9E7B4CA765193C5693325064EF2A918F128E6F9AC0033FC978B10991577EC69 PUSH2 0x8E0 MSTORE PUSH32 0x245D147953119312C2A6C739997EA4D87A9EB87273F36C5CB906BE68D249F321 PUSH2 0x900 MSTORE PUSH32 0xD35C538B94D7385C6EF255C26A72C5080DB14CB5B6007EA2CABD7C924497DDE PUSH2 0x920 MSTORE PUSH32 0xECED81598A2F9D279DC02379BFDC321F85E9BD70A155B0CEA4B1C7B3A60DC4B PUSH2 0x940 MSTORE PUSH32 0x8088B382E027BC8D4933617D9932860295FAAF92A4089EE1622374A76D1A9BD PUSH2 0x960 MSTORE PUSH32 0x22C4FB105D0B9C165B88E90AD095AA6021C6CB7D3DB020BE2CA0601A0CEA8142 PUSH2 0x980 MSTORE PUSH32 0x10E4636AF52A1F295B97EF0087ACBA5B62420ED80988CDE8641857CFB1CB9FA5 PUSH2 0x9A0 MSTORE PUSH1 0x0 PUSH2 0x9C0 DUP2 SWAP1 MSTORE PUSH2 0x9E0 DUP2 SWAP1 MSTORE PUSH32 0x260E01B251F6F1C7E7FF4E580791DEE8EA51D87A358E038B4EFE30FAC09383C1 PUSH2 0xA00 MSTORE PUSH32 0x118C4D5B837BCC2BC89B5B398B5974E9F5944073B32078B7E231FEC938883B0 PUSH2 0xA20 MSTORE PUSH32 0x4FC6369F7110FE3D25156C1BB9A72859CF2A04641F99BA4EE413C80DA6A5FE4 PUSH2 0xA40 MSTORE PUSH32 0x22FEBDA3C0C0632A56475B4214E5615E11E6DD3F96E6CEA2854A87D4DACC5E55 PUSH2 0xA60 MSTORE PUSH32 0x281C036F06E7E9E911680D42558E6E8CF40976B0677771C0F8EEE934641C8410 PUSH2 0x3300 MSTORE PUSH2 0x3A0 MLOAD DUP3 DUP2 EQ PUSH2 0x89F JUMPI PUSH1 0x40 MLOAD PUSH32 0x7667DC9B00000000000000000000000000000000000000000000000000000000 DUP2 MSTORE PUSH1 0x4 DUP2 ADD DUP3 SWAP1 MSTORE PUSH1 0x24 DUP2 ADD DUP5 SWAP1 MSTORE PUSH1 0x44 ADD PUSH1 0x40 MLOAD DUP1 SWAP2 SUB SWAP1 REVERT JUMPDEST PUSH32 0x30644E72E131A029B85045B68181585D97816A916871CA8D3C208C16D87CFD47 PUSH32 0x30644E72E131A029B85045B68181585D2833E84879B9709143E1F593F0000001 PUSH1 0x24 PUSH1 0x4 CALLDATALOAD ADD DUP3 DUP2 CALLDATALOAD MOD PUSH2 0x1220 MSTORE DUP3 PUSH1 0x20 DUP3 ADD CALLDATALOAD MOD PUSH2 0x1200 MSTORE DUP3 PUSH1 0x40 DUP3 ADD CALLDATALOAD MOD PUSH2 0x1260 MSTORE DUP3 PUSH1 0x60 DUP3 ADD CALLDATALOAD MOD PUSH2 0x1240 MSTORE DUP3 PUSH1 0x80 DUP3 ADD CALLDATALOAD MOD PUSH2 0x12A0 MSTORE DUP3 PUSH1 0xA0 DUP3 ADD CALLDATALOAD MOD PUSH2 0x1280 MSTORE DUP3 PUSH1 0xC0 DUP3 ADD CALLDATALOAD MOD PUSH2 0x12E0 MSTORE DUP3 PUSH1 0xE0 DUP3 ADD CALLDATALOAD MOD PUSH2 0x12C0 MSTORE DUP3 PUSH2 0x100 DUP3 ADD CALLDATALOAD MOD PUSH2 0x1320 MSTORE DUP3 PUSH2 0x120 DUP3 ADD CALLDATALOAD MOD PUSH2 0x1300 MSTORE DUP3 PUSH2 0x140 DUP3 ADD CALLDATALOAD MOD PUSH2 0x1360 MSTORE DUP3 PUSH2 0x160 DUP3 ADD CALLDATALOAD MOD PUSH2 0x1340 MSTORE DUP3 PUSH2 0x180 DUP3 ADD CALLDATALOAD MOD PUSH2 0x13A0 MSTORE DUP3 PUSH2 0x1A0 DUP3 ADD CALLDATALOAD MOD PUSH2 0x1380 MSTORE DUP3 PUSH2 0x1C0 DUP3 ADD CALLDATALOAD MOD PUSH2 0x13E0 MSTORE DUP3 PUSH2 0x1E0 DUP3 ADD CALLDATALOAD MOD PUSH2 0x13C0 MSTORE DUP3 PUSH2 0x200 DUP3 ADD CALLDATALOAD MOD PUSH2 0x1420 MSTORE DUP3 PUSH2 0x220 DUP3 ADD CALLDATALOAD MOD PUSH2 0x1400 MSTORE DUP3 PUSH2 0x240 DUP3 ADD CALLDATALOAD MOD PUSH2 0x1460 MSTORE DUP3 PUSH2 0x260 DUP3 ADD CALLDATALOAD MOD PUSH2 0x1440 MSTORE DUP3 PUSH2 0x280 DUP3 ADD CALLDATALOAD MOD PUSH2 0x14A0 MSTORE DUP3 PUSH2 0x2A0 DUP3 ADD CALLDATALOAD MOD PUSH2 0x1480 MSTORE DUP2 PUSH2 0x2C0 DUP3 ADD CALLDATALOAD MOD PUSH2 0x1600 MSTORE DUP2 PUSH2 0x2E0 DUP3 ADD CALLDATALOAD MOD PUSH2 0x1620 MSTORE DUP2 PUSH2 0x300 DUP3 ADD CALLDATALOAD MOD PUSH2 0x1640 MSTORE DUP2 PUSH2 0x320 DUP3 ADD CALLDATALOAD MOD PUSH2 0x1660 MSTORE DUP2 PUSH2 0x340 DUP3 ADD CALLDATALOAD MOD PUSH2 0x1680 MSTORE DUP2 PUSH2 0x360 DUP3 ADD CALLDATALOAD MOD PUSH2 0x16A0 MSTORE DUP2 PUSH2 0x380 DUP3 ADD CALLDATALOAD MOD PUSH2 0x16C0 MSTORE DUP2 PUSH2 0x3A0 DUP3 ADD CALLDATALOAD MOD PUSH2 0x16E0 MSTORE DUP2 PUSH2 0x3C0 DUP3 ADD CALLDATALOAD MOD PUSH2 0x1700 MSTORE DUP2 PUSH2 0x3E0 DUP3 ADD CALLDATALOAD MOD PUSH2 0x1720 MSTORE DUP2 PUSH2 0x400 DUP3 ADD CALLDATALOAD MOD PUSH2 0x1740 MSTORE DUP2 PUSH2 0x420 DUP3 ADD CALLDATALOAD MOD PUSH2 0x1760 MSTORE DUP2 PUSH2 0x440 DUP3 ADD CALLDATALOAD MOD PUSH2 0x1780 MSTORE DUP2 PUSH2 0x460 DUP3 ADD CALLDATALOAD MOD PUSH2 0x17A0 MSTORE DUP2 PUSH2 0x480 DUP3 ADD CALLDATALOAD MOD PUSH2 0x17C0 MSTORE DUP2 PUSH2 0x4A0 DUP3 ADD CALLDATALOAD MOD PUSH2 0x17E0 MSTORE DUP2 PUSH2 0x4C0 DUP3 ADD CALLDATALOAD MOD PUSH2 0x1800 MSTORE DUP2 PUSH2 0x4E0 DUP3 ADD CALLDATALOAD MOD PUSH2 0x1960 MSTORE DUP2 PUSH2 0x500 DUP3 ADD CALLDATALOAD MOD PUSH2 0x1980 MSTORE DUP2 PUSH2 0x520 DUP3 ADD CALLDATALOAD MOD PUSH2 0x19A0 MSTORE DUP2 PUSH2 0x540 DUP3 ADD CALLDATALOAD MOD PUSH2 0x19C0 MSTORE DUP2 PUSH2 0x560 DUP3 ADD CALLDATALOAD MOD PUSH2 0x1840 MSTORE DUP2 PUSH2 0x580 DUP3 ADD CALLDATALOAD MOD PUSH2 0x1860 MSTORE DUP2 PUSH2 0x5A0 DUP3 ADD CALLDATALOAD MOD PUSH2 0x1880 MSTORE DUP2 PUSH2 0x5C0 DUP3 ADD CALLDATALOAD MOD PUSH2 0x18A0 MSTORE DUP2 PUSH2 0x5E0 DUP3 ADD CALLDATALOAD MOD PUSH2 0x18C0 MSTORE DUP2 PUSH2 0x600 DUP3 ADD CALLDATALOAD MOD PUSH2 0x18E0 MSTORE DUP2 PUSH2 0x620 DUP3 ADD CALLDATALOAD MOD PUSH2 0x1900 MSTORE DUP2 PUSH2 0x640 DUP3 ADD CALLDATALOAD MOD PUSH2 0x1920 MSTORE DUP2 PUSH2 0x660 DUP3 ADD CALLDATALOAD MOD PUSH2 0x1940 MSTORE DUP2 PUSH2 0x680 DUP3 ADD CALLDATALOAD MOD PUSH2 0x19E0 MSTORE DUP2 PUSH2 0x6A0 DUP3 ADD CALLDATALOAD MOD PUSH2 0x2000 MSTORE DUP2 PUSH2 0x6C0 DUP3 ADD CALLDATALOAD MOD PUSH2 0x2020 MSTORE DUP2 PUSH2 0x6E0 DUP3 ADD CALLDATALOAD MOD PUSH2 0x2040 MSTORE DUP2 PUSH2 0x700 DUP3 ADD CALLDATALOAD MOD PUSH2 0x2060 MSTORE DUP2 PUSH2 0x720 DUP3 ADD CALLDATALOAD MOD PUSH2 0x2080 MSTORE DUP2 PUSH2 0x740 DUP3 ADD CALLDATALOAD MOD PUSH2 0x20A0 MSTORE DUP2 PUSH2 0x760 DUP3 ADD CALLDATALOAD MOD PUSH2 0x20C0 MSTORE DUP2 PUSH2 0x780 DUP3 ADD CALLDATALOAD MOD PUSH2 0x20E0 MSTORE DUP2 PUSH2 0x7A0 DUP3 ADD CALLDATALOAD MOD PUSH2 0x2100 MSTORE DUP2 PUSH2 0x7C0 DUP3 ADD CALLDATALOAD MOD PUSH2 0x2120 MSTORE DUP3 PUSH2 0x7E0 DUP3 ADD CALLDATALOAD MOD PUSH2 0x2320 MSTORE DUP3 PUSH2 0x800 DUP3 ADD CALLDATALOAD MOD PUSH2 0x2300 MSTORE DUP3 PUSH2 0x820 DUP3 ADD CALLDATALOAD MOD PUSH2 0x2360 MSTORE DUP3 PUSH2 0x840 DUP3 ADD CALLDATALOAD MOD PUSH2 0x2340 MSTORE POP PUSH2 0x9C0 MLOAD ISZERO PUSH2 0xD1A JUMPI PUSH1 0x24 DUP1 CALLDATALOAD ADD DUP1 PUSH2 0x9E0 MLOAD PUSH1 0x5 SHL ADD SWAP1 POP DUP1 CALLDATALOAD PUSH1 0x20 DUP3 ADD CALLDATALOAD PUSH1 0x44 SHL DUP2 ADD SWAP1 POP PUSH1 0x40 DUP3 ADD CALLDATALOAD PUSH1 0x88 SHL DUP2 ADD SWAP1 POP PUSH1 0x60 DUP3 ADD CALLDATALOAD PUSH1 0xCC SHL DUP2 ADD SWAP1 POP PUSH1 0x80 DUP3 ADD CALLDATALOAD PUSH1 0xA0 DUP4 ADD CALLDATALOAD PUSH1 0x44 SHL DUP2 ADD SWAP1 POP PUSH1 0xC0 DUP4 ADD CALLDATALOAD PUSH1 0x88 SHL DUP2 ADD SWAP1 POP PUSH1 0xE0 DUP4 ADD CALLDATALOAD PUSH1 0xCC SHL DUP2 ADD SWAP1 POP PUSH2 0x100 DUP4 ADD CALLDATALOAD PUSH2 0x120 DUP5 ADD CALLDATALOAD PUSH1 0x44 SHL DUP2 ADD SWAP1 POP PUSH2 0x140 DUP5 ADD CALLDATALOAD PUSH1 0x88 SHL DUP2 ADD SWAP1 POP PUSH2 0x160 DUP5 ADD CALLDATALOAD PUSH1 0xCC SHL DUP2 ADD SWAP1 POP PUSH2 0x180 DUP5 ADD CALLDATALOAD PUSH2 0x1A0 DUP6 ADD CALLDATALOAD PUSH1 0x44 SHL DUP2 ADD SWAP1 POP PUSH2 0x1C0 DUP6 ADD CALLDATALOAD PUSH1 0x88 SHL DUP2 ADD SWAP1 POP PUSH2 0x1E0 DUP6 ADD CALLDATALOAD PUSH1 0xCC SHL DUP2 ADD SWAP1 POP DUP4 PUSH2 0x3400 MSTORE DUP3 PUSH2 0x3420 MSTORE DUP2 PUSH2 0x3440 MSTORE DUP1 PUSH2 0x3460 MSTORE DUP7 DUP2 LT DUP8 DUP5 LT AND DUP8 DUP4 LT DUP9 DUP7 LT AND AND PUSH2 0xD14 JUMPI PUSH32 0xEBA9F4A600000000000000000000000000000000000000000000000000000000 PUSH1 0x0 MSTORE PUSH1 0x4 PUSH1 0x0 REVERT JUMPDEST POP POP POP POP POP JUMPDEST PUSH2 0x380 MLOAD PUSH1 0xE0 SHL PUSH1 0x0 MSTORE PUSH2 0x3A0 MLOAD PUSH1 0xE0 SHL PUSH1 0x4 MSTORE PUSH1 0x8 PUSH1 0x0 KECCAK256 DUP1 PUSH2 0x3480 MSTORE PUSH1 0x24 DUP1 CALLDATALOAD ADD PUSH1 0x20 PUSH2 0x3A0 MLOAD MUL DUP1 DUP3 PUSH1 0x20 PUSH2 0x3480 ADD CALLDATACOPY PUSH1 0x4 CALLDATALOAD PUSH1 0x24 ADD SWAP2 POP PUSH1 0xC0 DUP3 PUSH2 0x34A0 DUP4 ADD CALLDATACOPY PUSH1 0xE0 ADD PUSH2 0x3480 KECCAK256 DUP4 DUP2 MOD PUSH2 0x2660 DUP2 SWAP1 MSTORE SWAP1 SWAP3 POP SWAP1 POP DUP3 DUP2 DUP1 MULMOD PUSH2 0x2680 MSTORE DUP3 DUP2 PUSH2 0x2680 MLOAD MULMOD PUSH2 0x26A0 MSTORE POP DUP1 PUSH1 0x0 MSTORE PUSH2 0x12E0 MLOAD PUSH1 0x20 MSTORE PUSH2 0x12C0 MLOAD PUSH1 0x40 MSTORE PUSH2 0x1320 MLOAD PUSH1 0x60 MSTORE PUSH2 0x1300 MLOAD PUSH1 0x80 MSTORE PUSH1 0xA0 PUSH1 0x0 KECCAK256 SWAP1 POP DUP2 DUP2 MOD PUSH2 0x2600 MSTORE DUP1 PUSH1 0x0 MSTORE PUSH1 0x1 PUSH1 0x20 MSTORE8 POP PUSH1 0x21 PUSH1 0x0 SWAP1 DUP2 KECCAK256 DUP3 DUP2 MOD PUSH2 0x2620 MSTORE DUP2 MSTORE PUSH2 0x1360 MLOAD PUSH1 0x20 MSTORE PUSH2 0x1340 MLOAD PUSH1 0x40 MSTORE PUSH2 0x13A0 MLOAD PUSH1 0x60 MSTORE PUSH2 0x1380 MLOAD PUSH1 0x80 MSTORE PUSH1 0xA0 SWAP1 KECCAK256 DUP2 DUP2 MOD PUSH2 0x2640 DUP2 SWAP1 MSTORE DUP3 DUP2 DUP1 MULMOD PUSH2 0x3320 MSTORE DUP3 DUP2 PUSH2 0x3320 MLOAD MULMOD PUSH2 0x3340 MSTORE DUP3 DUP2 PUSH2 0x3340 MLOAD MULMOD PUSH2 0x3360 MSTORE DUP1 PUSH2 0x3380 MSTORE POP DUP1 PUSH1 0x0 MSTORE PUSH2 0x13E0 MLOAD PUSH1 0x20 MSTORE PUSH2 0x13C0 MLOAD PUSH1 0x40 MSTORE PUSH2 0x1420 MLOAD PUSH1 0x60 MSTORE PUSH2 0x1400 MLOAD PUSH1 0x80 MSTORE PUSH2 0x1460 MLOAD PUSH1 0xA0 MSTORE PUSH2 0x1440 MLOAD PUSH1 0xC0 MSTORE PUSH2 0x14A0 MLOAD PUSH1 0xE0 MSTORE PUSH2 0x1480 MLOAD PUSH2 0x100 MSTORE PUSH2 0x120 PUSH1 0x0 KECCAK256 SWAP1 POP DUP2 DUP2 MOD PUSH2 0x26C0 MSTORE DUP1 PUSH2 0x26E0 MSTORE POP PUSH2 0x2600 MLOAD PUSH2 0x2620 MLOAD PUSH2 0x3C0 MLOAD PUSH1 0x1 DUP1 DUP6 PUSH1 0x1 PUSH1 0x24 DUP1 CALLDATALOAD ADD PUSH1 0x20 PUSH2 0x3A0 MLOAD MUL DUP2 ADD DUP4 PUSH1 0x5 DUP11 MULMOD DUP5 PUSH1 0xC DUP12 MULMOD SWAP10 POP JUMPDEST DUP2 DUP4 LT ISZERO PUSH2 0xEDA JUMPI DUP3 CALLDATALOAD DUP6 DUP2 LT DUP6 AND SWAP5 POP DUP6 DUP11 DUP3 ADDMOD SWAP1 POP DUP6 DUP2 DUP4 ADD DUP10 MULMOD SWAP8 POP DUP6 DUP2 DUP13 ADD DUP9 MULMOD SWAP7 POP POP DUP5 DUP9 DUP3 MULMOD SWAP1 POP DUP5 DUP9 DUP12 MULMOD SWAP10 POP PUSH1 0x20 DUP4 ADD SWAP3 POP PUSH2 0xE9B JUMP JUMPDEST POP POP POP DUP1 PUSH2 0xF0C JUMPI PUSH32 0x374A972F00000000000000000000000000000000000000000000000000000000 PUSH1 0x0 MSTORE PUSH1 0x4 PUSH1 0x0 REVERT JUMPDEST POP POP DUP2 PUSH2 0x3000 MSTORE DUP1 PUSH2 0x3020 MSTORE POP POP POP POP POP DUP1 DUP2 PUSH1 0x1 PUSH2 0x2600 MLOAD ADDMOD PUSH2 0x2620 MLOAD MULMOD DUP1 PUSH2 0x380 MLOAD PUSH1 0x1 JUMPDEST DUP2 DUP2 LT ISZERO PUSH2 0xF48 JUMPI DUP5 DUP4 DUP5 MULMOD SWAP3 POP DUP1 ADD PUSH2 0xF33 JUMP JUMPDEST POP POP PUSH2 0x3100 MSTORE DUP2 DUP2 DUP1 MULMOD SWAP1 POP DUP2 DUP2 DUP3 MULMOD PUSH2 0x3120 MSTORE POP PUSH2 0x26C0 MLOAD PUSH2 0x380 MLOAD DUP2 SWAP1 PUSH1 0x1 JUMPDEST DUP2 DUP2 LT ISZERO PUSH2 0xF7F JUMPI DUP5 DUP4 DUP5 MULMOD SWAP3 POP DUP1 ADD PUSH2 0xF6A JUMP JUMPDEST POP POP DUP1 PUSH2 0x3040 MSTORE DUP3 PUSH1 0x1 DUP5 SUB DUP3 ADDMOD SWAP1 POP PUSH2 0x3300 MLOAD DUP1 DUP5 SUB PUSH2 0x3E0 MLOAD DUP6 DUP3 DUP7 ADDMOD DUP7 DUP5 DUP5 MULMOD SWAP3 POP DUP7 DUP8 DUP5 DUP9 ADDMOD DUP3 MULMOD SWAP1 POP DUP7 DUP5 DUP5 MULMOD SWAP3 POP DUP7 DUP8 DUP5 DUP9 ADDMOD DUP3 MULMOD SWAP1 POP DUP7 DUP8 DUP9 DUP7 DUP7 MULMOD DUP9 ADDMOD DUP3 MULMOD SWAP1 POP PUSH2 0x3C0 MLOAD SWAP3 POP DUP7 DUP3 DUP7 MULMOD SWAP2 POP DUP7 PUSH1 0x1 DUP9 SUB DUP8 ADDMOD DUP8 DUP5 DUP6 MULMOD SWAP5 POP DUP8 PUSH1 0x1 DUP10 SUB DUP10 DUP10 DUP12 DUP9 DUP14 DUP12 DUP13 MULMOD MULMOD MULMOD ADDMOD SWAP7 POP PUSH2 0x3020 MLOAD SWAP5 POP DUP5 SWAP4 POP DUP8 DUP3 DUP7 MULMOD SWAP5 POP DUP5 DUP9 DUP8 DUP8 MULMOD SWAP6 POP DUP6 DUP10 DUP4 DUP9 MULMOD SWAP7 POP DUP7 DUP11 PUSH2 0x3120 MLOAD DUP10 MULMOD SWAP8 POP DUP8 PUSH1 0x20 PUSH1 0x0 MSTORE PUSH1 0x20 DUP1 MSTORE PUSH1 0x20 PUSH1 0x40 MSTORE DUP12 DUP12 DUP11 MULMOD PUSH1 0x60 MSTORE PUSH1 0x2 DUP13 SUB PUSH1 0x80 MSTORE DUP12 PUSH1 0xA0 MSTORE PUSH1 0x20 PUSH1 0x0 PUSH1 0xC0 PUSH1 0x0 PUSH1 0x5 GAS STATICCALL PUSH2 0x1075 JUMPI PUSH32 0xF894A7BC00000000000000000000000000000000000000000000000000000000 PUSH1 0x0 MSTORE PUSH1 0x4 PUSH1 0x0 REVERT JUMPDEST PUSH1 0x0 MLOAD SWAP9 POP DUP12 DUP2 DUP11 MULMOD SWAP1 POP DUP12 DUP12 DUP11 MULMOD SWAP9 POP DUP12 DUP3 DUP11 MULMOD SWAP2 POP DUP12 PUSH2 0x3120 MLOAD DUP11 MULMOD SWAP9 POP DUP12 DUP4 DUP11 MULMOD SWAP3 POP DUP12 DUP6 DUP11 MULMOD SWAP9 POP DUP12 DUP5 DUP11 MULMOD SWAP4 POP DUP12 DUP11 DUP11 MULMOD SWAP9 POP DUP12 DUP9 DUP11 MULMOD SWAP8 POP DUP12 DUP7 DUP11 MULMOD SWAP9 POP DUP12 PUSH2 0x3020 MLOAD DUP14 DUP12 DUP13 MULMOD MULMOD SWAP9 POP DUP12 DUP10 PUSH2 0x3000 MLOAD MULMOD PUSH2 0x3060 MSTORE DUP12 DUP9 DUP12 MULMOD PUSH2 0x3080 MSTORE DUP12 DUP5 DUP8 MULMOD PUSH2 0x3680 MSTORE DUP12 DUP4 DUP9 MULMOD PUSH2 0x30A0 MSTORE DUP12 DUP3 PUSH2 0x3100 MLOAD MULMOD PUSH2 0x3140 MSTORE DUP12 DUP2 DUP9 MULMOD PUSH2 0x30C0 MSTORE POP POP POP POP POP POP POP POP POP POP POP PUSH2 0x2640 MLOAD POP PUSH2 0x2600 MLOAD PUSH2 0x2620 MLOAD DUP3 DUP4 PUSH2 0x1900 MLOAD DUP5 MULMOD DUP3 PUSH2 0x1620 MLOAD ADD ADD DUP5 PUSH2 0x18E0 MLOAD DUP6 MULMOD DUP4 PUSH2 0x1600 MLOAD ADD ADD MULMOD DUP4 DUP5 PUSH2 0x1940 MLOAD DUP6 MULMOD DUP4 PUSH2 0x1660 MLOAD ADD ADD DUP6 PUSH2 0x1920 MLOAD DUP7 MULMOD DUP5 PUSH2 0x1640 MLOAD ADD ADD MULMOD DUP5 DUP6 DUP7 DUP4 DUP6 MULMOD PUSH2 0x16A0 MLOAD MULMOD PUSH2 0x3380 MLOAD MULMOD DUP6 DUP7 PUSH2 0x1980 MLOAD DUP8 MULMOD DUP6 PUSH2 0x1620 MLOAD ADD ADD DUP8 PUSH2 0x1960 MLOAD DUP9 MULMOD DUP7 PUSH2 0x1600 MLOAD ADD ADD MULMOD SWAP3 POP DUP6 DUP7 PUSH2 0x19C0 MLOAD DUP8 MULMOD DUP6 PUSH2 0x1660 MLOAD ADD ADD DUP8 PUSH2 0x19A0 MLOAD DUP9 MULMOD DUP7 PUSH2 0x1640 MLOAD ADD ADD MULMOD SWAP2 POP DUP6 DUP7 DUP8 DUP9 DUP6 DUP8 MULMOD PUSH2 0x2080 MLOAD MULMOD PUSH2 0x3380 MLOAD MULMOD DUP8 SUB DUP3 ADDMOD SWAP1 POP DUP6 PUSH2 0x2640 MLOAD PUSH2 0x3380 MLOAD MULMOD PUSH2 0x3380 MSTORE DUP6 DUP7 DUP8 DUP9 PUSH2 0x3060 MLOAD DUP11 SUB PUSH2 0x2080 MLOAD ADDMOD PUSH2 0x30C0 MLOAD MULMOD PUSH2 0x3380 MLOAD MULMOD DUP3 ADDMOD SWAP1 POP DUP6 PUSH2 0x2640 MLOAD PUSH2 0x3380 MLOAD MULMOD PUSH2 0x3380 MSTORE DUP6 DUP7 DUP8 DUP9 PUSH1 0x1 DUP11 SUB PUSH2 0x16A0 MLOAD ADDMOD PUSH2 0x30A0 MLOAD MULMOD PUSH2 0x3380 MLOAD MULMOD DUP3 ADDMOD PUSH2 0x3500 MSTORE POP POP POP POP POP DUP1 PUSH2 0x2640 MLOAD PUSH2 0x3380 MLOAD MULMOD PUSH2 0x3380 MSTORE DUP1 PUSH2 0x1720 MLOAD PUSH2 0x2660 MLOAD MULMOD DUP2 DUP3 DUP4 PUSH2 0x2020 MLOAD PUSH2 0x1780 MLOAD MULMOD PUSH2 0x1640 MLOAD ADDMOD DUP3 ADDMOD SWAP1 POP DUP2 PUSH2 0x2660 MLOAD DUP3 MULMOD SWAP1 POP DUP2 DUP3 DUP4 PUSH2 0x2000 MLOAD PUSH2 0x1760 MLOAD MULMOD PUSH2 0x1620 MLOAD ADDMOD DUP3 ADDMOD SWAP1 POP DUP2 PUSH2 0x2660 MLOAD DUP3 MULMOD SWAP1 POP DUP2 DUP3 DUP4 PUSH2 0x19E0 MLOAD PUSH2 0x1700 MLOAD MULMOD PUSH2 0x1600 MLOAD ADDMOD DUP3 ADDMOD SWAP1 POP DUP2 PUSH2 0x1840 MLOAD DUP4 DUP5 PUSH2 0x2660 MLOAD PUSH2 0x1860 MLOAD MULMOD DUP6 DUP7 PUSH2 0x2680 MLOAD PUSH2 0x1880 MLOAD MULMOD DUP8 PUSH2 0x26A0 MLOAD PUSH2 0x18A0 MLOAD MULMOD ADDMOD ADDMOD ADDMOD DUP3 PUSH2 0x20C0 MLOAD DUP5 DUP6 PUSH2 0x2660 MLOAD PUSH2 0x20E0 MLOAD MULMOD DUP7 DUP8 PUSH2 0x2680 MLOAD PUSH2 0x2100 MLOAD MULMOD DUP9 PUSH2 0x26A0 MLOAD PUSH2 0x2120 MLOAD MULMOD ADDMOD ADDMOD ADDMOD DUP4 DUP5 PUSH1 0x1 PUSH2 0x2600 MLOAD ADDMOD PUSH2 0x2620 MLOAD MULMOD DUP5 PUSH2 0x2620 MLOAD DUP7 PUSH2 0x18C0 MLOAD DUP8 MULMOD ADDMOD SWAP4 POP DUP5 DUP2 DUP7 DUP8 PUSH2 0x2600 MLOAD DUP7 MULMOD DUP7 ADDMOD ADDMOD SWAP3 POP DUP5 DUP4 DUP6 MULMOD SWAP4 POP DUP5 DUP6 PUSH1 0x1 PUSH2 0x2600 MLOAD ADDMOD DUP6 MULMOD SWAP4 POP DUP5 PUSH2 0x30A0 MLOAD PUSH2 0x2640 MLOAD MULMOD SWAP3 POP DUP5 DUP4 DUP6 ADDMOD SWAP4 POP DUP5 PUSH2 0x16C0 MLOAD DUP6 MULMOD SWAP4 POP DUP5 DUP4 DUP7 SUB DUP6 ADDMOD SWAP4 POP DUP5 DUP2 DUP7 DUP8 PUSH2 0x2600 MLOAD PUSH2 0x2060 MLOAD MULMOD PUSH2 0x1680 MLOAD ADDMOD ADDMOD SWAP3 POP POP POP DUP3 PUSH2 0x30C0 MLOAD PUSH2 0x3320 MLOAD MULMOD DUP4 DUP2 DUP6 SUB DUP4 ADDMOD SWAP2 POP DUP4 PUSH2 0x20A0 MLOAD DUP4 MULMOD SWAP2 POP DUP4 DUP5 PUSH2 0x3140 MLOAD DUP4 MULMOD DUP4 ADDMOD SWAP2 POP POP DUP3 PUSH2 0x3380 MLOAD DUP5 DUP4 DUP7 SUB DUP6 ADDMOD MULMOD PUSH2 0x3520 MSTORE POP POP DUP1 PUSH2 0x3340 MLOAD PUSH2 0x3380 MLOAD MULMOD PUSH2 0x3380 MSTORE DUP1 PUSH2 0x16E0 MLOAD PUSH2 0x1600 MLOAD MULMOD DUP2 PUSH2 0x1700 MLOAD PUSH2 0x1620 MLOAD MULMOD DUP3 PUSH2 0x1720 MLOAD PUSH2 0x1640 MLOAD MULMOD DUP4 PUSH2 0x1740 MLOAD PUSH2 0x1660 MLOAD MULMOD DUP5 PUSH32 0x183227397098D014DC2822DB40C0AC2E9419F4243CDCB848A1F0FAC9F8000000 DUP7 DUP8 PUSH1 0x3 DUP10 SUB PUSH2 0x17A0 MLOAD ADDMOD DUP9 PUSH2 0x1760 MLOAD DUP11 PUSH2 0x1620 MLOAD PUSH2 0x1600 MLOAD MULMOD MULMOD MULMOD MULMOD DUP6 DUP7 DUP8 DUP9 DUP10 DUP6 DUP11 ADDMOD DUP9 ADDMOD DUP7 ADDMOD DUP5 ADDMOD PUSH2 0x1780 MLOAD ADDMOD SWAP5 POP POP POP POP POP DUP2 DUP3 DUP4 DUP5 DUP6 PUSH2 0x1660 MLOAD PUSH2 0x1600 MLOAD ADDMOD PUSH2 0x19E0 MLOAD DUP8 SUB ADDMOD PUSH2 0x1760 MLOAD ADDMOD DUP5 PUSH1 0x2 DUP7 SUB PUSH2 0x17A0 MLOAD ADDMOD MULMOD PUSH2 0x2640 MLOAD MULMOD DUP3 DUP4 DUP5 DUP6 DUP7 DUP6 PUSH2 0x2040 MLOAD ADDMOD DUP8 PUSH1 0x1 DUP10 SUB PUSH2 0x17A0 MLOAD ADDMOD MULMOD DUP6 ADDMOD PUSH2 0x17A0 MLOAD MULMOD PUSH2 0x3380 MLOAD MULMOD PUSH2 0x3540 MSTORE POP POP DUP1 PUSH2 0x3320 MLOAD PUSH2 0x3380 MLOAD MULMOD PUSH2 0x3380 MSTORE PUSH1 0x2 DUP2 SUB PUSH1 0x3 DUP3 SUB DUP3 PUSH2 0x1600 MLOAD DUP5 SUB PUSH2 0x1620 MLOAD ADDMOD DUP4 PUSH2 0x1620 MLOAD DUP6 SUB PUSH2 0x1640 MLOAD ADDMOD DUP5 PUSH2 0x1640 MLOAD DUP7 SUB PUSH2 0x1660 MLOAD ADDMOD DUP6 PUSH2 0x1660 MLOAD DUP8 SUB PUSH2 0x19E0 MLOAD ADDMOD DUP7 PUSH2 0x3380 MLOAD DUP9 DUP10 DUP9 DUP9 ADDMOD DUP11 DUP12 DUP12 DUP11 ADDMOD DUP13 DUP11 DUP15 SUB DUP15 DUP13 DUP14 MULMOD ADDMOD MULMOD MULMOD MULMOD SWAP4 POP DUP7 DUP8 DUP9 PUSH2 0x2640 MLOAD PUSH2 0x3380 MLOAD MULMOD DUP10 DUP11 DUP10 DUP9 ADDMOD DUP12 DUP13 DUP13 DUP11 ADDMOD DUP14 DUP11 DUP16 SUB DUP16 DUP13 DUP14 MULMOD ADDMOD MULMOD MULMOD MULMOD DUP6 ADDMOD SWAP4 POP DUP7 DUP8 DUP9 PUSH2 0x3320 MLOAD PUSH2 0x3380 MLOAD MULMOD DUP10 DUP11 DUP10 DUP8 ADDMOD DUP12 DUP13 DUP13 DUP10 ADDMOD DUP14 DUP10 DUP16 SUB DUP16 DUP12 DUP13 MULMOD ADDMOD MULMOD MULMOD MULMOD DUP6 ADDMOD SWAP4 POP DUP7 DUP8 DUP9 PUSH2 0x3340 MLOAD PUSH2 0x3380 MLOAD MULMOD DUP10 DUP11 DUP10 DUP7 ADDMOD DUP12 DUP13 DUP13 DUP9 ADDMOD DUP14 DUP9 DUP16 SUB DUP16 DUP11 DUP12 MULMOD ADDMOD MULMOD MULMOD MULMOD DUP6 ADDMOD SWAP4 POP POP POP POP DUP4 PUSH2 0x17C0 MLOAD DUP3 MULMOD PUSH2 0x3560 MSTORE POP POP PUSH2 0x3360 MLOAD PUSH2 0x3380 MLOAD DUP4 SWAP3 POP MULMOD PUSH2 0x3380 MSTORE DUP1 PUSH2 0x1620 MLOAD DUP3 SUB PUSH2 0x19E0 MLOAD ADDMOD DUP2 PUSH2 0x2040 MLOAD PUSH2 0x2040 MLOAD MULMOD DUP3 PUSH2 0x1640 MLOAD PUSH2 0x1640 MLOAD MULMOD DUP4 PUSH2 0x16E0 MLOAD DUP6 PUSH2 0x2040 MLOAD PUSH2 0x1640 MLOAD MULMOD MULMOD DUP5 DUP6 DUP7 DUP4 DUP5 ADDMOD DUP8 DUP6 DUP8 ADDMOD DUP9 SUB ADDMOD DUP7 DUP8 DUP8 DUP9 MULMOD DUP9 DUP10 PUSH2 0x1620 MLOAD PUSH2 0x19E0 MLOAD ADDMOD PUSH2 0x2000 MLOAD ADDMOD MULMOD ADDMOD SWAP3 POP POP POP DUP3 PUSH2 0x3380 MLOAD DUP5 DUP6 PUSH2 0x1760 MLOAD DUP8 SUB PUSH1 0x1 ADDMOD DUP5 MULMOD MULMOD SWAP1 POP DUP3 PUSH2 0x2020 MLOAD PUSH2 0x1640 MLOAD ADDMOD DUP4 PUSH2 0x1640 MLOAD DUP6 SUB DUP6 PUSH2 0x16E0 MLOAD PUSH2 0x2040 MLOAD MULMOD ADDMOD DUP5 DUP6 DUP3 DUP8 PUSH2 0x1620 MLOAD DUP10 SUB PUSH2 0x2000 MLOAD ADDMOD MULMOD DUP7 DUP7 DUP6 MULMOD ADDMOD SWAP4 POP POP POP DUP3 DUP4 PUSH2 0x2640 MLOAD PUSH2 0x3380 MLOAD MULMOD DUP5 DUP6 PUSH2 0x1760 MLOAD DUP8 SUB PUSH1 0x1 ADDMOD DUP6 MULMOD MULMOD SWAP2 POP DUP3 PUSH2 0x17E0 MLOAD DUP5 DUP5 DUP5 ADDMOD MULMOD PUSH2 0x3580 MSTORE POP POP DUP1 PUSH2 0x1620 MLOAD PUSH2 0x1620 MLOAD MULMOD DUP2 PUSH2 0x1640 MLOAD PUSH2 0x1640 MLOAD MULMOD DUP3 PUSH2 0x1620 MLOAD DUP5 PUSH1 0x11 DUP5 ADDMOD MULMOD DUP4 PUSH1 0x4 DUP4 MULMOD SWAP2 POP DUP4 PUSH1 0x9 DUP3 MULMOD SWAP1 POP DUP4 PUSH1 0x3 DUP5 MULMOD SWAP3 POP DUP4 DUP2 DUP6 SUB DUP6 DUP5 DUP8 DUP9 PUSH2 0x1620 MLOAD PUSH2 0x1620 MLOAD ADDMOD PUSH2 0x2000 MLOAD ADDMOD MULMOD ADDMOD SWAP2 POP POP DUP3 DUP4 DUP5 PUSH2 0x2020 MLOAD PUSH2 0x1640 MLOAD ADDMOD DUP6 PUSH2 0x1640 MLOAD PUSH2 0x1640 MLOAD ADDMOD MULMOD DUP5 SUB DUP5 DUP6 PUSH2 0x2000 MLOAD DUP8 SUB PUSH2 0x1620 MLOAD ADDMOD DUP6 MULMOD ADDMOD SWAP2 POP DUP3 PUSH2 0x3380 MLOAD DUP3 MULMOD SWAP1 POP DUP3 DUP4 PUSH2 0x2640 MLOAD PUSH2 0x3380 MLOAD MULMOD DUP4 MULMOD SWAP2 POP DUP3 PUSH2 0x1760 MLOAD DUP3 MULMOD SWAP1 POP DUP3 PUSH2 0x1760 MLOAD DUP4 MULMOD SWAP2 POP DUP3 DUP4 PUSH2 0x17E0 MLOAD DUP6 DUP6 DUP6 ADDMOD MULMOD PUSH2 0x3580 MLOAD ADDMOD PUSH2 0x3580 MSTORE POP POP DUP1 PUSH2 0x3360 MLOAD PUSH2 0x3380 MLOAD MULMOD PUSH2 0x3380 MSTORE DUP1 DUP2 PUSH2 0x1620 MLOAD PUSH2 0x19E0 MLOAD MULMOD DUP3 PUSH2 0x2000 MLOAD PUSH2 0x1600 MLOAD MULMOD ADDMOD DUP2 PUSH2 0x2020 MLOAD DUP4 SUB DUP4 DUP5 PUSH2 0x1640 MLOAD PUSH2 0x1620 MLOAD MULMOD DUP6 PUSH2 0x1660 MLOAD PUSH2 0x1600 MLOAD MULMOD ADDMOD ADDMOD DUP3 PUSH9 0x100000000000000000 DUP3 MULMOD SWAP1 POP DUP3 PUSH2 0x2040 MLOAD DUP5 SUB DUP3 ADDMOD SWAP1 POP DUP3 DUP3 DUP3 ADDMOD SWAP1 POP DUP3 PUSH2 0x1740 MLOAD DUP3 MULMOD SWAP1 POP DUP3 PUSH9 0x100000000000000000 DUP4 MULMOD SWAP2 POP DUP3 DUP4 PUSH2 0x2000 MLOAD PUSH2 0x19E0 MLOAD MULMOD DUP4 ADDMOD SWAP2 POP DUP3 PUSH2 0x1720 MLOAD DUP5 DUP6 PUSH2 0x1660 MLOAD PUSH2 0x1640 MLOAD ADDMOD DUP7 SUB DUP6 ADDMOD MULMOD DUP4 PUSH2 0x1760 MLOAD DUP6 DUP7 PUSH2 0x2040 MLOAD PUSH2 0x2020 MLOAD ADDMOD DUP8 SUB DUP8 PUSH2 0x1660 MLOAD DUP9 ADDMOD ADDMOD MULMOD SWAP3 POP DUP4 PUSH2 0x1700 MLOAD DUP6 DUP6 DUP8 DUP7 DUP7 ADDMOD ADDMOD MULMOD PUSH2 0x35C0 MSTORE POP POP PUSH2 0x2000 MLOAD DUP3 SWAP2 POP PUSH2 0x4000 SWAP1 MULMOD DUP2 PUSH2 0x19E0 MLOAD DUP3 ADDMOD SWAP1 POP DUP2 PUSH2 0x4000 DUP3 MULMOD SWAP1 POP DUP2 PUSH2 0x1640 MLOAD DUP3 ADDMOD SWAP1 POP DUP2 PUSH2 0x4000 DUP3 MULMOD SWAP1 POP DUP2 PUSH2 0x1620 MLOAD DUP3 ADDMOD SWAP1 POP DUP2 PUSH2 0x4000 DUP3 MULMOD SWAP1 POP DUP2 PUSH2 0x1600 MLOAD DUP3 ADDMOD SWAP1 POP DUP2 PUSH2 0x1660 MLOAD DUP4 SUB DUP3 ADDMOD SWAP1 POP DUP2 PUSH2 0x1740 MLOAD DUP3 MULMOD SWAP1 POP DUP2 PUSH2 0x4000 PUSH2 0x2020 MLOAD MULMOD DUP3 PUSH2 0x2000 MLOAD DUP3 ADDMOD SWAP1 POP DUP3 PUSH2 0x4000 DUP3 MULMOD SWAP1 POP DUP3 PUSH2 0x19E0 MLOAD DUP3 ADDMOD SWAP1 POP DUP3 PUSH2 0x4000 DUP3 MULMOD SWAP1 POP DUP3 PUSH2 0x1660 MLOAD DUP3 ADDMOD SWAP1 POP DUP3 PUSH2 0x4000 DUP3 MULMOD SWAP1 POP DUP3 PUSH2 0x1640 MLOAD DUP3 ADDMOD SWAP1 POP DUP3 PUSH2 0x2040 MLOAD DUP5 SUB DUP3 ADDMOD SWAP1 POP DUP3 PUSH2 0x1760 MLOAD DUP3 MULMOD SWAP1 POP DUP3 PUSH2 0x1720 MLOAD DUP5 DUP4 DUP6 ADDMOD MULMOD PUSH2 0x35E0 MSTORE POP POP DUP1 PUSH2 0x2660 MLOAD PUSH2 0x1640 MLOAD MULMOD DUP2 PUSH2 0x1620 MLOAD DUP3 ADDMOD SWAP1 POP DUP2 PUSH2 0x2660 MLOAD DUP3 MULMOD SWAP1 POP DUP2 PUSH2 0x1600 MLOAD DUP3 ADDMOD SWAP1 POP DUP2 PUSH2 0x2660 MLOAD DUP3 MULMOD SWAP1 POP DUP2 PUSH2 0x1780 MLOAD DUP3 ADDMOD SWAP1 POP DUP1 DUP3 PUSH2 0x1660 MLOAD DUP5 SUB DUP4 ADDMOD SWAP2 POP DUP2 PUSH2 0x3640 MSTORE DUP3 PUSH2 0x1600 MLOAD DUP5 SUB PUSH2 0x19E0 MLOAD ADDMOD DUP4 PUSH2 0x1660 MLOAD DUP6 SUB PUSH2 0x2040 MLOAD ADDMOD DUP5 DUP6 PUSH1 0x1 DUP8 SUB DUP5 ADDMOD DUP4 MULMOD DUP6 DUP7 DUP5 DUP9 SUB PUSH1 0x1 ADDMOD DUP4 MULMOD SWAP2 POP DUP6 DUP6 DUP8 PUSH2 0x2640 MLOAD DUP10 DUP6 DUP12 PUSH2 0x2640 MLOAD DUP10 MULMOD ADDMOD MULMOD ADDMOD PUSH2 0x3620 MSTORE DUP6 PUSH2 0x2660 MLOAD PUSH2 0x2020 MLOAD MULMOD SWAP5 POP DUP6 PUSH2 0x2000 MLOAD DUP7 ADDMOD SWAP5 POP DUP6 PUSH2 0x2660 MLOAD DUP7 MULMOD SWAP5 POP DUP6 PUSH2 0x19E0 MLOAD DUP7 ADDMOD SWAP5 POP DUP6 PUSH2 0x2660 MLOAD DUP7 MULMOD SWAP5 POP DUP6 DUP6 DUP8 SUB PUSH2 0x2040 MLOAD ADDMOD SWAP5 POP DUP6 PUSH2 0x1640 MLOAD DUP8 SUB PUSH2 0x2020 MLOAD ADDMOD SWAP2 POP DUP6 DUP7 DUP8 DUP8 DUP10 SUB PUSH1 0x1 ADDMOD DUP5 MULMOD DUP8 DUP6 DUP10 SUB PUSH1 0x1 ADDMOD MULMOD SWAP2 POP DUP6 DUP5 DUP8 SUB PUSH2 0x1660 MLOAD ADDMOD DUP7 DUP8 PUSH1 0x1 DUP10 SUB DUP4 ADDMOD DUP3 MULMOD SWAP1 POP DUP7 DUP8 PUSH1 0x1 DUP10 SUB DUP9 ADDMOD DUP8 MULMOD SWAP6 POP DUP7 PUSH2 0x2640 MLOAD DUP5 MULMOD SWAP3 POP DUP7 DUP3 DUP5 ADDMOD SWAP3 POP DUP7 PUSH2 0x2640 MLOAD DUP5 MULMOD SWAP3 POP DUP7 DUP7 DUP5 ADDMOD SWAP3 POP DUP7 PUSH2 0x2640 MLOAD DUP5 MULMOD SWAP3 POP DUP7 DUP2 DUP5 ADDMOD SWAP3 POP POP DUP2 PUSH2 0x3600 MSTORE POP POP DUP4 PUSH2 0x1620 MLOAD DUP6 SUB PUSH2 0x2000 MLOAD ADDMOD SWAP3 POP DUP4 PUSH2 0x1640 MLOAD DUP6 SUB DUP6 DUP7 DUP5 DUP9 SUB PUSH1 0x1 ADDMOD DUP7 MULMOD ADDMOD SWAP3 POP DUP4 PUSH2 0x1700 MLOAD PUSH2 0x3620 MLOAD MULMOD SWAP2 POP DUP4 DUP5 PUSH2 0x1740 MLOAD DUP6 MULMOD DUP4 ADDMOD SWAP2 POP DUP4 DUP5 PUSH2 0x1760 MLOAD PUSH2 0x3640 MLOAD MULMOD DUP4 ADDMOD SWAP2 POP DUP4 PUSH2 0x16E0 MLOAD DUP4 MULMOD SWAP2 POP DUP4 DUP5 PUSH2 0x17A0 MLOAD PUSH2 0x3600 MLOAD MULMOD DUP4 ADDMOD SWAP2 POP DUP4 PUSH2 0x35C0 MLOAD DUP4 ADDMOD SWAP3 POP DUP4 PUSH2 0x35E0 MLOAD DUP5 ADDMOD SWAP3 POP DUP4 PUSH2 0x1800 MLOAD DUP5 MULMOD SWAP3 POP DUP4 PUSH2 0x3380 MLOAD DUP5 MULMOD SWAP3 POP DUP3 PUSH2 0x35A0 MSTORE DUP4 PUSH2 0x3340 MLOAD PUSH2 0x3380 MLOAD MULMOD PUSH2 0x3380 MSTORE POP POP POP DUP1 PUSH2 0x3680 MLOAD DUP3 PUSH2 0x35A0 MLOAD DUP5 PUSH2 0x3580 MLOAD DUP7 PUSH2 0x3560 MLOAD DUP9 PUSH2 0x3540 MLOAD DUP11 PUSH2 0x3520 MLOAD PUSH2 0x3500 MLOAD ADDMOD ADDMOD ADDMOD ADDMOD ADDMOD MULMOD PUSH2 0x3660 DUP2 SWAP1 MSTORE PUSH2 0x26E0 MLOAD PUSH2 0x36A0 DUP2 SWAP1 MSTORE PUSH2 0x36C0 SWAP2 SWAP1 SWAP2 MSTORE PUSH2 0x2E4 PUSH1 0x4 CALLDATALOAD ADD PUSH2 0x520 DUP2 PUSH2 0x36E0 CALLDATACOPY POP POP PUSH2 0x560 PUSH2 0x36A0 KECCAK256 DUP2 DUP2 MOD PUSH2 0x2700 MSTORE PUSH1 0x0 DUP2 SWAP1 MSTORE PUSH1 0x1 PUSH1 0x20 MSTORE8 DUP2 PUSH1 0x21 PUSH1 0x0 KECCAK256 MOD PUSH2 0x2720 MSTORE PUSH1 0x2 PUSH1 0x20 MSTORE8 DUP2 PUSH1 0x21 PUSH1 0x0 KECCAK256 MOD PUSH2 0x2740 MSTORE PUSH1 0x3 PUSH1 0x20 MSTORE8 DUP2 PUSH1 0x21 PUSH1 0x0 KECCAK256 MOD PUSH2 0x2760 MSTORE PUSH1 0x4 PUSH1 0x20 MSTORE8 DUP2 PUSH1 0x21 PUSH1 0x0 KECCAK256 MOD PUSH2 0x2780 MSTORE PUSH1 0x5 PUSH1 0x20 MSTORE8 DUP2 PUSH1 0x21 PUSH1 0x0 KECCAK256 MOD PUSH2 0x27A0 MSTORE PUSH1 0x6 PUSH1 0x20 MSTORE8 DUP2 PUSH1 0x21 PUSH1 0x0 KECCAK256 MOD PUSH2 0x27C0 MSTORE PUSH1 0x7 PUSH1 0x20 MSTORE8 DUP2 PUSH1 0x21 PUSH1 0x0 KECCAK256 MOD PUSH2 0x27E0 MSTORE PUSH1 0x8 PUSH1 0x20 MSTORE8 DUP2 PUSH1 0x21 PUSH1 0x0 KECCAK256 MOD PUSH2 0x2800 MSTORE PUSH1 0x9 PUSH1 0x20 MSTORE8 DUP2 PUSH1 0x21 PUSH1 0x0 KECCAK256 MOD PUSH2 0x2820 MSTORE PUSH1 0xA PUSH1 0x20 MSTORE8 DUP2 PUSH1 0x21 PUSH1 0x0 KECCAK256 MOD PUSH2 0x2840 MSTORE PUSH1 0xB PUSH1 0x20 MSTORE8 DUP2 PUSH1 0x21 PUSH1 0x0 KECCAK256 MOD PUSH2 0x2860 MSTORE PUSH1 0xC PUSH1 0x20 MSTORE8 DUP2 PUSH1 0x21 PUSH1 0x0 KECCAK256 MOD PUSH2 0x2880 MSTORE PUSH1 0xD PUSH1 0x20 MSTORE8 DUP2 PUSH1 0x21 PUSH1 0x0 KECCAK256 MOD PUSH2 0x28A0 MSTORE PUSH1 0xE PUSH1 0x20 MSTORE8 DUP2 PUSH1 0x21 PUSH1 0x0 KECCAK256 MOD PUSH2 0x28C0 MSTORE PUSH1 0xF PUSH1 0x20 MSTORE8 DUP2 PUSH1 0x21 PUSH1 0x0 KECCAK256 MOD PUSH2 0x28E0 MSTORE PUSH1 0x10 PUSH1 0x20 MSTORE8 DUP2 PUSH1 0x21 PUSH1 0x0 KECCAK256 MOD PUSH2 0x2900 MSTORE PUSH1 0x11 PUSH1 0x20 MSTORE8 DUP2 PUSH1 0x21 PUSH1 0x0 KECCAK256 MOD PUSH2 0x2920 MSTORE PUSH1 0x12 PUSH1 0x20 MSTORE8 DUP2 PUSH1 0x21 PUSH1 0x0 KECCAK256 MOD PUSH2 0x2940 MSTORE PUSH1 0x13 PUSH1 0x20 MSTORE8 DUP2 PUSH1 0x21 PUSH1 0x0 KECCAK256 MOD PUSH2 0x2960 MSTORE PUSH1 0x14 PUSH1 0x20 MSTORE8 DUP2 PUSH1 0x21 PUSH1 0x0 KECCAK256 MOD PUSH2 0x2980 MSTORE PUSH1 0x15 PUSH1 0x20 MSTORE8 DUP2 PUSH1 0x21 PUSH1 0x0 KECCAK256 MOD PUSH2 0x29A0 MSTORE PUSH1 0x16 PUSH1 0x20 MSTORE8 DUP2 PUSH1 0x21 PUSH1 0x0 KECCAK256 MOD PUSH2 0x29C0 MSTORE PUSH1 0x17 PUSH1 0x20 MSTORE8 DUP2 PUSH1 0x21 PUSH1 0x0 KECCAK256 MOD PUSH2 0x29E0 MSTORE PUSH1 0x18 PUSH1 0x20 MSTORE8 DUP2 PUSH1 0x21 PUSH1 0x0 KECCAK256 MOD PUSH2 0x2A00 MSTORE PUSH1 0x19 PUSH1 0x20 MSTORE8 DUP2 PUSH1 0x21 PUSH1 0x0 KECCAK256 MOD PUSH2 0x2A20 MSTORE PUSH1 0x1A PUSH1 0x20 MSTORE8 DUP2 PUSH1 0x21 PUSH1 0x0 KECCAK256 MOD PUSH2 0x2A40 MSTORE PUSH1 0x1B PUSH1 0x20 MSTORE8 DUP2 PUSH1 0x21 PUSH1 0x0 KECCAK256 MOD PUSH2 0x2A60 MSTORE PUSH1 0x1C PUSH1 0x20 MSTORE8 DUP2 PUSH1 0x21 PUSH1 0x0 KECCAK256 MOD PUSH2 0x2A80 MSTORE PUSH1 0x1D PUSH1 0x20 MSTORE8 DUP2 PUSH1 0x21 PUSH1 0x0 KECCAK256 MOD PUSH2 0x2AA0 MSTORE PUSH1 0x1D PUSH1 0x20 MSTORE8 POP PUSH1 0x21 PUSH1 0x0 SWAP1 DUP2 KECCAK256 DUP3 DUP2 MOD PUSH2 0x2AC0 MSTORE DUP2 MSTORE PUSH2 0x2320 MLOAD PUSH1 0x20 MSTORE PUSH2 0x2300 MLOAD PUSH1 0x40 MSTORE PUSH2 0x2360 MLOAD PUSH1 0x60 MSTORE PUSH2 0x2340 MLOAD PUSH1 0x80 MSTORE PUSH1 0xA0 DUP2 KECCAK256 DUP3 SWAP1 MOD PUSH2 0x2B00 MSTORE PUSH2 0x13C0 MLOAD PUSH2 0x13E0 MLOAD DUP5 DUP3 DUP1 MULMOD DUP6 PUSH1 0x3 DUP8 DUP4 DUP7 MULMOD ADDMOD DUP7 DUP4 DUP5 MULMOD EQ PUSH2 0x1CE6 JUMPI PUSH4 0x28F6B595 PUSH1 0xE2 SHL PUSH1 0x0 MSTORE PUSH1 0x4 PUSH1 0x0 REVERT JUMPDEST POP PUSH2 0x3160 SWAP2 SWAP1 SWAP2 MSTORE PUSH2 0x3180 MSTORE PUSH2 0x1400 MLOAD PUSH2 0x1420 MLOAD DUP5 DUP3 DUP1 MULMOD DUP6 PUSH1 0x3 DUP8 DUP4 DUP7 MULMOD ADDMOD DUP7 DUP4 DUP5 MULMOD EQ PUSH2 0x1D20 JUMPI PUSH4 0x28F6B595 PUSH1 0xE2 SHL PUSH1 0x0 MSTORE PUSH1 0x4 PUSH1 0x0 REVERT JUMPDEST POP DUP2 PUSH1 0x0 MSTORE DUP1 PUSH1 0x20 MSTORE POP POP PUSH2 0x3040 MLOAD PUSH1 0x40 MSTORE PUSH1 0x40 PUSH2 0x31A0 PUSH1 0x60 PUSH1 0x0 PUSH1 0x7 GAS STATICCALL SWAP1 POP PUSH1 0x40 PUSH2 0x3160 PUSH1 0x80 PUSH2 0x3160 PUSH1 0x6 GAS STATICCALL DUP2 AND SWAP1 POP PUSH2 0x1440 MLOAD PUSH2 0x1460 MLOAD DUP5 DUP3 DUP4 MULMOD DUP6 PUSH1 0x3 DUP8 DUP4 DUP7 MULMOD ADDMOD DUP7 DUP4 DUP5 MULMOD EQ PUSH2 0x1D81 JUMPI PUSH4 0x28F6B595 PUSH1 0xE2 SHL PUSH1 0x0 MSTORE PUSH1 0x4 PUSH1 0x0 REVERT JUMPDEST POP PUSH1 0x0 SWAP2 SWAP1 SWAP2 MSTORE PUSH1 0x20 MSTORE PUSH2 0x3040 MLOAD DUP3 SWAP1 DUP1 MULMOD PUSH1 0x40 MSTORE PUSH1 0x40 PUSH2 0x31A0 PUSH1 0x60 PUSH1 0x0 PUSH1 0x7 GAS STATICCALL AND PUSH1 0x40 PUSH2 0x3160 PUSH1 0x80 DUP2 PUSH1 0x6 GAS STATICCALL DUP2 AND SWAP1 POP PUSH2 0x1480 MLOAD PUSH2 0x14A0 MLOAD DUP5 DUP3 DUP4 MULMOD DUP6 PUSH1 0x3 DUP8 DUP4 DUP7 MULMOD ADDMOD DUP7 DUP4 DUP5 MULMOD EQ PUSH2 0x1DE2 JUMPI PUSH4 0x28F6B595 PUSH1 0xE2 SHL PUSH1 0x0 MSTORE PUSH1 0x4 PUSH1 0x0 REVERT JUMPDEST POP PUSH1 0x0 SWAP2 SWAP1 SWAP2 MSTORE PUSH1 0x20 MSTORE PUSH2 0x3040 MLOAD DUP3 SWAP1 DUP2 DUP2 DUP1 MULMOD MULMOD PUSH1 0x40 MSTORE PUSH1 0x40 PUSH2 0x31A0 PUSH1 0x60 PUSH1 0x0 PUSH1 0x7 GAS STATICCALL AND PUSH1 0x40 PUSH2 0x3160 PUSH1 0x80 DUP2 PUSH1 0x6 GAS STATICCALL DUP2 AND SWAP1 POP PUSH2 0x1200 MLOAD PUSH2 0x1220 MLOAD DUP5 DUP3 DUP4 MULMOD DUP6 PUSH1 0x3 DUP8 DUP4 DUP7 MULMOD ADDMOD DUP7 DUP4 DUP5 MULMOD EQ PUSH2 0x1E46 JUMPI PUSH4 0x28F6B595 PUSH1 0xE2 SHL PUSH1 0x0 MSTORE PUSH1 0x4 PUSH1 0x0 REVERT JUMPDEST POP DUP2 PUSH1 0x0 MSTORE DUP1 PUSH1 0x20 MSTORE POP POP DUP2 PUSH2 0x2700 MLOAD DUP4 PUSH1 0x1 PUSH2 0x2B00 MLOAD ADDMOD MULMOD PUSH1 0x40 MSTORE PUSH1 0x40 PUSH2 0x31A0 PUSH1 0x60 PUSH1 0x0 PUSH1 0x7 GAS STATICCALL AND PUSH1 0x40 PUSH2 0x3160 PUSH1 0x80 DUP2 PUSH1 0x6 GAS STATICCALL DUP2 AND SWAP1 POP PUSH2 0x1240 MLOAD PUSH2 0x1260 MLOAD DUP5 DUP3 DUP4 MULMOD DUP6 PUSH1 0x3 DUP8 DUP4 DUP7 MULMOD ADDMOD DUP7 DUP4 DUP5 MULMOD EQ PUSH2 0x1EAE JUMPI PUSH4 0x28F6B595 PUSH1 0xE2 SHL PUSH1 0x0 MSTORE PUSH1 0x4 PUSH1 0x0 REVERT JUMPDEST POP DUP2 PUSH1 0x0 MSTORE DUP1 PUSH1 0x20 MSTORE POP POP DUP2 PUSH2 0x2720 MLOAD DUP4 PUSH1 0x1 PUSH2 0x2B00 MLOAD ADDMOD MULMOD PUSH1 0x40 MSTORE PUSH1 0x40 PUSH2 0x31A0 PUSH1 0x60 PUSH1 0x0 PUSH1 0x7 GAS STATICCALL AND PUSH1 0x40 PUSH2 0x3160 PUSH1 0x80 DUP2 PUSH1 0x6 GAS STATICCALL DUP2 AND SWAP1 POP PUSH2 0x1280 MLOAD PUSH2 0x12A0 MLOAD DUP5 DUP3 DUP4 MULMOD DUP6 PUSH1 0x3 DUP8 DUP4 DUP7 MULMOD ADDMOD DUP7 DUP4 DUP5 MULMOD EQ PUSH2 0x1F16 JUMPI PUSH4 0x28F6B595 PUSH1 0xE2 SHL PUSH1 0x0 MSTORE PUSH1 0x4 PUSH1 0x0 REVERT JUMPDEST POP DUP2 PUSH1 0x0 MSTORE DUP1 PUSH1 0x20 MSTORE POP POP DUP2 PUSH2 0x2740 MLOAD DUP4 PUSH1 0x1 PUSH2 0x2B00 MLOAD ADDMOD MULMOD PUSH1 0x40 MSTORE PUSH1 0x40 PUSH2 0x31A0 PUSH1 0x60 PUSH1 0x0 PUSH1 0x7 GAS STATICCALL AND PUSH1 0x40 PUSH2 0x3160 PUSH1 0x80 DUP2 PUSH1 0x6 GAS STATICCALL DUP2 AND SWAP1 POP PUSH2 0x12C0 MLOAD PUSH2 0x12E0 MLOAD DUP5 DUP3 DUP4 MULMOD DUP6 PUSH1 0x3 DUP8 DUP4 DUP7 MULMOD ADDMOD DUP7 DUP4 DUP5 MULMOD EQ PUSH2 0x1F7E JUMPI PUSH4 0x28F6B595 PUSH1 0xE2 SHL PUSH1 0x0 MSTORE PUSH1 0x4 PUSH1 0x0 REVERT JUMPDEST POP DUP2 PUSH1 0x0 MSTORE DUP1 PUSH1 0x20 MSTORE POP POP DUP2 PUSH2 0x2760 MLOAD DUP4 PUSH1 0x1 PUSH2 0x2B00 MLOAD ADDMOD MULMOD PUSH1 0x40 MSTORE PUSH1 0x40 PUSH2 0x31A0 PUSH1 0x60 PUSH1 0x0 PUSH1 0x7 GAS STATICCALL AND PUSH1 0x40 PUSH2 0x3160 PUSH1 0x80 DUP2 PUSH1 0x6 GAS STATICCALL DUP2 AND SWAP1 POP PUSH2 0x1300 MLOAD PUSH2 0x1320 MLOAD DUP5 DUP3 DUP4 MULMOD DUP6 PUSH1 0x3 DUP8 DUP4 DUP7 MULMOD ADDMOD DUP7 DUP4 DUP5 MULMOD EQ PUSH2 0x1FE6 JUMPI PUSH4 0x28F6B595 PUSH1 0xE2 SHL PUSH1 0x0 MSTORE PUSH1 0x4 PUSH1 0x0 REVERT JUMPDEST POP DUP2 PUSH1 0x0 MSTORE DUP1 PUSH1 0x20 MSTORE POP POP DUP2 PUSH2 0x2780 MLOAD DUP4 PUSH1 0x1 PUSH2 0x2B00 MLOAD ADDMOD MULMOD PUSH1 0x40 MSTORE PUSH1 0x40 PUSH2 0x31A0 PUSH1 0x60 PUSH1 0x0 PUSH1 0x7 GAS STATICCALL AND PUSH1 0x40 PUSH2 0x3160 PUSH1 0x80 DUP2 PUSH1 0x6 GAS STATICCALL DUP2 AND SWAP1 POP PUSH2 0x1340 MLOAD PUSH2 0x1360 MLOAD DUP5 DUP3 DUP4 MULMOD DUP6 PUSH1 0x3 DUP8 DUP4 DUP7 MULMOD ADDMOD DUP7 DUP4 DUP5 MULMOD EQ PUSH2 0x204E JUMPI PUSH4 0x28F6B595 PUSH1 0xE2 SHL PUSH1 0x0 MSTORE PUSH1 0x4 PUSH1 0x0 REVERT JUMPDEST POP DUP2 PUSH1 0x0 MSTORE DUP1 PUSH1 0x20 MSTORE POP POP DUP2 PUSH2 0x27A0 MLOAD DUP4 PUSH1 0x1 PUSH2 0x2B00 MLOAD ADDMOD MULMOD PUSH1 0x40 MSTORE PUSH1 0x40 PUSH2 0x31A0 PUSH1 0x60 PUSH1 0x0 PUSH1 0x7 GAS STATICCALL AND PUSH1 0x40 PUSH2 0x3160 PUSH1 0x80 DUP2 PUSH1 0x6 GAS STATICCALL DUP2 AND SWAP1 POP PUSH2 0x1380 MLOAD PUSH2 0x13A0 MLOAD DUP5 DUP3 DUP4 MULMOD DUP6 PUSH1 0x3 DUP8 DUP4 DUP7 MULMOD ADDMOD DUP7 DUP4 DUP5 MULMOD EQ PUSH2 0x20B6 JUMPI PUSH4 0x28F6B595 PUSH1 0xE2 SHL PUSH1 0x0 MSTORE PUSH1 0x4 PUSH1 0x0 REVERT JUMPDEST POP DUP2 PUSH1 0x0 MSTORE DUP1 PUSH1 0x20 MSTORE POP POP DUP2 PUSH2 0x27C0 MLOAD DUP4 PUSH1 0x1 PUSH2 0x2B00 MLOAD ADDMOD MULMOD PUSH1 0x40 MSTORE PUSH1 0x40 PUSH2 0x31A0 PUSH1 0x60 PUSH1 0x0 PUSH1 0x7 GAS STATICCALL AND PUSH1 0x40 PUSH2 0x3160 PUSH1 0x80 DUP2 PUSH1 0x6 GAS STATICCALL DUP2 AND SWAP1 POP PUSH2 0x400 MLOAD PUSH1 0x0 MSTORE PUSH2 0x420 MLOAD PUSH1 0x20 MSTORE PUSH2 0x27E0 MLOAD PUSH1 0x40 MSTORE PUSH1 0x40 PUSH2 0x31A0 PUSH1 0x60 PUSH1 0x0 PUSH1 0x7 GAS STATICCALL AND PUSH1 0x40 PUSH2 0x3160 PUSH1 0x80 DUP2 PUSH1 0x6 GAS STATICCALL DUP2 AND SWAP1 POP PUSH2 0x440 MLOAD PUSH1 0x0 MSTORE PUSH2 0x460 MLOAD PUSH1 0x20 MSTORE PUSH2 0x2800 MLOAD PUSH1 0x40 MSTORE PUSH1 0x40 PUSH2 0x31A0 PUSH1 0x60 PUSH1 0x0 PUSH1 0x7 GAS STATICCALL AND PUSH1 0x40 PUSH2 0x3160 PUSH1 0x80 DUP2 PUSH1 0x6 GAS STATICCALL DUP2 AND SWAP1 POP PUSH2 0x480 MLOAD PUSH1 0x0 MSTORE PUSH2 0x4A0 MLOAD PUSH1 0x20 MSTORE PUSH2 0x2820 MLOAD PUSH1 0x40 MSTORE PUSH1 0x40 PUSH2 0x31A0 PUSH1 0x60 PUSH1 0x0 PUSH1 0x7 GAS STATICCALL AND PUSH1 0x40 PUSH2 0x3160 PUSH1 0x80 DUP2 PUSH1 0x6 GAS STATICCALL DUP2 AND SWAP1 POP PUSH2 0x4C0 MLOAD PUSH1 0x0 MSTORE PUSH2 0x4E0 MLOAD PUSH1 0x20 MSTORE PUSH2 0x2840 MLOAD PUSH1 0x40 MSTORE PUSH1 0x40 PUSH2 0x31A0 PUSH1 0x60 PUSH1 0x0 PUSH1 0x7 GAS STATICCALL AND PUSH1 0x40 PUSH2 0x3160 PUSH1 0x80 DUP2 PUSH1 0x6 GAS STATICCALL DUP2 AND SWAP1 POP PUSH2 0x500 MLOAD PUSH1 0x0 MSTORE PUSH2 0x520 MLOAD PUSH1 0x20 MSTORE PUSH2 0x2860 MLOAD PUSH1 0x40 MSTORE PUSH1 0x40 PUSH2 0x31A0 PUSH1 0x60 PUSH1 0x0 PUSH1 0x7 GAS STATICCALL AND PUSH1 0x40 PUSH2 0x3160 PUSH1 0x80 DUP2 PUSH1 0x6 GAS STATICCALL DUP2 AND SWAP1 POP PUSH2 0x540 MLOAD PUSH1 0x0 MSTORE PUSH2 0x560 MLOAD PUSH1 0x20 MSTORE PUSH2 0x2880 MLOAD PUSH1 0x40 MSTORE PUSH1 0x40 PUSH2 0x31A0 PUSH1 0x60 PUSH1 0x0 PUSH1 0x7 GAS STATICCALL AND PUSH1 0x40 PUSH2 0x3160 PUSH1 0x80 DUP2 PUSH1 0x6 GAS STATICCALL DUP2 AND SWAP1 POP PUSH2 0x580 MLOAD PUSH1 0x0 MSTORE PUSH2 0x5A0 MLOAD PUSH1 0x20 MSTORE PUSH2 0x28A0 MLOAD PUSH1 0x40 MSTORE PUSH1 0x40 PUSH2 0x31A0 PUSH1 0x60 PUSH1 0x0 PUSH1 0x7 GAS STATICCALL AND PUSH1 0x40 PUSH2 0x3160 PUSH1 0x80 DUP2 PUSH1 0x6 GAS STATICCALL DUP2 AND SWAP1 POP PUSH2 0x5C0 MLOAD PUSH1 0x0 MSTORE PUSH2 0x5E0 MLOAD PUSH1 0x20 MSTORE PUSH2 0x28C0 MLOAD PUSH1 0x40 MSTORE PUSH1 0x40 PUSH2 0x31A0 PUSH1 0x60 PUSH1 0x0 PUSH1 0x7 GAS STATICCALL AND PUSH1 0x40 PUSH2 0x3160 PUSH1 0x80 DUP2 PUSH1 0x6 GAS STATICCALL DUP2 AND SWAP1 POP PUSH2 0x600 MLOAD PUSH1 0x0 MSTORE PUSH2 0x620 MLOAD PUSH1 0x20 MSTORE PUSH2 0x28E0 MLOAD PUSH1 0x40 MSTORE PUSH1 0x40 PUSH2 0x31A0 PUSH1 0x60 PUSH1 0x0 PUSH1 0x7 GAS STATICCALL AND PUSH1 0x40 PUSH2 0x3160 PUSH1 0x80 DUP2 PUSH1 0x6 GAS STATICCALL DUP2 AND SWAP1 POP PUSH2 0x640 MLOAD PUSH1 0x0 MSTORE PUSH2 0x660 MLOAD PUSH1 0x20 MSTORE PUSH2 0x2900 MLOAD PUSH1 0x40 MSTORE PUSH1 0x40 PUSH2 0x31A0 PUSH1 0x60 PUSH1 0x0 PUSH1 0x7 GAS STATICCALL AND PUSH1 0x40 PUSH2 0x3160 PUSH1 0x80 DUP2 PUSH1 0x6 GAS STATICCALL DUP2 AND SWAP1 POP PUSH2 0x680 MLOAD PUSH1 0x0 MSTORE PUSH2 0x6A0 MLOAD PUSH1 0x20 MSTORE PUSH2 0x2920 MLOAD PUSH1 0x40 MSTORE PUSH1 0x40 PUSH2 0x31A0 PUSH1 0x60 PUSH1 0x0 PUSH1 0x7 GAS STATICCALL AND PUSH1 0x40 PUSH2 0x3160 PUSH1 0x80 DUP2 PUSH1 0x6 GAS STATICCALL DUP2 AND SWAP1 POP PUSH2 0x6C0 MLOAD PUSH1 0x0 MSTORE PUSH2 0x6E0 MLOAD PUSH1 0x20 MSTORE PUSH2 0x2940 MLOAD PUSH1 0x40 MSTORE PUSH1 0x40 PUSH2 0x31A0 PUSH1 0x60 PUSH1 0x0 PUSH1 0x7 GAS STATICCALL AND PUSH1 0x40 PUSH2 0x3160 PUSH1 0x80 DUP2 PUSH1 0x6 GAS STATICCALL DUP2 AND SWAP1 POP PUSH2 0x700 MLOAD PUSH1 0x0 MSTORE PUSH2 0x720 MLOAD PUSH1 0x20 MSTORE PUSH2 0x2960 MLOAD PUSH1 0x40 MSTORE PUSH1 0x40 PUSH2 0x31A0 PUSH1 0x60 PUSH1 0x0 PUSH1 0x7 GAS STATICCALL AND PUSH1 0x40 PUSH2 0x3160 PUSH1 0x80 DUP2 PUSH1 0x6 GAS STATICCALL DUP2 AND SWAP1 POP PUSH2 0x740 MLOAD PUSH1 0x0 MSTORE PUSH2 0x760 MLOAD PUSH1 0x20 MSTORE PUSH2 0x2980 MLOAD PUSH1 0x40 MSTORE PUSH1 0x40 PUSH2 0x31A0 PUSH1 0x60 PUSH1 0x0 PUSH1 0x7 GAS STATICCALL AND PUSH1 0x40 PUSH2 0x3160 PUSH1 0x80 DUP2 PUSH1 0x6 GAS STATICCALL DUP2 AND SWAP1 POP PUSH2 0x780 MLOAD PUSH1 0x0 MSTORE PUSH2 0x7A0 MLOAD PUSH1 0x20 MSTORE DUP2 PUSH2 0x29A0 MLOAD DUP4 PUSH1 0x1 PUSH2 0x2B00 MLOAD ADDMOD MULMOD PUSH1 0x40 MSTORE PUSH1 0x40 PUSH2 0x31A0 PUSH1 0x60 PUSH1 0x0 PUSH1 0x7 GAS STATICCALL AND PUSH1 0x40 PUSH2 0x3160 PUSH1 0x80 DUP2 PUSH1 0x6 GAS STATICCALL DUP2 AND SWAP1 POP PUSH2 0x7C0 MLOAD PUSH1 0x0 MSTORE PUSH2 0x7E0 MLOAD PUSH1 0x20 MSTORE DUP2 PUSH2 0x29C0 MLOAD DUP4 PUSH1 0x1 PUSH2 0x2B00 MLOAD ADDMOD MULMOD PUSH1 0x40 MSTORE PUSH1 0x40 PUSH2 0x31A0 PUSH1 0x60 PUSH1 0x0 PUSH1 0x7 GAS STATICCALL AND PUSH1 0x40 PUSH2 0x3160 PUSH1 0x80 DUP2 PUSH1 0x6 GAS STATICCALL DUP2 AND SWAP1 POP PUSH2 0x800 MLOAD PUSH1 0x0 MSTORE PUSH2 0x820 MLOAD PUSH1 0x20 MSTORE DUP2 PUSH2 0x29E0 MLOAD DUP4 PUSH1 0x1 PUSH2 0x2B00 MLOAD ADDMOD MULMOD PUSH1 0x40 MSTORE PUSH1 0x40 PUSH2 0x31A0 PUSH1 0x60 PUSH1 0x0 PUSH1 0x7 GAS STATICCALL AND PUSH1 0x40 PUSH2 0x3160 PUSH1 0x80 DUP2 PUSH1 0x6 GAS STATICCALL DUP2 AND SWAP1 POP PUSH2 0x840 MLOAD PUSH1 0x0 MSTORE PUSH2 0x860 MLOAD PUSH1 0x20 MSTORE DUP2 PUSH2 0x2A00 MLOAD DUP4 PUSH1 0x1 PUSH2 0x2B00 MLOAD ADDMOD MULMOD PUSH1 0x40 MSTORE PUSH1 0x40 PUSH2 0x31A0 PUSH1 0x60 PUSH1 0x0 PUSH1 0x7 GAS STATICCALL AND PUSH1 0x40 PUSH2 0x3160 PUSH1 0x80 DUP2 PUSH1 0x6 GAS STATICCALL DUP2 AND SWAP1 POP PUSH2 0x880 MLOAD PUSH1 0x0 MSTORE PUSH2 0x8A0 MLOAD PUSH1 0x20 MSTORE PUSH2 0x2A20 MLOAD PUSH1 0x40 MSTORE PUSH1 0x40 PUSH2 0x31A0 PUSH1 0x60 PUSH1 0x0 PUSH1 0x7 GAS STATICCALL AND PUSH1 0x40 PUSH2 0x3160 PUSH1 0x80 DUP2 PUSH1 0x6 GAS STATICCALL DUP2 AND SWAP1 POP PUSH2 0x8C0 MLOAD PUSH1 0x0 MSTORE PUSH2 0x8E0 MLOAD PUSH1 0x20 MSTORE PUSH2 0x2A40 MLOAD PUSH1 0x40 MSTORE PUSH1 0x40 PUSH2 0x31A0 PUSH1 0x60 PUSH1 0x0 PUSH1 0x7 GAS STATICCALL AND PUSH1 0x40 PUSH2 0x3160 PUSH1 0x80 DUP2 PUSH1 0x6 GAS STATICCALL DUP2 AND SWAP1 POP PUSH2 0x900 MLOAD PUSH1 0x0 MSTORE PUSH2 0x920 MLOAD PUSH1 0x20 MSTORE PUSH2 0x2A60 MLOAD PUSH1 0x40 MSTORE PUSH1 0x40 PUSH2 0x31A0 PUSH1 0x60 PUSH1 0x0 PUSH1 0x7 GAS STATICCALL AND PUSH1 0x40 PUSH2 0x3160 PUSH1 0x80 DUP2 PUSH1 0x6 GAS STATICCALL DUP2 AND SWAP1 POP PUSH2 0x940 MLOAD PUSH1 0x0 MSTORE PUSH2 0x960 MLOAD PUSH1 0x20 MSTORE PUSH2 0x2A80 MLOAD PUSH1 0x40 MSTORE PUSH1 0x40 PUSH2 0x31A0 PUSH1 0x60 PUSH1 0x0 PUSH1 0x7 GAS STATICCALL AND PUSH1 0x40 PUSH2 0x3160 PUSH1 0x80 DUP2 PUSH1 0x6 GAS STATICCALL DUP2 AND SWAP1 POP PUSH2 0x980 MLOAD PUSH1 0x0 MSTORE PUSH2 0x9A0 MLOAD PUSH1 0x20 MSTORE PUSH2 0x2AA0 MLOAD PUSH1 0x40 MSTORE PUSH1 0x40 PUSH2 0x31A0 PUSH1 0x60 PUSH1 0x0 PUSH1 0x7 GAS STATICCALL AND PUSH1 0x40 PUSH2 0x3160 PUSH1 0x80 DUP2 PUSH1 0x6 GAS STATICCALL DUP2 AND SWAP1 POP DUP2 DUP3 PUSH2 0x1600 MLOAD DUP5 PUSH2 0x2B00 MLOAD PUSH2 0x19E0 MLOAD MULMOD ADDMOD PUSH2 0x2700 MLOAD MULMOD DUP3 DUP4 DUP5 PUSH2 0x1620 MLOAD DUP7 PUSH2 0x2B00 MLOAD PUSH2 0x2000 MLOAD MULMOD ADDMOD PUSH2 0x2720 MLOAD MULMOD DUP3 ADDMOD SWAP1 POP DUP3 DUP4 DUP5 PUSH2 0x1640 MLOAD DUP7 PUSH2 0x2B00 MLOAD PUSH2 0x2020 MLOAD MULMOD ADDMOD PUSH2 0x2740 MLOAD MULMOD DUP3 ADDMOD SWAP1 POP DUP3 DUP4 DUP5 PUSH2 0x1660 MLOAD DUP7 PUSH2 0x2B00 MLOAD PUSH2 0x2040 MLOAD MULMOD ADDMOD PUSH2 0x2760 MLOAD MULMOD DUP3 ADDMOD SWAP1 POP DUP3 DUP4 DUP5 PUSH2 0x1680 MLOAD DUP7 PUSH2 0x2B00 MLOAD PUSH2 0x2060 MLOAD MULMOD ADDMOD PUSH2 0x2780 MLOAD MULMOD DUP3 ADDMOD SWAP1 POP DUP3 DUP4 DUP5 PUSH2 0x16A0 MLOAD DUP7 PUSH2 0x2B00 MLOAD PUSH2 0x2080 MLOAD MULMOD ADDMOD PUSH2 0x27A0 MLOAD MULMOD DUP3 ADDMOD SWAP1 POP DUP3 DUP4 DUP5 PUSH2 0x16C0 MLOAD DUP7 PUSH2 0x2B00 MLOAD PUSH2 0x20A0 MLOAD MULMOD ADDMOD PUSH2 0x27C0 MLOAD MULMOD DUP3 ADDMOD SWAP1 POP DUP3 DUP4 PUSH2 0x16E0 MLOAD PUSH2 0x27E0 MLOAD MULMOD DUP3 ADDMOD SWAP1 POP DUP3 DUP4 PUSH2 0x1700 MLOAD PUSH2 0x2800 MLOAD MULMOD DUP3 ADDMOD SWAP1 POP DUP3 DUP4 PUSH2 0x1720 MLOAD PUSH2 0x2820 MLOAD MULMOD DUP3 ADDMOD SWAP1 POP DUP3 DUP4 PUSH2 0x1740 MLOAD PUSH2 0x2840 MLOAD MULMOD DUP3 ADDMOD SWAP1 POP DUP3 DUP4 PUSH2 0x1760 MLOAD PUSH2 0x2860 MLOAD MULMOD DUP3 ADDMOD SWAP1 POP DUP3 DUP4 PUSH2 0x1780 MLOAD PUSH2 0x2880 MLOAD MULMOD DUP3 ADDMOD SWAP1 POP DUP3 DUP4 PUSH2 0x17A0 MLOAD PUSH2 0x28A0 MLOAD MULMOD DUP3 ADDMOD SWAP1 POP DUP3 DUP4 PUSH2 0x17C0 MLOAD PUSH2 0x28C0 MLOAD MULMOD DUP3 ADDMOD SWAP1 POP DUP3 DUP4 PUSH2 0x17E0 MLOAD PUSH2 0x28E0 MLOAD MULMOD DUP3 ADDMOD SWAP1 POP DUP3 DUP4 PUSH2 0x1800 MLOAD PUSH2 0x2900 MLOAD MULMOD DUP3 ADDMOD SWAP1 POP DUP3 DUP4 PUSH2 0x1960 MLOAD PUSH2 0x2920 MLOAD MULMOD DUP3 ADDMOD SWAP1 POP DUP3 DUP4 PUSH2 0x1980 MLOAD PUSH2 0x2940 MLOAD MULMOD DUP3 ADDMOD SWAP1 POP DUP3 DUP4 PUSH2 0x19A0 MLOAD PUSH2 0x2960 MLOAD MULMOD DUP3 ADDMOD SWAP1 POP DUP3 DUP4 PUSH2 0x19C0 MLOAD PUSH2 0x2980 MLOAD MULMOD DUP3 ADDMOD SWAP1 POP DUP3 DUP4 DUP5 PUSH2 0x1840 MLOAD DUP7 PUSH2 0x2B00 MLOAD PUSH2 0x20C0 MLOAD MULMOD ADDMOD PUSH2 0x29A0 MLOAD MULMOD DUP3 ADDMOD SWAP1 POP DUP3 DUP4 DUP5 PUSH2 0x1860 MLOAD DUP7 PUSH2 0x2B00 MLOAD PUSH2 0x20E0 MLOAD MULMOD ADDMOD PUSH2 0x29C0 MLOAD MULMOD DUP3 ADDMOD SWAP1 POP DUP3 DUP4 DUP5 PUSH2 0x1880 MLOAD DUP7 PUSH2 0x2B00 MLOAD PUSH2 0x2100 MLOAD MULMOD ADDMOD PUSH2 0x29E0 MLOAD MULMOD DUP3 ADDMOD SWAP1 POP DUP3 DUP4 DUP5 PUSH2 0x18A0 MLOAD DUP7 PUSH2 0x2B00 MLOAD PUSH2 0x2120 MLOAD MULMOD ADDMOD PUSH2 0x2A00 MLOAD MULMOD DUP3 ADDMOD SWAP1 POP DUP3 DUP4 PUSH2 0x18C0 MLOAD PUSH2 0x2A20 MLOAD MULMOD DUP3 ADDMOD SWAP1 POP DUP3 DUP4 PUSH2 0x18E0 MLOAD PUSH2 0x2A40 MLOAD MULMOD DUP3 ADDMOD SWAP1 POP DUP3 DUP4 PUSH2 0x1900 MLOAD PUSH2 0x2A60 MLOAD MULMOD DUP3 ADDMOD SWAP1 POP DUP3 DUP4 PUSH2 0x1920 MLOAD PUSH2 0x2A80 MLOAD MULMOD DUP3 ADDMOD SWAP1 POP DUP3 DUP4 PUSH2 0x1940 MLOAD PUSH2 0x2AA0 MLOAD MULMOD DUP3 ADDMOD SWAP1 POP DUP3 PUSH2 0x3660 MLOAD DUP3 ADDMOD SWAP1 POP PUSH1 0x1 PUSH1 0x0 MSTORE PUSH1 0x2 PUSH1 0x20 MSTORE DUP1 DUP4 SUB PUSH1 0x40 MSTORE POP PUSH1 0x40 PUSH2 0x31A0 PUSH1 0x60 PUSH1 0x0 PUSH1 0x7 GAS STATICCALL AND PUSH1 0x40 PUSH2 0x3160 PUSH1 0x80 DUP2 PUSH1 0x6 GAS STATICCALL AND DUP1 PUSH2 0x2852 JUMPI PUSH32 0x4E71976300000000000000000000000000000000000000000000000000000000 PUSH1 0x0 MSTORE PUSH1 0x4 PUSH1 0x0 REVERT JUMPDEST PUSH2 0x2B00 MLOAD PUSH2 0x26C0 MLOAD PUSH2 0x2300 MLOAD PUSH2 0x2320 MLOAD DUP7 DUP3 DUP4 MULMOD DUP8 PUSH1 0x3 DUP10 DUP4 DUP7 MULMOD ADDMOD DUP9 DUP4 DUP5 MULMOD EQ PUSH2 0x2888 JUMPI PUSH4 0x28F6B595 PUSH1 0xE2 SHL PUSH1 0x0 MSTORE PUSH1 0x4 PUSH1 0x0 REVERT JUMPDEST POP DUP2 PUSH1 0x0 MSTORE DUP1 PUSH1 0x20 MSTORE POP POP DUP1 PUSH1 0x40 MSTORE PUSH1 0x40 PUSH2 0x31A0 PUSH1 0x60 PUSH1 0x0 PUSH1 0x7 GAS STATICCALL SWAP3 POP PUSH1 0x40 PUSH2 0x3160 PUSH1 0x80 PUSH2 0x3160 PUSH1 0x6 GAS STATICCALL DUP4 AND SWAP3 POP PUSH2 0x2340 MLOAD PUSH2 0x2360 MLOAD DUP7 DUP3 DUP4 MULMOD DUP8 PUSH1 0x3 DUP10 DUP4 DUP7 MULMOD ADDMOD DUP9 DUP4 DUP5 MULMOD EQ PUSH2 0x28E6 JUMPI PUSH4 0x28F6B595 PUSH1 0xE2 SHL PUSH1 0x0 MSTORE PUSH1 0x4 PUSH1 0x0 REVERT JUMPDEST POP DUP2 PUSH1 0x0 MSTORE DUP1 PUSH1 0x20 MSTORE POP POP DUP4 PUSH2 0x3C0 MLOAD DUP6 DUP4 DUP6 MULMOD MULMOD PUSH1 0x40 MSTORE POP PUSH1 0x40 PUSH2 0x31A0 PUSH1 0x60 PUSH1 0x0 PUSH1 0x7 GAS STATICCALL DUP3 AND SWAP2 POP PUSH1 0x40 PUSH2 0x3220 PUSH1 0x80 PUSH2 0x3160 PUSH1 0x6 GAS STATICCALL DUP3 AND SWAP2 POP PUSH2 0x2300 MLOAD PUSH1 0x0 MSTORE PUSH2 0x2320 MLOAD PUSH1 0x20 MSTORE PUSH2 0x2340 MLOAD PUSH1 0x40 MSTORE PUSH2 0x2360 MLOAD PUSH1 0x60 MSTORE DUP1 PUSH1 0x80 MSTORE PUSH1 0x40 DUP1 PUSH1 0x60 PUSH1 0x40 PUSH1 0x7 GAS STATICCALL DUP3 AND SWAP2 POP PUSH1 0x40 PUSH2 0x31E0 PUSH1 0x80 PUSH1 0x0 PUSH1 0x6 GAS STATICCALL DUP3 AND SWAP2 POP PUSH2 0x3200 MLOAD DUP5 SUB PUSH2 0x3200 MSTORE PUSH2 0x9C0 MLOAD ISZERO PUSH2 0x2A47 JUMPI PUSH2 0x3400 MLOAD PUSH2 0x3420 MLOAD DUP6 DUP3 DUP4 MULMOD DUP7 PUSH1 0x3 DUP9 DUP4 DUP7 MULMOD ADDMOD DUP8 DUP4 DUP5 MULMOD EQ PUSH2 0x29A3 JUMPI PUSH4 0x28F6B595 PUSH1 0xE2 SHL PUSH1 0x0 MSTORE PUSH1 0x4 PUSH1 0x0 REVERT JUMPDEST POP PUSH1 0x0 SWAP2 SWAP1 SWAP2 MSTORE PUSH1 0x20 MSTORE DUP3 DUP2 DUP1 MULMOD PUSH1 0x40 MSTORE PUSH1 0x40 PUSH1 0x60 DUP1 PUSH1 0x0 PUSH1 0x7 GAS STATICCALL DUP3 AND SWAP2 POP PUSH2 0x3440 MLOAD PUSH2 0x3460 MLOAD DUP6 DUP3 DUP4 MULMOD DUP7 PUSH1 0x3 DUP9 DUP4 DUP7 MULMOD ADDMOD DUP8 DUP4 DUP5 MULMOD EQ PUSH2 0x29F1 JUMPI PUSH4 0x28F6B595 PUSH1 0xE2 SHL PUSH1 0x0 MSTORE PUSH1 0x4 PUSH1 0x0 REVERT JUMPDEST POP PUSH1 0x0 SWAP2 DUP3 MSTORE PUSH1 0x20 MSTORE PUSH1 0x40 SWAP1 PUSH1 0x60 DUP2 PUSH1 0x7 GAS STATICCALL DUP3 AND SWAP2 POP PUSH2 0x3220 MLOAD PUSH1 0xA0 MSTORE PUSH2 0x3240 MLOAD PUSH1 0xC0 MSTORE PUSH1 0x40 PUSH2 0x3220 PUSH1 0x80 PUSH1 0x60 PUSH1 0x6 GAS STATICCALL DUP3 AND SWAP2 POP PUSH2 0x31E0 MLOAD PUSH1 0x40 MSTORE PUSH2 0x3200 MLOAD PUSH1 0x60 MSTORE PUSH1 0x40 PUSH2 0x31E0 PUSH1 0x80 PUSH1 0x0 PUSH1 0x6 GAS STATICCALL DUP3 AND SWAP2 POP JUMPDEST POP DUP1 PUSH2 0x2A77 JUMPI PUSH32 0x1882D8100000000000000000000000000000000000000000000000000000000 PUSH1 0x0 MSTORE PUSH1 0x4 PUSH1 0x0 REVERT JUMPDEST PUSH2 0x3220 MLOAD PUSH1 0x0 MSTORE PUSH2 0x3240 MLOAD PUSH1 0x20 MSTORE PUSH32 0x198E9393920D483A7260BFB731FB5D25F1AA493335A9E71297E485B7AEF312C2 PUSH1 0x40 MSTORE PUSH32 0x1800DEEF121F1E76426A00665E5C4479674322D4F75EDADD46DEBD5CD992F6ED PUSH1 0x60 MSTORE PUSH32 0x90689D0585FF075EC9E99AD690C3395BC4B313370B38EF355ACDADCD122975B PUSH1 0x80 MSTORE PUSH32 0x12C85EA5DB8C6DEB4AAB71808DCB408FE3D1E7690C43D37B4CE6CC0166FA7DAA PUSH1 0xA0 MSTORE PUSH2 0x31E0 MLOAD PUSH1 0xC0 MSTORE PUSH2 0x3200 MLOAD PUSH1 0xE0 MSTORE PUSH2 0xA00 MLOAD PUSH2 0x100 MSTORE PUSH2 0xA20 MLOAD PUSH2 0x120 MSTORE PUSH2 0xA40 MLOAD PUSH2 0x140 MSTORE PUSH2 0xA60 MLOAD PUSH2 0x160 MSTORE PUSH1 0x20 PUSH1 0x0 PUSH2 0x180 PUSH1 0x0 PUSH1 0x8 GAS STATICCALL SWAP1 POP PUSH1 0x0 MLOAD DUP2 AND PUSH2 0x2B85 JUMPI PUSH32 0xD71FD26300000000000000000000000000000000000000000000000000000000 PUSH1 0x0 MSTORE PUSH1 0x4 PUSH1 0x0 REVERT JUMPDEST POP POP POP PUSH1 0x1 PUSH1 0x0 MSTORE PUSH1 0x20 PUSH1 0x0 RETURN JUMPDEST PUSH1 0x0 DUP1 PUSH1 0x0 DUP1 PUSH1 0x40 DUP6 DUP8 SUB SLT ISZERO PUSH2 0x2BA9 JUMPI PUSH1 0x0 DUP1 REVERT JUMPDEST DUP5 CALLDATALOAD PUSH8 0xFFFFFFFFFFFFFFFF DUP2 GT ISZERO PUSH2 0x2BC0 JUMPI PUSH1 0x0 DUP1 REVERT JUMPDEST DUP6 ADD PUSH1 0x1F DUP2 ADD DUP8 SGT PUSH2 0x2BD1 JUMPI PUSH1 0x0 DUP1 REVERT JUMPDEST DUP1 CALLDATALOAD PUSH8 0xFFFFFFFFFFFFFFFF DUP2 GT ISZERO PUSH2 0x2BE8 JUMPI PUSH1 0x0 DUP1 REVERT JUMPDEST DUP8 PUSH1 0x20 DUP3 DUP5 ADD ADD GT ISZERO PUSH2 0x2BFA JUMPI PUSH1 0x0 DUP1 REVERT JUMPDEST PUSH1 0x20 SWAP2 DUP3 ADD SWAP6 POP SWAP4 POP DUP6 ADD CALLDATALOAD PUSH8 0xFFFFFFFFFFFFFFFF DUP2 GT ISZERO PUSH2 0x2C1B JUMPI PUSH1 0x0 DUP1 REVERT JUMPDEST DUP6 ADD PUSH1 0x1F DUP2 ADD DUP8 SGT PUSH2 0x2C2C JUMPI PUSH1 0x0 DUP1 REVERT JUMPDEST DUP1 CALLDATALOAD PUSH8 0xFFFFFFFFFFFFFFFF DUP2 GT ISZERO PUSH2 0x2C43 JUMPI PUSH1 0x0 DUP1 REVERT JUMPDEST DUP8 PUSH1 0x20 DUP3 PUSH1 0x5 SHL DUP5 ADD ADD GT ISZERO PUSH2 0x2C58 JUMPI PUSH1 0x0 DUP1 REVERT JUMPDEST SWAP5 SWAP8 SWAP4 SWAP7 POP PUSH1 0x20 ADD SWAP5 POP POP POP JUMP INVALID LOG2 PUSH5 0x6970667358 0x22 SLT KECCAK256 PUSH31 0xF1FA18459411B042A48EE35BE6814083C5CBB6E849DD2458914763A62B87E9 PUSH5 0x736F6C6343 STOP ADDMOD SHR STOP CALLER "},"methodIdentifiers":{"getVerificationKeyHash()":"937f6a10","verify(bytes,bytes32[])":"ea50d0e4"}}}}}