{
  "_format": "hh-sol-artifact-1",
  "contractName": "zkVVM",
  "sourceName": "contracts/zkVVM.sol",
  "abi": [
    {
      "inputs": [
        {
          "internalType": "address",
          "name": "_admin",
          "type": "address"
        },
        {
          "internalType": "address",
          "name": "_coreAddress",
          "type": "address"
        },
        {
          "internalType": "address",
          "name": "_stakingAddress",
          "type": "address"
        },
        {
          "internalType": "address",
          "name": "_withdrawVerifierAddress",
          "type": "address"
        }
      ],
      "stateMutability": "nonpayable",
      "type": "constructor"
    },
    {
      "inputs": [
        {
          "internalType": "bytes",
          "name": "reason",
          "type": "bytes"
        }
      ],
      "name": "DepositNonceValidationFailed",
      "type": "error"
    },
    {
      "inputs": [
        {
          "internalType": "bytes",
          "name": "reason",
          "type": "bytes"
        }
      ],
      "name": "DepositPaymentFailed",
      "type": "error"
    },
    {
      "inputs": [],
      "name": "InvalidServiceSignature",
      "type": "error"
    },
    {
      "inputs": [
        {
          "internalType": "bytes",
          "name": "reason",
          "type": "bytes"
        }
      ],
      "name": "WithdrawNonceValidationFailed",
      "type": "error"
    },
    {
      "anonymous": false,
      "inputs": [
        {
          "indexed": false,
          "internalType": "bytes32",
          "name": "root",
          "type": "bytes32"
        },
        {
          "indexed": false,
          "internalType": "bool",
          "name": "isRegistered",
          "type": "bool"
        }
      ],
      "name": "DebugRootCheck",
      "type": "event"
    },
    {
      "anonymous": false,
      "inputs": [
        {
          "indexed": true,
          "internalType": "address",
          "name": "user",
          "type": "address"
        },
        {
          "indexed": false,
          "internalType": "bytes",
          "name": "commitment",
          "type": "bytes"
        },
        {
          "indexed": false,
          "internalType": "uint256",
          "name": "amount",
          "type": "uint256"
        }
      ],
      "name": "Deposited",
      "type": "event"
    },
    {
      "anonymous": false,
      "inputs": [
        {
          "indexed": false,
          "internalType": "bytes32",
          "name": "root",
          "type": "bytes32"
        },
        {
          "indexed": false,
          "internalType": "bool",
          "name": "isRegistered",
          "type": "bool"
        }
      ],
      "name": "RootChecked",
      "type": "event"
    },
    {
      "anonymous": false,
      "inputs": [
        {
          "indexed": true,
          "internalType": "bytes32",
          "name": "root",
          "type": "bytes32"
        }
      ],
      "name": "RootRegistered",
      "type": "event"
    },
    {
      "anonymous": false,
      "inputs": [
        {
          "indexed": true,
          "internalType": "address",
          "name": "recipient",
          "type": "address"
        },
        {
          "indexed": true,
          "internalType": "bytes32",
          "name": "nullifier",
          "type": "bytes32"
        },
        {
          "indexed": false,
          "internalType": "uint256",
          "name": "amount",
          "type": "uint256"
        }
      ],
      "name": "Withdrawn",
      "type": "event"
    },
    {
      "inputs": [],
      "name": "admin",
      "outputs": [
        {
          "internalType": "address",
          "name": "",
          "type": "address"
        }
      ],
      "stateMutability": "view",
      "type": "function"
    },
    {
      "inputs": [
        {
          "internalType": "bytes",
          "name": "",
          "type": "bytes"
        }
      ],
      "name": "commitments",
      "outputs": [
        {
          "internalType": "bool",
          "name": "",
          "type": "bool"
        }
      ],
      "stateMutability": "view",
      "type": "function"
    },
    {
      "inputs": [],
      "name": "currentRoot",
      "outputs": [
        {
          "internalType": "bytes32",
          "name": "",
          "type": "bytes32"
        }
      ],
      "stateMutability": "view",
      "type": "function"
    },
    {
      "inputs": [
        {
          "internalType": "address",
          "name": "user",
          "type": "address"
        },
        {
          "internalType": "bytes",
          "name": "commitment",
          "type": "bytes"
        },
        {
          "internalType": "uint256",
          "name": "amount",
          "type": "uint256"
        },
        {
          "internalType": "address",
          "name": "originExecutor",
          "type": "address"
        },
        {
          "internalType": "uint256",
          "name": "nonce",
          "type": "uint256"
        },
        {
          "internalType": "bytes",
          "name": "signature",
          "type": "bytes"
        },
        {
          "internalType": "uint256",
          "name": "priorityFeePay",
          "type": "uint256"
        },
        {
          "internalType": "uint256",
          "name": "noncePay",
          "type": "uint256"
        },
        {
          "internalType": "bytes",
          "name": "signaturePay",
          "type": "bytes"
        },
        {
          "internalType": "bytes32",
          "name": "expectedNextRoot",
          "type": "bytes32"
        }
      ],
      "name": "deposit",
      "outputs": [],
      "stateMutability": "nonpayable",
      "type": "function"
    },
    {
      "inputs": [],
      "name": "getCurrentRoot",
      "outputs": [
        {
          "internalType": "bytes32",
          "name": "",
          "type": "bytes32"
        }
      ],
      "stateMutability": "view",
      "type": "function"
    },
    {
      "inputs": [
        {
          "internalType": "address",
          "name": "user",
          "type": "address"
        },
        {
          "internalType": "uint256",
          "name": "nonce",
          "type": "uint256"
        }
      ],
      "name": "getIfUsedAsyncNonce",
      "outputs": [
        {
          "internalType": "bool",
          "name": "",
          "type": "bool"
        }
      ],
      "stateMutability": "view",
      "type": "function"
    },
    {
      "inputs": [
        {
          "internalType": "address",
          "name": "user",
          "type": "address"
        }
      ],
      "name": "getNextCurrentSyncNonce",
      "outputs": [
        {
          "internalType": "uint256",
          "name": "",
          "type": "uint256"
        }
      ],
      "stateMutability": "view",
      "type": "function"
    },
    {
      "inputs": [
        {
          "internalType": "bytes32",
          "name": "",
          "type": "bytes32"
        }
      ],
      "name": "merkleRoots",
      "outputs": [
        {
          "internalType": "bool",
          "name": "",
          "type": "bool"
        }
      ],
      "stateMutability": "view",
      "type": "function"
    },
    {
      "inputs": [
        {
          "internalType": "bytes32",
          "name": "",
          "type": "bytes32"
        }
      ],
      "name": "nullifiers",
      "outputs": [
        {
          "internalType": "bool",
          "name": "",
          "type": "bool"
        }
      ],
      "stateMutability": "view",
      "type": "function"
    },
    {
      "inputs": [
        {
          "internalType": "bytes32",
          "name": "root",
          "type": "bytes32"
        }
      ],
      "name": "registerRoot",
      "outputs": [],
      "stateMutability": "nonpayable",
      "type": "function"
    },
    {
      "inputs": [
        {
          "internalType": "address",
          "name": "user",
          "type": "address"
        },
        {
          "internalType": "address",
          "name": "recipient",
          "type": "address"
        },
        {
          "internalType": "bytes",
          "name": "proof",
          "type": "bytes"
        },
        {
          "internalType": "bytes32",
          "name": "expectedRoot",
          "type": "bytes32"
        },
        {
          "internalType": "bytes32[]",
          "name": "publicInputs",
          "type": "bytes32[]"
        },
        {
          "internalType": "bytes32",
          "name": "ciphertext",
          "type": "bytes32"
        },
        {
          "internalType": "address",
          "name": "originExecutor",
          "type": "address"
        },
        {
          "internalType": "uint256",
          "name": "nonce",
          "type": "uint256"
        },
        {
          "internalType": "bytes",
          "name": "signature",
          "type": "bytes"
        }
      ],
      "name": "withdraw",
      "outputs": [],
      "stateMutability": "nonpayable",
      "type": "function"
    },
    {
      "inputs": [],
      "name": "withdrawVerifier",
      "outputs": [
        {
          "internalType": "contract IVerifier",
          "name": "",
          "type": "address"
        }
      ],
      "stateMutability": "view",
      "type": "function"
    }
  ],
  "bytecode": "0x60a0346100d157601f6115d038819003918201601f19168301916001600160401b038311848410176100d6578084926080946040528339810103126100d157610047816100ec565b90610054602082016100ec565b9061006d6060610066604084016100ec565b92016100ec565b600080546001600160a01b03199081166001600160a01b039586161790915560018054821693851693909317909255821660805260068054909116929091169190911790556040516114cf90816101018239608051818181610a3c01526110630152f35b600080fd5b634e487b7160e01b600052604160045260246000fd5b51906001600160a01b03821682036100d15756fe608080604052600436101561001357600080fd5b600090813560e01c9081632997e86b146111a4575080636cd30148146110ea5780637912b8e6146110875780638270482d146100d6578063864eb1641461103657806395d07edb14610f28578063d0e3692d14610e7d578063d54f6c8b14610678578063f5db85f214610128578063f851a440146100f4578063fdab463d146100d65763fe5a5377146100a557600080fd5b346100d35760206003193601126100d35760ff60406020926004358152600384522054166040519015158152f35b80fd5b50346100d357806003193601126100d3576020600554604051908152f35b50346100d357806003193601126100d357602073ffffffffffffffffffffffffffffffffffffffff60065416604051908152f35b50346100d3576101406003193601126100d3576101436111d0565b60243567ffffffffffffffff81116105a557610163903690600401611266565b6044359060643573ffffffffffffffffffffffffffffffffffffffff811681036106745760a43567ffffffffffffffff81116105a1576101a7903690600401611266565b6101043567ffffffffffffffff811161066c576101c8903690600401611266565b9086610124359373ffffffffffffffffffffffffffffffffffffffff825416604051602081019060808252600760a08201527f6465706f7369740000000000000000000000000000000000000000000000000060c082015260c060408201526102528161023860e082018c611346565b8c60608301528a608083015203601f1981018352826111f8565b51902090803b15610670578392838b9361029f604051988996879586947f76aefe77000000000000000000000000000000000000000000000000000000008652608435926004870161136b565b03925af19182610657575b50506102f9576102f56102bb6113b6565b6040519182917fe2bbc03d000000000000000000000000000000000000000000000000000000008352602060048401526024830190611346565b0390fd5b60405160ff845191602081818801946103138183886112ad565b8101600281520301902054166106135784156105a9576020610340916040518093819288519283916112ad565b81016002815203019020600160ff198254161790558573ffffffffffffffffffffffffffffffffffffffff8154166103766113e6565b96813b156105a557829173ffffffffffffffffffffffffffffffffffffffff838193610423604051988996879586947faca43908000000000000000000000000000000000000000000000000000000008652169e8f60048601523060248601526101406044860152856101448601521660648401528c608484015260c43560a48401528360c484015260e43560e48401526001610104840152610160610124840152610164830190611346565b03925af1918261058c575b5050610479576102f561043f6113b6565b6040519182917fbc92d5bc000000000000000000000000000000000000000000000000000000008352602060048401526024830190611346565b806104c6575b506104ba907fa4c217d71f344fdc455ed8c987fd4fb1be6f11a2e05066e27244d08ce9124fd892604051928392604084526040840190611346565b9060208301520390a280f35b90818552600360205260ff604086205416610548577fa4c217d71f344fdc455ed8c987fd4fb1be6f11a2e05066e27244d08ce9124fd892826104ba93600555808752600360205260408720600160ff198254161790557f13b7988e460e02147392c67a86a8e331384a2a1ab002269648d8ac81a5efc0868780a292509061047f565b606460405162461bcd60e51b815260206004820152601a60248201527f7a6b56564d3a20726f6f742d616c72656164792d6578697374730000000000006044820152fd5b81610596916111f8565b6105a157853861042e565b8580fd5b8280fd5b608460405162461bcd60e51b815260206004820152602760248201527f7a6b56564d3a20616d6f756e742d6d7573742d62652d677265617465722d746860448201527f616e2d7a65726f000000000000000000000000000000000000000000000000006064820152fd5b606460405162461bcd60e51b815260206004820152601e60248201527f7a6b56564d3a20636f6d6d69746d656e742d616c72656164792d7573656400006044820152fd5b81610661916111f8565b61066c5786386102aa565b8680fd5b8380fd5b8480fd5b50346100d3576101206003193601126100d3576106936111d0565b60243573ffffffffffffffffffffffffffffffffffffffff81168091036105a5576044359167ffffffffffffffff831161067057366023840112156106705782600401359167ffffffffffffffff8311610674576024840193602484369201011161067457606435936084359367ffffffffffffffff851161066c573660238601121561066c5784600401359167ffffffffffffffff8311610e795760248601913660248560051b89010111610e755760a4359660c43573ffffffffffffffffffffffffffffffffffffffff81168103610e71578a610104359167ffffffffffffffff8311610e6d5787898761082d888f97610793903690600401611266565b976108198d73ffffffffffffffffffffffffffffffffffffffff8a541697610807604051978896602088019a60a08c52600860c08a01527f776974686472617700000000000000000000000000000000000000000000000060e08a0152604089015260e060608901526101008801916112e8565b91601f19868403016080870152611309565b9060a083015203601f1981018352826111f8565b51902091813b1561067057838c93610878604051978896879586947f76aefe7700000000000000000000000000000000000000000000000000000000865260e435926004870161136b565b03925af19081610e59575b506108cd576102f56108936113b6565b6040519182917f71d49912000000000000000000000000000000000000000000000000000000008352602060048401526024830190611346565b60058503610e15578460021015610da45760648101358903610dd1578415610da4578335988560011015610d77578560031015610d77576044608483013592013515610d33578a52600360205260ff60408b20541615610cef57888a52600460205260ff60408b205416610cab578573ffffffffffffffffffffffffffffffffffffffff821603610c675760405160208101918a835260408201527f76328d31273a9e776d3dbfcc94e0245f6b4cf54eed9ee2adcb530d421c285b2760608201526060815261099d6080826111f8565b519020604051602081019182528a6040820152604081526109bf6060826111f8565b5190208088189714610bfd57610a23602093610a119560405196879586957fea50d0e40000000000000000000000000000000000000000000000000000000087526040600488015260448701916112e8565b91600319858403016024860152611309565b038173ffffffffffffffffffffffffffffffffffffffff7f0000000000000000000000000000000000000000000000000000000000000000165afa908115610bf2578691610bc3575b5015610b7f578490848252600460205260408220600160ff19825416179055610a936113e6565b9073ffffffffffffffffffffffffffffffffffffffff83541691823b1561067057606484928373ffffffffffffffffffffffffffffffffffffffff9560405196879586947fc898a6e900000000000000000000000000000000000000000000000000000000865260048601521660248401528960448401525af18015610b7457610b5f575b5050602073ffffffffffffffffffffffffffffffffffffffff7f1353fec506e912e37c0fbf3dddb0aa594d9b70ae58b1cc56ee735f589c351b68926040519485521692a380f35b81610b69916111f8565b610670578338610b18565b6040513d84823e3d90fd5b606460405162461bcd60e51b815260206004820152600d60248201527f696e76616c69642070726f6f66000000000000000000000000000000000000006044820152fd5b610be5915060203d602011610beb575b610bdd81836111f8565b8101906112d0565b38610a6c565b503d610bd3565b6040513d88823e3d90fd5b608460405162461bcd60e51b815260206004820152603060248201527f7a6b56564d3a2077697468647261772d616d6f756e742d6d7573742d62652d6760448201527f7265617465722d7468616e2d7a65726f000000000000000000000000000000006064820152fd5b606460405162461bcd60e51b815260206004820152601960248201527f7a6b56564d3a20726563697069656e742d6d69736d61746368000000000000006044820152fd5b606460405162461bcd60e51b815260206004820152601560248201527f7a6b56564d3a206e756c6c69666965722d7573656400000000000000000000006044820152fd5b606460405162461bcd60e51b815260206004820152601360248201527f7a6b56564d3a20756e6b6e6f776e2d726f6f74000000000000000000000000006044820152fd5b606460405162461bcd60e51b815260206004820152601b60248201527f7a6b56564d3a20696e76616c69642d6d65726b6c652d646570746800000000006044820152fd5b60248b7f4e487b710000000000000000000000000000000000000000000000000000000081526032600452fd5b60248a7f4e487b710000000000000000000000000000000000000000000000000000000081526032600452fd5b606460405162461bcd60e51b815260206004820152601460248201527f7a6b56564d3a20726f6f742d6d69736d617463680000000000000000000000006044820152fd5b606460405162461bcd60e51b815260206004820152601c60248201527f7a6b56564d3a20696e76616c69642d7075626c69632d696e70757473000000006044820152fd5b8b610e66919c929c6111f8565b9938610883565b5080fd5b8a80fd5b8880fd5b8780fd5b50346100d35760406003193601126100d357610e976111d0565b602073ffffffffffffffffffffffffffffffffffffffff6044818554169360405194859384927fd0e3692d00000000000000000000000000000000000000000000000000000000845216600483015260243560248301525afa908115610b745760209291610f0b575b506040519015158152f35b610f229150823d8411610beb57610bdd81836111f8565b38610f00565b50346100d35760206003193601126100d357600435808252600360205260ff604083205416610ff25773ffffffffffffffffffffffffffffffffffffffff600654163303610fae57808252600360205260408220600160ff198254161790557f13b7988e460e02147392c67a86a8e331384a2a1ab002269648d8ac81a5efc0868280a280f35b606460405162461bcd60e51b815260206004820152601f60248201527f4f6e6c792061646d696e2063616e2063616c6c2074686973206d6574686f64006044820152fd5b606460405162461bcd60e51b815260206004820152601260248201527f526f6f7420616c7265616479206b6e6f776e00000000000000000000000000006044820152fd5b50346100d357806003193601126100d357602060405173ffffffffffffffffffffffffffffffffffffffff7f0000000000000000000000000000000000000000000000000000000000000000168152f35b50346100d35760206003193601126100d3576004359067ffffffffffffffff82116100d357602060ff6110d4826110c13660048801611266565b81604051938285809451938492016112ad565b8101600281520301902054166040519015158152f35b50346100d35760206003193601126100d3576111046111d0565b602073ffffffffffffffffffffffffffffffffffffffff6024818554169360405194859384927f6cd301480000000000000000000000000000000000000000000000000000000084521660048301525afa908115610b7457829161116e575b602082604051908152f35b90506020813d60201161119c575b81611189602093836111f8565b81010312610e6d57602091505138611163565b3d915061117c565b905034610e6d576020600319360112610e6d5760ff604060209360043581526004855220541615158152f35b6004359073ffffffffffffffffffffffffffffffffffffffff821682036111f357565b600080fd5b90601f601f19910116810190811067ffffffffffffffff82111761121b57604052565b7f4e487b7100000000000000000000000000000000000000000000000000000000600052604160045260246000fd5b67ffffffffffffffff811161121b57601f01601f191660200190565b81601f820112156111f35780359061127d8261124a565b9261128b60405194856111f8565b828452602083830101116111f357816000926020809301838601378301015290565b60005b8381106112c05750506000910152565b81810151838201526020016112b0565b908160209103126111f3575180151581036111f35790565b601f8260209493601f19938186528686013760008582860101520116010190565b90918281527f07ffffffffffffffffffffffffffffffffffffffffffffffffffffffffffffff83116111f35760209260051b809284830137010190565b90601f19601f602093611364815180928187528780880191016112ad565b0116010190565b9160c09373ffffffffffffffffffffffffffffffffffffffff91826113b398979416855260208501521660408301526060820152600160808201528160a08201520190611346565b90565b3d156113e1573d906113c78261124a565b916113d560405193846111f8565b82523d6000602084013e565b606090565b6004602073ffffffffffffffffffffffffffffffffffffffff60005416604051928380927f280e32fb0000000000000000000000000000000000000000000000000000000082525afa90811561148d57600091611441575090565b6020813d602011611485575b8161145a602093836111f8565b81010312610e6d57519073ffffffffffffffffffffffffffffffffffffffff821682036100d3575090565b3d915061144d565b6040513d6000823e3d90fdfea2646970667358221220dbfe83c01f6116ebe00f72a76824d4d0964366c5680920c4da2e7aef0f3a9f8864736f6c634300081c0033",
  "linkReferences": {},
  "deployedLinkReferences": {}
}